{
	"escrowV2.sol": {
		"Escrow": {
			"abi": [
				{
					"inputs": [
						{
							"internalType": "address",
							"name": "_buyer",
							"type": "address"
						},
						{
							"internalType": "address payable",
							"name": "_seller",
							"type": "address"
						},
						{
							"internalType": "uint256",
							"name": "_amount",
							"type": "uint256"
						}
					],
					"stateMutability": "nonpayable",
					"type": "constructor"
				},
				{
					"inputs": [],
					"name": "amount",
					"outputs": [
						{
							"internalType": "uint256",
							"name": "",
							"type": "uint256"
						}
					],
					"stateMutability": "view",
					"type": "function"
				},
				{
					"inputs": [],
					"name": "buyer",
					"outputs": [
						{
							"internalType": "address",
							"name": "",
							"type": "address"
						}
					],
					"stateMutability": "view",
					"type": "function"
				},
				{
					"inputs": [],
					"name": "deposit",
					"outputs": [],
					"stateMutability": "payable",
					"type": "function"
				},
				{
					"inputs": [],
					"name": "escrowParty",
					"outputs": [
						{
							"internalType": "address",
							"name": "",
							"type": "address"
						}
					],
					"stateMutability": "view",
					"type": "function"
				},
				{
					"inputs": [],
					"name": "release",
					"outputs": [],
					"stateMutability": "nonpayable",
					"type": "function"
				},
				{
					"inputs": [],
					"name": "seller",
					"outputs": [
						{
							"internalType": "address payable",
							"name": "",
							"type": "address"
						}
					],
					"stateMutability": "view",
					"type": "function"
				}
			],
			"devdoc": {
				"kind": "dev",
				"methods": {},
				"version": 1
			},
			"evm": {
				"assembly": "    /* \"escrowV2.sol\":61:984  contract Escrow {... */\n  mstore(0x40, 0x80)\n    /* \"escrowV2.sol\":207:398  constructor(address _buyer, address payable _seller, uint _amount) {... */\n  callvalue\n  dup1\n  iszero\n  tag_1\n  jumpi\n  0x00\n  dup1\n  revert\ntag_1:\n  pop\n  mload(0x40)\n  sub(codesize, bytecodeSize)\n  dup1\n  bytecodeSize\n  dup4\n  codecopy\n  dup2\n  dup2\n  add\n  0x40\n  mstore\n  dup2\n  add\n  swap1\n  tag_2\n  swap2\n  swap1\n  tag_3\n  jump\t// in\ntag_2:\n    /* \"escrowV2.sol\":293:299  _buyer */\n  dup3\n    /* \"escrowV2.sol\":285:290  buyer */\n  0x00\n  dup1\n    /* \"escrowV2.sol\":285:299  buyer = _buyer */\n  0x0100\n  exp\n  dup2\n  sload\n  dup2\n  0xffffffffffffffffffffffffffffffffffffffff\n  mul\n  not\n  and\n  swap1\n  dup4\n  0xffffffffffffffffffffffffffffffffffffffff\n  and\n  mul\n  or\n  swap1\n  sstore\n  pop\n    /* \"escrowV2.sol\":319:326  _seller */\n  dup2\n    /* \"escrowV2.sol\":310:316  seller */\n  0x01\n  0x00\n    /* \"escrowV2.sol\":310:326  seller = _seller */\n  0x0100\n  exp\n  dup2\n  sload\n  dup2\n  0xffffffffffffffffffffffffffffffffffffffff\n  mul\n  not\n  and\n  swap1\n  dup4\n  0xffffffffffffffffffffffffffffffffffffffff\n  and\n  mul\n  or\n  swap1\n  sstore\n  pop\n    /* \"escrowV2.sol\":351:361  msg.sender */\n  caller\n    /* \"escrowV2.sol\":337:348  escrowParty */\n  0x02\n  0x00\n    /* \"escrowV2.sol\":337:361  escrowParty = msg.sender */\n  0x0100\n  exp\n  dup2\n  sload\n  dup2\n  0xffffffffffffffffffffffffffffffffffffffff\n  mul\n  not\n  and\n  swap1\n  dup4\n  0xffffffffffffffffffffffffffffffffffffffff\n  and\n  mul\n  or\n  swap1\n  sstore\n  pop\n    /* \"escrowV2.sol\":381:388  _amount */\n  dup1\n    /* \"escrowV2.sol\":372:378  amount */\n  0x03\n    /* \"escrowV2.sol\":372:388  amount = _amount */\n  dup2\n  swap1\n  sstore\n  pop\n    /* \"escrowV2.sol\":207:398  constructor(address _buyer, address payable _seller, uint _amount) {... */\n  pop\n  pop\n  pop\n    /* \"escrowV2.sol\":61:984  contract Escrow {... */\n  jump(tag_6)\n    /* \"#utility.yul\":88:205   */\ntag_8:\n    /* \"#utility.yul\":197:198   */\n  0x00\n    /* \"#utility.yul\":194:195   */\n  dup1\n    /* \"#utility.yul\":187:199   */\n  revert\n    /* \"#utility.yul\":334:460   */\ntag_10:\n    /* \"#utility.yul\":371:378   */\n  0x00\n    /* \"#utility.yul\":411:453   */\n  0xffffffffffffffffffffffffffffffffffffffff\n    /* \"#utility.yul\":404:409   */\n  dup3\n    /* \"#utility.yul\":400:454   */\n  and\n    /* \"#utility.yul\":389:454   */\n  swap1\n  pop\n    /* \"#utility.yul\":334:460   */\n  swap2\n  swap1\n  pop\n  jump\t// out\n    /* \"#utility.yul\":466:562   */\ntag_11:\n    /* \"#utility.yul\":503:510   */\n  0x00\n    /* \"#utility.yul\":532:556   */\n  tag_26\n    /* \"#utility.yul\":550:555   */\n  dup3\n    /* \"#utility.yul\":532:556   */\n  tag_10\n  jump\t// in\ntag_26:\n    /* \"#utility.yul\":521:556   */\n  swap1\n  pop\n    /* \"#utility.yul\":466:562   */\n  swap2\n  swap1\n  pop\n  jump\t// out\n    /* \"#utility.yul\":568:690   */\ntag_12:\n    /* \"#utility.yul\":641:665   */\n  tag_28\n    /* \"#utility.yul\":659:664   */\n  dup2\n    /* \"#utility.yul\":641:665   */\n  tag_11\n  jump\t// in\ntag_28:\n    /* \"#utility.yul\":634:639   */\n  dup2\n    /* \"#utility.yul\":631:666   */\n  eq\n    /* \"#utility.yul\":621:684   */\n  tag_29\n  jumpi\n    /* \"#utility.yul\":680:681   */\n  0x00\n    /* \"#utility.yul\":677:678   */\n  dup1\n    /* \"#utility.yul\":670:682   */\n  revert\n    /* \"#utility.yul\":621:684   */\ntag_29:\n    /* \"#utility.yul\":568:690   */\n  pop\n  jump\t// out\n    /* \"#utility.yul\":696:839   */\ntag_13:\n    /* \"#utility.yul\":753:758   */\n  0x00\n    /* \"#utility.yul\":784:790   */\n  dup2\n    /* \"#utility.yul\":778:791   */\n  mload\n    /* \"#utility.yul\":769:791   */\n  swap1\n  pop\n    /* \"#utility.yul\":800:833   */\n  tag_31\n    /* \"#utility.yul\":827:832   */\n  dup2\n    /* \"#utility.yul\":800:833   */\n  tag_12\n  jump\t// in\ntag_31:\n    /* \"#utility.yul\":696:839   */\n  swap3\n  swap2\n  pop\n  pop\n  jump\t// out\n    /* \"#utility.yul\":845:949   */\ntag_14:\n    /* \"#utility.yul\":890:897   */\n  0x00\n    /* \"#utility.yul\":919:943   */\n  tag_33\n    /* \"#utility.yul\":937:942   */\n  dup3\n    /* \"#utility.yul\":919:943   */\n  tag_10\n  jump\t// in\ntag_33:\n    /* \"#utility.yul\":908:943   */\n  swap1\n  pop\n    /* \"#utility.yul\":845:949   */\n  swap2\n  swap1\n  pop\n  jump\t// out\n    /* \"#utility.yul\":955:1093   */\ntag_15:\n    /* \"#utility.yul\":1036:1068   */\n  tag_35\n    /* \"#utility.yul\":1062:1067   */\n  dup2\n    /* \"#utility.yul\":1036:1068   */\n  tag_14\n  jump\t// in\ntag_35:\n    /* \"#utility.yul\":1029:1034   */\n  dup2\n    /* \"#utility.yul\":1026:1069   */\n  eq\n    /* \"#utility.yul\":1016:1087   */\n  tag_36\n  jumpi\n    /* \"#utility.yul\":1083:1084   */\n  0x00\n    /* \"#utility.yul\":1080:1081   */\n  dup1\n    /* \"#utility.yul\":1073:1085   */\n  revert\n    /* \"#utility.yul\":1016:1087   */\ntag_36:\n    /* \"#utility.yul\":955:1093   */\n  pop\n  jump\t// out\n    /* \"#utility.yul\":1099:1258   */\ntag_16:\n    /* \"#utility.yul\":1164:1169   */\n  0x00\n    /* \"#utility.yul\":1195:1201   */\n  dup2\n    /* \"#utility.yul\":1189:1202   */\n  mload\n    /* \"#utility.yul\":1180:1202   */\n  swap1\n  pop\n    /* \"#utility.yul\":1211:1252   */\n  tag_38\n    /* \"#utility.yul\":1246:1251   */\n  dup2\n    /* \"#utility.yul\":1211:1252   */\n  tag_15\n  jump\t// in\ntag_38:\n    /* \"#utility.yul\":1099:1258   */\n  swap3\n  swap2\n  pop\n  pop\n  jump\t// out\n    /* \"#utility.yul\":1264:1341   */\ntag_17:\n    /* \"#utility.yul\":1301:1308   */\n  0x00\n    /* \"#utility.yul\":1330:1335   */\n  dup2\n    /* \"#utility.yul\":1319:1335   */\n  swap1\n  pop\n    /* \"#utility.yul\":1264:1341   */\n  swap2\n  swap1\n  pop\n  jump\t// out\n    /* \"#utility.yul\":1347:1469   */\ntag_18:\n    /* \"#utility.yul\":1420:1444   */\n  tag_41\n    /* \"#utility.yul\":1438:1443   */\n  dup2\n    /* \"#utility.yul\":1420:1444   */\n  tag_17\n  jump\t// in\ntag_41:\n    /* \"#utility.yul\":1413:1418   */\n  dup2\n    /* \"#utility.yul\":1410:1445   */\n  eq\n    /* \"#utility.yul\":1400:1463   */\n  tag_42\n  jumpi\n    /* \"#utility.yul\":1459:1460   */\n  0x00\n    /* \"#utility.yul\":1456:1457   */\n  dup1\n    /* \"#utility.yul\":1449:1461   */\n  revert\n    /* \"#utility.yul\":1400:1463   */\ntag_42:\n    /* \"#utility.yul\":1347:1469   */\n  pop\n  jump\t// out\n    /* \"#utility.yul\":1475:1618   */\ntag_19:\n    /* \"#utility.yul\":1532:1537   */\n  0x00\n    /* \"#utility.yul\":1563:1569   */\n  dup2\n    /* \"#utility.yul\":1557:1570   */\n  mload\n    /* \"#utility.yul\":1548:1570   */\n  swap1\n  pop\n    /* \"#utility.yul\":1579:1612   */\n  tag_44\n    /* \"#utility.yul\":1606:1611   */\n  dup2\n    /* \"#utility.yul\":1579:1612   */\n  tag_18\n  jump\t// in\ntag_44:\n    /* \"#utility.yul\":1475:1618   */\n  swap3\n  swap2\n  pop\n  pop\n  jump\t// out\n    /* \"#utility.yul\":1624:2303   */\ntag_3:\n    /* \"#utility.yul\":1720:1726   */\n  0x00\n    /* \"#utility.yul\":1728:1734   */\n  dup1\n    /* \"#utility.yul\":1736:1742   */\n  0x00\n    /* \"#utility.yul\":1785:1787   */\n  0x60\n    /* \"#utility.yul\":1773:1782   */\n  dup5\n    /* \"#utility.yul\":1764:1771   */\n  dup7\n    /* \"#utility.yul\":1760:1783   */\n  sub\n    /* \"#utility.yul\":1756:1788   */\n  slt\n    /* \"#utility.yul\":1753:1872   */\n  iszero\n  tag_46\n  jumpi\n    /* \"#utility.yul\":1791:1870   */\n  tag_47\n  tag_8\n  jump\t// in\ntag_47:\n    /* \"#utility.yul\":1753:1872   */\ntag_46:\n    /* \"#utility.yul\":1911:1912   */\n  0x00\n    /* \"#utility.yul\":1936:2000   */\n  tag_48\n    /* \"#utility.yul\":1992:1999   */\n  dup7\n    /* \"#utility.yul\":1983:1989   */\n  dup3\n    /* \"#utility.yul\":1972:1981   */\n  dup8\n    /* \"#utility.yul\":1968:1990   */\n  add\n    /* \"#utility.yul\":1936:2000   */\n  tag_13\n  jump\t// in\ntag_48:\n    /* \"#utility.yul\":1926:2000   */\n  swap4\n  pop\n    /* \"#utility.yul\":1882:2010   */\n  pop\n    /* \"#utility.yul\":2049:2051   */\n  0x20\n    /* \"#utility.yul\":2075:2147   */\n  tag_49\n    /* \"#utility.yul\":2139:2146   */\n  dup7\n    /* \"#utility.yul\":2130:2136   */\n  dup3\n    /* \"#utility.yul\":2119:2128   */\n  dup8\n    /* \"#utility.yul\":2115:2137   */\n  add\n    /* \"#utility.yul\":2075:2147   */\n  tag_16\n  jump\t// in\ntag_49:\n    /* \"#utility.yul\":2065:2147   */\n  swap3\n  pop\n    /* \"#utility.yul\":2020:2157   */\n  pop\n    /* \"#utility.yul\":2196:2198   */\n  0x40\n    /* \"#utility.yul\":2222:2286   */\n  tag_50\n    /* \"#utility.yul\":2278:2285   */\n  dup7\n    /* \"#utility.yul\":2269:2275   */\n  dup3\n    /* \"#utility.yul\":2258:2267   */\n  dup8\n    /* \"#utility.yul\":2254:2276   */\n  add\n    /* \"#utility.yul\":2222:2286   */\n  tag_19\n  jump\t// in\ntag_50:\n    /* \"#utility.yul\":2212:2286   */\n  swap2\n  pop\n    /* \"#utility.yul\":2167:2296   */\n  pop\n    /* \"#utility.yul\":1624:2303   */\n  swap3\n  pop\n  swap3\n  pop\n  swap3\n  jump\t// out\n    /* \"escrowV2.sol\":61:984  contract Escrow {... */\ntag_6:\n  dataSize(sub_0)\n  dup1\n  dataOffset(sub_0)\n  0x00\n  codecopy\n  0x00\n  return\nstop\n\nsub_0: assembly {\n        /* \"escrowV2.sol\":61:984  contract Escrow {... */\n      mstore(0x40, 0x80)\n      jumpi(tag_1, lt(calldatasize, 0x04))\n      shr(0xe0, calldataload(0x00))\n      dup1\n      0x08551a53\n      eq\n      tag_2\n      jumpi\n      dup1\n      0x18599d38\n      eq\n      tag_3\n      jumpi\n      dup1\n      0x7150d8ae\n      eq\n      tag_4\n      jumpi\n      dup1\n      0x86d1a69f\n      eq\n      tag_5\n      jumpi\n      dup1\n      0xaa8c217c\n      eq\n      tag_6\n      jumpi\n      dup1\n      0xd0e30db0\n      eq\n      tag_7\n      jumpi\n    tag_1:\n      0x00\n      dup1\n      revert\n        /* \"escrowV2.sol\":111:140  address payable public seller */\n    tag_2:\n      callvalue\n      dup1\n      iszero\n      tag_8\n      jumpi\n      0x00\n      dup1\n      revert\n    tag_8:\n      pop\n      tag_9\n      tag_10\n      jump\t// in\n    tag_9:\n      mload(0x40)\n      tag_11\n      swap2\n      swap1\n      tag_12\n      jump\t// in\n    tag_11:\n      mload(0x40)\n      dup1\n      swap2\n      sub\n      swap1\n      return\n        /* \"escrowV2.sol\":147:173  address public escrowParty */\n    tag_3:\n      callvalue\n      dup1\n      iszero\n      tag_13\n      jumpi\n      0x00\n      dup1\n      revert\n    tag_13:\n      pop\n      tag_14\n      tag_15\n      jump\t// in\n    tag_14:\n      mload(0x40)\n      tag_16\n      swap2\n      swap1\n      tag_17\n      jump\t// in\n    tag_16:\n      mload(0x40)\n      dup1\n      swap2\n      sub\n      swap1\n      return\n        /* \"escrowV2.sol\":84:104  address public buyer */\n    tag_4:\n      callvalue\n      dup1\n      iszero\n      tag_18\n      jumpi\n      0x00\n      dup1\n      revert\n    tag_18:\n      pop\n      tag_19\n      tag_20\n      jump\t// in\n    tag_19:\n      mload(0x40)\n      tag_21\n      swap2\n      swap1\n      tag_17\n      jump\t// in\n    tag_21:\n      mload(0x40)\n      dup1\n      swap2\n      sub\n      swap1\n      return\n        /* \"escrowV2.sol\":646:835  function release() public onlyEscrowParty() {... */\n    tag_5:\n      callvalue\n      dup1\n      iszero\n      tag_22\n      jumpi\n      0x00\n      dup1\n      revert\n    tag_22:\n      pop\n      tag_23\n      tag_24\n      jump\t// in\n    tag_23:\n      stop\n        /* \"escrowV2.sol\":180:198  uint public amount */\n    tag_6:\n      callvalue\n      dup1\n      iszero\n      tag_25\n      jumpi\n      0x00\n      dup1\n      revert\n    tag_25:\n      pop\n      tag_26\n      tag_27\n      jump\t// in\n    tag_26:\n      mload(0x40)\n      tag_28\n      swap2\n      swap1\n      tag_29\n      jump\t// in\n    tag_28:\n      mload(0x40)\n      dup1\n      swap2\n      sub\n      swap1\n      return\n        /* \"escrowV2.sol\":404:638  function deposit() payable public {... */\n    tag_7:\n      tag_30\n      tag_31\n      jump\t// in\n    tag_30:\n      stop\n        /* \"escrowV2.sol\":111:140  address payable public seller */\n    tag_10:\n      0x01\n      0x00\n      swap1\n      sload\n      swap1\n      0x0100\n      exp\n      swap1\n      div\n      0xffffffffffffffffffffffffffffffffffffffff\n      and\n      dup2\n      jump\t// out\n        /* \"escrowV2.sol\":147:173  address public escrowParty */\n    tag_15:\n      0x02\n      0x00\n      swap1\n      sload\n      swap1\n      0x0100\n      exp\n      swap1\n      div\n      0xffffffffffffffffffffffffffffffffffffffff\n      and\n      dup2\n      jump\t// out\n        /* \"escrowV2.sol\":84:104  address public buyer */\n    tag_20:\n      0x00\n      dup1\n      sload\n      swap1\n      0x0100\n      exp\n      swap1\n      div\n      0xffffffffffffffffffffffffffffffffffffffff\n      and\n      dup2\n      jump\t// out\n        /* \"escrowV2.sol\":646:835  function release() public onlyEscrowParty() {... */\n    tag_24:\n        /* \"escrowV2.sol\":901:912  escrowParty */\n      0x02\n      0x00\n      swap1\n      sload\n      swap1\n      0x0100\n      exp\n      swap1\n      div\n      0xffffffffffffffffffffffffffffffffffffffff\n      and\n        /* \"escrowV2.sol\":887:912  msg.sender == escrowParty */\n      0xffffffffffffffffffffffffffffffffffffffff\n      and\n        /* \"escrowV2.sol\":887:897  msg.sender */\n      caller\n        /* \"escrowV2.sol\":887:912  msg.sender == escrowParty */\n      0xffffffffffffffffffffffffffffffffffffffff\n      and\n      eq\n        /* \"escrowV2.sol\":879:961  require(msg.sender == escrowParty, \"ONly escrow party can perform this operation\") */\n      tag_33\n      jumpi\n      mload(0x40)\n      0x08c379a000000000000000000000000000000000000000000000000000000000\n      dup2\n      mstore\n      0x04\n      add\n      tag_34\n      swap1\n      tag_35\n      jump\t// in\n    tag_34:\n      mload(0x40)\n      dup1\n      swap2\n      sub\n      swap1\n      revert\n    tag_33:\n        /* \"escrowV2.sol\":734:740  amount */\n      sload(0x03)\n        /* \"escrowV2.sol\":709:730  address(this).balance */\n      selfbalance\n        /* \"escrowV2.sol\":709:740  address(this).balance == amount */\n      eq\n        /* \"escrowV2.sol\":701:791  require(address(this).balance == amount, \"Cannot realse funds before full amount is sent\") */\n      tag_37\n      jumpi\n      mload(0x40)\n      0x08c379a000000000000000000000000000000000000000000000000000000000\n      dup2\n      mstore\n      0x04\n      add\n      tag_38\n      swap1\n      tag_39\n      jump\t// in\n    tag_38:\n      mload(0x40)\n      dup1\n      swap2\n      sub\n      swap1\n      revert\n    tag_37:\n        /* \"escrowV2.sol\":802:808  seller */\n      0x01\n      0x00\n      swap1\n      sload\n      swap1\n      0x0100\n      exp\n      swap1\n      div\n      0xffffffffffffffffffffffffffffffffffffffff\n      and\n        /* \"escrowV2.sol\":802:817  seller.transfer */\n      0xffffffffffffffffffffffffffffffffffffffff\n      and\n        /* \"escrowV2.sol\":802:825  seller.transfer(amount) */\n      0x08fc\n        /* \"escrowV2.sol\":818:824  amount */\n      sload(0x03)\n        /* \"escrowV2.sol\":802:825  seller.transfer(amount) */\n      swap1\n      dup2\n      iszero\n      mul\n      swap1\n      mload(0x40)\n      0x00\n      mload(0x40)\n      dup1\n      dup4\n      sub\n      dup2\n      dup6\n      dup9\n      dup9\n      call\n      swap4\n      pop\n      pop\n      pop\n      pop\n      iszero\n      dup1\n      iszero\n      tag_41\n      jumpi\n      returndatasize\n      0x00\n      dup1\n      returndatacopy\n      revert(0x00, returndatasize)\n    tag_41:\n      pop\n        /* \"escrowV2.sol\":646:835  function release() public onlyEscrowParty() {... */\n      jump\t// out\n        /* \"escrowV2.sol\":180:198  uint public amount */\n    tag_27:\n      sload(0x03)\n      dup2\n      jump\t// out\n        /* \"escrowV2.sol\":404:638  function deposit() payable public {... */\n    tag_31:\n        /* \"escrowV2.sol\":471:476  buyer */\n      0x00\n      dup1\n      sload\n      swap1\n      0x0100\n      exp\n      swap1\n      div\n      0xffffffffffffffffffffffffffffffffffffffff\n      and\n        /* \"escrowV2.sol\":457:476  msg.sender == buyer */\n      0xffffffffffffffffffffffffffffffffffffffff\n      and\n        /* \"escrowV2.sol\":457:467  msg.sender */\n      caller\n        /* \"escrowV2.sol\":457:476  msg.sender == buyer */\n      0xffffffffffffffffffffffffffffffffffffffff\n      and\n      eq\n        /* \"escrowV2.sol\":449:517  require(msg.sender == buyer, \"Sender must be the buyer of the item\") */\n      tag_43\n      jumpi\n      mload(0x40)\n      0x08c379a000000000000000000000000000000000000000000000000000000000\n      dup2\n      mstore\n      0x04\n      add\n      tag_44\n      swap1\n      tag_45\n      jump\t// in\n    tag_44:\n      mload(0x40)\n      dup1\n      swap2\n      sub\n      swap1\n      revert\n    tag_43:\n        /* \"escrowV2.sol\":561:567  amount */\n      sload(0x03)\n        /* \"escrowV2.sol\":536:557  address(this).balance */\n      selfbalance\n        /* \"escrowV2.sol\":536:567  address(this).balance <= amount */\n      gt\n      iszero\n        /* \"escrowV2.sol\":528:628  require(address(this).balance <= amount, \"Cannot send more than the amount require from the escrow\") */\n      tag_46\n      jumpi\n      mload(0x40)\n      0x08c379a000000000000000000000000000000000000000000000000000000000\n      dup2\n      mstore\n      0x04\n      add\n      tag_47\n      swap1\n      tag_48\n      jump\t// in\n    tag_47:\n      mload(0x40)\n      dup1\n      swap2\n      sub\n      swap1\n      revert\n    tag_46:\n        /* \"escrowV2.sol\":404:638  function deposit() payable public {... */\n      jump\t// out\n        /* \"#utility.yul\":7:133   */\n    tag_49:\n        /* \"#utility.yul\":44:51   */\n      0x00\n        /* \"#utility.yul\":84:126   */\n      0xffffffffffffffffffffffffffffffffffffffff\n        /* \"#utility.yul\":77:82   */\n      dup3\n        /* \"#utility.yul\":73:127   */\n      and\n        /* \"#utility.yul\":62:127   */\n      swap1\n      pop\n        /* \"#utility.yul\":7:133   */\n      swap2\n      swap1\n      pop\n      jump\t// out\n        /* \"#utility.yul\":139:243   */\n    tag_50:\n        /* \"#utility.yul\":184:191   */\n      0x00\n        /* \"#utility.yul\":213:237   */\n      tag_68\n        /* \"#utility.yul\":231:236   */\n      dup3\n        /* \"#utility.yul\":213:237   */\n      tag_49\n      jump\t// in\n    tag_68:\n        /* \"#utility.yul\":202:237   */\n      swap1\n      pop\n        /* \"#utility.yul\":139:243   */\n      swap2\n      swap1\n      pop\n      jump\t// out\n        /* \"#utility.yul\":249:391   */\n    tag_51:\n        /* \"#utility.yul\":352:384   */\n      tag_70\n        /* \"#utility.yul\":378:383   */\n      dup2\n        /* \"#utility.yul\":352:384   */\n      tag_50\n      jump\t// in\n    tag_70:\n        /* \"#utility.yul\":347:350   */\n      dup3\n        /* \"#utility.yul\":340:385   */\n      mstore\n        /* \"#utility.yul\":249:391   */\n      pop\n      pop\n      jump\t// out\n        /* \"#utility.yul\":397:651   */\n    tag_12:\n        /* \"#utility.yul\":506:510   */\n      0x00\n        /* \"#utility.yul\":544:546   */\n      0x20\n        /* \"#utility.yul\":533:542   */\n      dup3\n        /* \"#utility.yul\":529:547   */\n      add\n        /* \"#utility.yul\":521:547   */\n      swap1\n      pop\n        /* \"#utility.yul\":557:644   */\n      tag_72\n        /* \"#utility.yul\":641:642   */\n      0x00\n        /* \"#utility.yul\":630:639   */\n      dup4\n        /* \"#utility.yul\":626:643   */\n      add\n        /* \"#utility.yul\":617:623   */\n      dup5\n        /* \"#utility.yul\":557:644   */\n      tag_51\n      jump\t// in\n    tag_72:\n        /* \"#utility.yul\":397:651   */\n      swap3\n      swap2\n      pop\n      pop\n      jump\t// out\n        /* \"#utility.yul\":657:753   */\n    tag_52:\n        /* \"#utility.yul\":694:701   */\n      0x00\n        /* \"#utility.yul\":723:747   */\n      tag_74\n        /* \"#utility.yul\":741:746   */\n      dup3\n        /* \"#utility.yul\":723:747   */\n      tag_49\n      jump\t// in\n    tag_74:\n        /* \"#utility.yul\":712:747   */\n      swap1\n      pop\n        /* \"#utility.yul\":657:753   */\n      swap2\n      swap1\n      pop\n      jump\t// out\n        /* \"#utility.yul\":759:877   */\n    tag_53:\n        /* \"#utility.yul\":846:870   */\n      tag_76\n        /* \"#utility.yul\":864:869   */\n      dup2\n        /* \"#utility.yul\":846:870   */\n      tag_52\n      jump\t// in\n    tag_76:\n        /* \"#utility.yul\":841:844   */\n      dup3\n        /* \"#utility.yul\":834:871   */\n      mstore\n        /* \"#utility.yul\":759:877   */\n      pop\n      pop\n      jump\t// out\n        /* \"#utility.yul\":883:1105   */\n    tag_17:\n        /* \"#utility.yul\":976:980   */\n      0x00\n        /* \"#utility.yul\":1014:1016   */\n      0x20\n        /* \"#utility.yul\":1003:1012   */\n      dup3\n        /* \"#utility.yul\":999:1017   */\n      add\n        /* \"#utility.yul\":991:1017   */\n      swap1\n      pop\n        /* \"#utility.yul\":1027:1098   */\n      tag_78\n        /* \"#utility.yul\":1095:1096   */\n      0x00\n        /* \"#utility.yul\":1084:1093   */\n      dup4\n        /* \"#utility.yul\":1080:1097   */\n      add\n        /* \"#utility.yul\":1071:1077   */\n      dup5\n        /* \"#utility.yul\":1027:1098   */\n      tag_53\n      jump\t// in\n    tag_78:\n        /* \"#utility.yul\":883:1105   */\n      swap3\n      swap2\n      pop\n      pop\n      jump\t// out\n        /* \"#utility.yul\":1111:1188   */\n    tag_54:\n        /* \"#utility.yul\":1148:1155   */\n      0x00\n        /* \"#utility.yul\":1177:1182   */\n      dup2\n        /* \"#utility.yul\":1166:1182   */\n      swap1\n      pop\n        /* \"#utility.yul\":1111:1188   */\n      swap2\n      swap1\n      pop\n      jump\t// out\n        /* \"#utility.yul\":1194:1312   */\n    tag_55:\n        /* \"#utility.yul\":1281:1305   */\n      tag_81\n        /* \"#utility.yul\":1299:1304   */\n      dup2\n        /* \"#utility.yul\":1281:1305   */\n      tag_54\n      jump\t// in\n    tag_81:\n        /* \"#utility.yul\":1276:1279   */\n      dup3\n        /* \"#utility.yul\":1269:1306   */\n      mstore\n        /* \"#utility.yul\":1194:1312   */\n      pop\n      pop\n      jump\t// out\n        /* \"#utility.yul\":1318:1540   */\n    tag_29:\n        /* \"#utility.yul\":1411:1415   */\n      0x00\n        /* \"#utility.yul\":1449:1451   */\n      0x20\n        /* \"#utility.yul\":1438:1447   */\n      dup3\n        /* \"#utility.yul\":1434:1452   */\n      add\n        /* \"#utility.yul\":1426:1452   */\n      swap1\n      pop\n        /* \"#utility.yul\":1462:1533   */\n      tag_83\n        /* \"#utility.yul\":1530:1531   */\n      0x00\n        /* \"#utility.yul\":1519:1528   */\n      dup4\n        /* \"#utility.yul\":1515:1532   */\n      add\n        /* \"#utility.yul\":1506:1512   */\n      dup5\n        /* \"#utility.yul\":1462:1533   */\n      tag_55\n      jump\t// in\n    tag_83:\n        /* \"#utility.yul\":1318:1540   */\n      swap3\n      swap2\n      pop\n      pop\n      jump\t// out\n        /* \"#utility.yul\":1546:1715   */\n    tag_56:\n        /* \"#utility.yul\":1630:1641   */\n      0x00\n        /* \"#utility.yul\":1664:1670   */\n      dup3\n        /* \"#utility.yul\":1659:1662   */\n      dup3\n        /* \"#utility.yul\":1652:1671   */\n      mstore\n        /* \"#utility.yul\":1704:1708   */\n      0x20\n        /* \"#utility.yul\":1699:1702   */\n      dup3\n        /* \"#utility.yul\":1695:1709   */\n      add\n        /* \"#utility.yul\":1680:1709   */\n      swap1\n      pop\n        /* \"#utility.yul\":1546:1715   */\n      swap3\n      swap2\n      pop\n      pop\n      jump\t// out\n        /* \"#utility.yul\":1721:1952   */\n    tag_57:\n        /* \"#utility.yul\":1861:1895   */\n      0x4f4e6c7920657363726f772070617274792063616e20706572666f726d207468\n        /* \"#utility.yul\":1857:1858   */\n      0x00\n        /* \"#utility.yul\":1849:1855   */\n      dup3\n        /* \"#utility.yul\":1845:1859   */\n      add\n        /* \"#utility.yul\":1838:1896   */\n      mstore\n        /* \"#utility.yul\":1930:1944   */\n      0x6973206f7065726174696f6e0000000000000000000000000000000000000000\n        /* \"#utility.yul\":1925:1927   */\n      0x20\n        /* \"#utility.yul\":1917:1923   */\n      dup3\n        /* \"#utility.yul\":1913:1928   */\n      add\n        /* \"#utility.yul\":1906:1945   */\n      mstore\n        /* \"#utility.yul\":1721:1952   */\n      pop\n      jump\t// out\n        /* \"#utility.yul\":1958:2324   */\n    tag_58:\n        /* \"#utility.yul\":2100:2103   */\n      0x00\n        /* \"#utility.yul\":2121:2188   */\n      tag_87\n        /* \"#utility.yul\":2185:2187   */\n      0x2c\n        /* \"#utility.yul\":2180:2183   */\n      dup4\n        /* \"#utility.yul\":2121:2188   */\n      tag_56\n      jump\t// in\n    tag_87:\n        /* \"#utility.yul\":2114:2188   */\n      swap2\n      pop\n        /* \"#utility.yul\":2197:2290   */\n      tag_88\n        /* \"#utility.yul\":2286:2289   */\n      dup3\n        /* \"#utility.yul\":2197:2290   */\n      tag_57\n      jump\t// in\n    tag_88:\n        /* \"#utility.yul\":2315:2317   */\n      0x40\n        /* \"#utility.yul\":2310:2313   */\n      dup3\n        /* \"#utility.yul\":2306:2318   */\n      add\n        /* \"#utility.yul\":2299:2318   */\n      swap1\n      pop\n        /* \"#utility.yul\":1958:2324   */\n      swap2\n      swap1\n      pop\n      jump\t// out\n        /* \"#utility.yul\":2330:2749   */\n    tag_35:\n        /* \"#utility.yul\":2496:2500   */\n      0x00\n        /* \"#utility.yul\":2534:2536   */\n      0x20\n        /* \"#utility.yul\":2523:2532   */\n      dup3\n        /* \"#utility.yul\":2519:2537   */\n      add\n        /* \"#utility.yul\":2511:2537   */\n      swap1\n      pop\n        /* \"#utility.yul\":2583:2592   */\n      dup2\n        /* \"#utility.yul\":2577:2581   */\n      dup2\n        /* \"#utility.yul\":2573:2593   */\n      sub\n        /* \"#utility.yul\":2569:2570   */\n      0x00\n        /* \"#utility.yul\":2558:2567   */\n      dup4\n        /* \"#utility.yul\":2554:2571   */\n      add\n        /* \"#utility.yul\":2547:2594   */\n      mstore\n        /* \"#utility.yul\":2611:2742   */\n      tag_90\n        /* \"#utility.yul\":2737:2741   */\n      dup2\n        /* \"#utility.yul\":2611:2742   */\n      tag_58\n      jump\t// in\n    tag_90:\n        /* \"#utility.yul\":2603:2742   */\n      swap1\n      pop\n        /* \"#utility.yul\":2330:2749   */\n      swap2\n      swap1\n      pop\n      jump\t// out\n        /* \"#utility.yul\":2755:2988   */\n    tag_59:\n        /* \"#utility.yul\":2895:2929   */\n      0x43616e6e6f74207265616c73652066756e6473206265666f72652066756c6c20\n        /* \"#utility.yul\":2891:2892   */\n      0x00\n        /* \"#utility.yul\":2883:2889   */\n      dup3\n        /* \"#utility.yul\":2879:2893   */\n      add\n        /* \"#utility.yul\":2872:2930   */\n      mstore\n        /* \"#utility.yul\":2964:2980   */\n      0x616d6f756e742069732073656e74000000000000000000000000000000000000\n        /* \"#utility.yul\":2959:2961   */\n      0x20\n        /* \"#utility.yul\":2951:2957   */\n      dup3\n        /* \"#utility.yul\":2947:2962   */\n      add\n        /* \"#utility.yul\":2940:2981   */\n      mstore\n        /* \"#utility.yul\":2755:2988   */\n      pop\n      jump\t// out\n        /* \"#utility.yul\":2994:3360   */\n    tag_60:\n        /* \"#utility.yul\":3136:3139   */\n      0x00\n        /* \"#utility.yul\":3157:3224   */\n      tag_93\n        /* \"#utility.yul\":3221:3223   */\n      0x2e\n        /* \"#utility.yul\":3216:3219   */\n      dup4\n        /* \"#utility.yul\":3157:3224   */\n      tag_56\n      jump\t// in\n    tag_93:\n        /* \"#utility.yul\":3150:3224   */\n      swap2\n      pop\n        /* \"#utility.yul\":3233:3326   */\n      tag_94\n        /* \"#utility.yul\":3322:3325   */\n      dup3\n        /* \"#utility.yul\":3233:3326   */\n      tag_59\n      jump\t// in\n    tag_94:\n        /* \"#utility.yul\":3351:3353   */\n      0x40\n        /* \"#utility.yul\":3346:3349   */\n      dup3\n        /* \"#utility.yul\":3342:3354   */\n      add\n        /* \"#utility.yul\":3335:3354   */\n      swap1\n      pop\n        /* \"#utility.yul\":2994:3360   */\n      swap2\n      swap1\n      pop\n      jump\t// out\n        /* \"#utility.yul\":3366:3785   */\n    tag_39:\n        /* \"#utility.yul\":3532:3536   */\n      0x00\n        /* \"#utility.yul\":3570:3572   */\n      0x20\n        /* \"#utility.yul\":3559:3568   */\n      dup3\n        /* \"#utility.yul\":3555:3573   */\n      add\n        /* \"#utility.yul\":3547:3573   */\n      swap1\n      pop\n        /* \"#utility.yul\":3619:3628   */\n      dup2\n        /* \"#utility.yul\":3613:3617   */\n      dup2\n        /* \"#utility.yul\":3609:3629   */\n      sub\n        /* \"#utility.yul\":3605:3606   */\n      0x00\n        /* \"#utility.yul\":3594:3603   */\n      dup4\n        /* \"#utility.yul\":3590:3607   */\n      add\n        /* \"#utility.yul\":3583:3630   */\n      mstore\n        /* \"#utility.yul\":3647:3778   */\n      tag_96\n        /* \"#utility.yul\":3773:3777   */\n      dup2\n        /* \"#utility.yul\":3647:3778   */\n      tag_60\n      jump\t// in\n    tag_96:\n        /* \"#utility.yul\":3639:3778   */\n      swap1\n      pop\n        /* \"#utility.yul\":3366:3785   */\n      swap2\n      swap1\n      pop\n      jump\t// out\n        /* \"#utility.yul\":3791:4014   */\n    tag_61:\n        /* \"#utility.yul\":3931:3965   */\n      0x53656e646572206d75737420626520746865206275796572206f662074686520\n        /* \"#utility.yul\":3927:3928   */\n      0x00\n        /* \"#utility.yul\":3919:3925   */\n      dup3\n        /* \"#utility.yul\":3915:3929   */\n      add\n        /* \"#utility.yul\":3908:3966   */\n      mstore\n        /* \"#utility.yul\":4000:4006   */\n      0x6974656d00000000000000000000000000000000000000000000000000000000\n        /* \"#utility.yul\":3995:3997   */\n      0x20\n        /* \"#utility.yul\":3987:3993   */\n      dup3\n        /* \"#utility.yul\":3983:3998   */\n      add\n        /* \"#utility.yul\":3976:4007   */\n      mstore\n        /* \"#utility.yul\":3791:4014   */\n      pop\n      jump\t// out\n        /* \"#utility.yul\":4020:4386   */\n    tag_62:\n        /* \"#utility.yul\":4162:4165   */\n      0x00\n        /* \"#utility.yul\":4183:4250   */\n      tag_99\n        /* \"#utility.yul\":4247:4249   */\n      0x24\n        /* \"#utility.yul\":4242:4245   */\n      dup4\n        /* \"#utility.yul\":4183:4250   */\n      tag_56\n      jump\t// in\n    tag_99:\n        /* \"#utility.yul\":4176:4250   */\n      swap2\n      pop\n        /* \"#utility.yul\":4259:4352   */\n      tag_100\n        /* \"#utility.yul\":4348:4351   */\n      dup3\n        /* \"#utility.yul\":4259:4352   */\n      tag_61\n      jump\t// in\n    tag_100:\n        /* \"#utility.yul\":4377:4379   */\n      0x40\n        /* \"#utility.yul\":4372:4375   */\n      dup3\n        /* \"#utility.yul\":4368:4380   */\n      add\n        /* \"#utility.yul\":4361:4380   */\n      swap1\n      pop\n        /* \"#utility.yul\":4020:4386   */\n      swap2\n      swap1\n      pop\n      jump\t// out\n        /* \"#utility.yul\":4392:4811   */\n    tag_45:\n        /* \"#utility.yul\":4558:4562   */\n      0x00\n        /* \"#utility.yul\":4596:4598   */\n      0x20\n        /* \"#utility.yul\":4585:4594   */\n      dup3\n        /* \"#utility.yul\":4581:4599   */\n      add\n        /* \"#utility.yul\":4573:4599   */\n      swap1\n      pop\n        /* \"#utility.yul\":4645:4654   */\n      dup2\n        /* \"#utility.yul\":4639:4643   */\n      dup2\n        /* \"#utility.yul\":4635:4655   */\n      sub\n        /* \"#utility.yul\":4631:4632   */\n      0x00\n        /* \"#utility.yul\":4620:4629   */\n      dup4\n        /* \"#utility.yul\":4616:4633   */\n      add\n        /* \"#utility.yul\":4609:4656   */\n      mstore\n        /* \"#utility.yul\":4673:4804   */\n      tag_102\n        /* \"#utility.yul\":4799:4803   */\n      dup2\n        /* \"#utility.yul\":4673:4804   */\n      tag_62\n      jump\t// in\n    tag_102:\n        /* \"#utility.yul\":4665:4804   */\n      swap1\n      pop\n        /* \"#utility.yul\":4392:4811   */\n      swap2\n      swap1\n      pop\n      jump\t// out\n        /* \"#utility.yul\":4817:5060   */\n    tag_63:\n        /* \"#utility.yul\":4957:4991   */\n      0x43616e6e6f742073656e64206d6f7265207468616e2074686520616d6f756e74\n        /* \"#utility.yul\":4953:4954   */\n      0x00\n        /* \"#utility.yul\":4945:4951   */\n      dup3\n        /* \"#utility.yul\":4941:4955   */\n      add\n        /* \"#utility.yul\":4934:4992   */\n      mstore\n        /* \"#utility.yul\":5026:5052   */\n      0x20726571756972652066726f6d2074686520657363726f770000000000000000\n        /* \"#utility.yul\":5021:5023   */\n      0x20\n        /* \"#utility.yul\":5013:5019   */\n      dup3\n        /* \"#utility.yul\":5009:5024   */\n      add\n        /* \"#utility.yul\":5002:5053   */\n      mstore\n        /* \"#utility.yul\":4817:5060   */\n      pop\n      jump\t// out\n        /* \"#utility.yul\":5066:5432   */\n    tag_64:\n        /* \"#utility.yul\":5208:5211   */\n      0x00\n        /* \"#utility.yul\":5229:5296   */\n      tag_105\n        /* \"#utility.yul\":5293:5295   */\n      0x38\n        /* \"#utility.yul\":5288:5291   */\n      dup4\n        /* \"#utility.yul\":5229:5296   */\n      tag_56\n      jump\t// in\n    tag_105:\n        /* \"#utility.yul\":5222:5296   */\n      swap2\n      pop\n        /* \"#utility.yul\":5305:5398   */\n      tag_106\n        /* \"#utility.yul\":5394:5397   */\n      dup3\n        /* \"#utility.yul\":5305:5398   */\n      tag_63\n      jump\t// in\n    tag_106:\n        /* \"#utility.yul\":5423:5425   */\n      0x40\n        /* \"#utility.yul\":5418:5421   */\n      dup3\n        /* \"#utility.yul\":5414:5426   */\n      add\n        /* \"#utility.yul\":5407:5426   */\n      swap1\n      pop\n        /* \"#utility.yul\":5066:5432   */\n      swap2\n      swap1\n      pop\n      jump\t// out\n        /* \"#utility.yul\":5438:5857   */\n    tag_48:\n        /* \"#utility.yul\":5604:5608   */\n      0x00\n        /* \"#utility.yul\":5642:5644   */\n      0x20\n        /* \"#utility.yul\":5631:5640   */\n      dup3\n        /* \"#utility.yul\":5627:5645   */\n      add\n        /* \"#utility.yul\":5619:5645   */\n      swap1\n      pop\n        /* \"#utility.yul\":5691:5700   */\n      dup2\n        /* \"#utility.yul\":5685:5689   */\n      dup2\n        /* \"#utility.yul\":5681:5701   */\n      sub\n        /* \"#utility.yul\":5677:5678   */\n      0x00\n        /* \"#utility.yul\":5666:5675   */\n      dup4\n        /* \"#utility.yul\":5662:5679   */\n      add\n        /* \"#utility.yul\":5655:5702   */\n      mstore\n        /* \"#utility.yul\":5719:5850   */\n      tag_108\n        /* \"#utility.yul\":5845:5849   */\n      dup2\n        /* \"#utility.yul\":5719:5850   */\n      tag_64\n      jump\t// in\n    tag_108:\n        /* \"#utility.yul\":5711:5850   */\n      swap1\n      pop\n        /* \"#utility.yul\":5438:5857   */\n      swap2\n      swap1\n      pop\n      jump\t// out\n\n    auxdata: 0xa26469706673582212207b15667e3f231a9a08cc7f4cb685ea8ff81c89cb7cb275014948ebac38fcf40264736f6c63430008180033\n}\n",
				"bytecode": {
					"linkReferences": {},
					"object": "608060405234801561000f575f80fd5b5060405161090b38038061090b833981810160405281019061003191906101cb565b825f806101000a81548173ffffffffffffffffffffffffffffffffffffffff021916908373ffffffffffffffffffffffffffffffffffffffff1602179055508160015f6101000a81548173ffffffffffffffffffffffffffffffffffffffff021916908373ffffffffffffffffffffffffffffffffffffffff1602179055503360025f6101000a81548173ffffffffffffffffffffffffffffffffffffffff021916908373ffffffffffffffffffffffffffffffffffffffff1602179055508060038190555050505061021b565b5f80fd5b5f73ffffffffffffffffffffffffffffffffffffffff82169050919050565b5f61012c82610103565b9050919050565b61013c81610122565b8114610146575f80fd5b50565b5f8151905061015781610133565b92915050565b5f61016782610103565b9050919050565b6101778161015d565b8114610181575f80fd5b50565b5f815190506101928161016e565b92915050565b5f819050919050565b6101aa81610198565b81146101b4575f80fd5b50565b5f815190506101c5816101a1565b92915050565b5f805f606084860312156101e2576101e16100ff565b5b5f6101ef86828701610149565b935050602061020086828701610184565b9250506040610211868287016101b7565b9150509250925092565b6106e3806102285f395ff3fe608060405260043610610054575f3560e01c806308551a531461005857806318599d38146100825780637150d8ae146100ac57806386d1a69f146100d6578063aa8c217c146100ec578063d0e30db014610116575b5f80fd5b348015610063575f80fd5b5061006c610120565b60405161007991906103e2565b60405180910390f35b34801561008d575f80fd5b50610096610145565b6040516100a3919061041b565b60405180910390f35b3480156100b7575f80fd5b506100c061016a565b6040516100cd919061041b565b60405180910390f35b3480156100e1575f80fd5b506100ea61018d565b005b3480156100f7575f80fd5b506101006102c9565b60405161010d919061044c565b60405180910390f35b61011e6102cf565b005b60015f9054906101000a900473ffffffffffffffffffffffffffffffffffffffff1681565b60025f9054906101000a900473ffffffffffffffffffffffffffffffffffffffff1681565b5f8054906101000a900473ffffffffffffffffffffffffffffffffffffffff1681565b60025f9054906101000a900473ffffffffffffffffffffffffffffffffffffffff1673ffffffffffffffffffffffffffffffffffffffff163373ffffffffffffffffffffffffffffffffffffffff161461021c576040517f08c379a0000000000000000000000000000000000000000000000000000000008152600401610213906104e5565b60405180910390fd5b6003544714610260576040517f08c379a000000000000000000000000000000000000000000000000000000000815260040161025790610573565b60405180910390fd5b60015f9054906101000a900473ffffffffffffffffffffffffffffffffffffffff1673ffffffffffffffffffffffffffffffffffffffff166108fc60035490811502906040515f60405180830381858888f193505050501580156102c6573d5f803e3d5ffd5b50565b60035481565b5f8054906101000a900473ffffffffffffffffffffffffffffffffffffffff1673ffffffffffffffffffffffffffffffffffffffff163373ffffffffffffffffffffffffffffffffffffffff161461035c576040517f08c379a000000000000000000000000000000000000000000000000000000000815260040161035390610601565b60405180910390fd5b6003544711156103a1576040517f08c379a00000000000000000000000000000000000000000000000000000000081526004016103989061068f565b60405180910390fd5b565b5f73ffffffffffffffffffffffffffffffffffffffff82169050919050565b5f6103cc826103a3565b9050919050565b6103dc816103c2565b82525050565b5f6020820190506103f55f8301846103d3565b92915050565b5f610405826103a3565b9050919050565b610415816103fb565b82525050565b5f60208201905061042e5f83018461040c565b92915050565b5f819050919050565b61044681610434565b82525050565b5f60208201905061045f5f83018461043d565b92915050565b5f82825260208201905092915050565b7f4f4e6c7920657363726f772070617274792063616e20706572666f726d2074685f8201527f6973206f7065726174696f6e0000000000000000000000000000000000000000602082015250565b5f6104cf602c83610465565b91506104da82610475565b604082019050919050565b5f6020820190508181035f8301526104fc816104c3565b9050919050565b7f43616e6e6f74207265616c73652066756e6473206265666f72652066756c6c205f8201527f616d6f756e742069732073656e74000000000000000000000000000000000000602082015250565b5f61055d602e83610465565b915061056882610503565b604082019050919050565b5f6020820190508181035f83015261058a81610551565b9050919050565b7f53656e646572206d75737420626520746865206275796572206f6620746865205f8201527f6974656d00000000000000000000000000000000000000000000000000000000602082015250565b5f6105eb602483610465565b91506105f682610591565b604082019050919050565b5f6020820190508181035f830152610618816105df565b9050919050565b7f43616e6e6f742073656e64206d6f7265207468616e2074686520616d6f756e745f8201527f20726571756972652066726f6d2074686520657363726f770000000000000000602082015250565b5f610679603883610465565b91506106848261061f565b604082019050919050565b5f6020820190508181035f8301526106a68161066d565b905091905056fea26469706673582212207b15667e3f231a9a08cc7f4cb685ea8ff81c89cb7cb275014948ebac38fcf40264736f6c63430008180033",
					"opcodes": "PUSH1 0x80 PUSH1 0x40 MSTORE CALLVALUE DUP1 ISZERO PUSH2 0xF JUMPI PUSH0 DUP1 REVERT JUMPDEST POP PUSH1 0x40 MLOAD PUSH2 0x90B CODESIZE SUB DUP1 PUSH2 0x90B DUP4 CODECOPY DUP2 DUP2 ADD PUSH1 0x40 MSTORE DUP2 ADD SWAP1 PUSH2 0x31 SWAP2 SWAP1 PUSH2 0x1CB JUMP JUMPDEST DUP3 PUSH0 DUP1 PUSH2 0x100 EXP DUP2 SLOAD DUP2 PUSH20 0xFFFFFFFFFFFFFFFFFFFFFFFFFFFFFFFFFFFFFFFF MUL NOT AND SWAP1 DUP4 PUSH20 0xFFFFFFFFFFFFFFFFFFFFFFFFFFFFFFFFFFFFFFFF AND MUL OR SWAP1 SSTORE POP DUP2 PUSH1 0x1 PUSH0 PUSH2 0x100 EXP DUP2 SLOAD DUP2 PUSH20 0xFFFFFFFFFFFFFFFFFFFFFFFFFFFFFFFFFFFFFFFF MUL NOT AND SWAP1 DUP4 PUSH20 0xFFFFFFFFFFFFFFFFFFFFFFFFFFFFFFFFFFFFFFFF AND MUL OR SWAP1 SSTORE POP CALLER PUSH1 0x2 PUSH0 PUSH2 0x100 EXP DUP2 SLOAD DUP2 PUSH20 0xFFFFFFFFFFFFFFFFFFFFFFFFFFFFFFFFFFFFFFFF MUL NOT AND SWAP1 DUP4 PUSH20 0xFFFFFFFFFFFFFFFFFFFFFFFFFFFFFFFFFFFFFFFF AND MUL OR SWAP1 SSTORE POP DUP1 PUSH1 0x3 DUP2 SWAP1 SSTORE POP POP POP POP PUSH2 0x21B JUMP JUMPDEST PUSH0 DUP1 REVERT JUMPDEST PUSH0 PUSH20 0xFFFFFFFFFFFFFFFFFFFFFFFFFFFFFFFFFFFFFFFF DUP3 AND SWAP1 POP SWAP2 SWAP1 POP JUMP JUMPDEST PUSH0 PUSH2 0x12C DUP3 PUSH2 0x103 JUMP JUMPDEST SWAP1 POP SWAP2 SWAP1 POP JUMP JUMPDEST PUSH2 0x13C DUP2 PUSH2 0x122 JUMP JUMPDEST DUP2 EQ PUSH2 0x146 JUMPI PUSH0 DUP1 REVERT JUMPDEST POP JUMP JUMPDEST PUSH0 DUP2 MLOAD SWAP1 POP PUSH2 0x157 DUP2 PUSH2 0x133 JUMP JUMPDEST SWAP3 SWAP2 POP POP JUMP JUMPDEST PUSH0 PUSH2 0x167 DUP3 PUSH2 0x103 JUMP JUMPDEST SWAP1 POP SWAP2 SWAP1 POP JUMP JUMPDEST PUSH2 0x177 DUP2 PUSH2 0x15D JUMP JUMPDEST DUP2 EQ PUSH2 0x181 JUMPI PUSH0 DUP1 REVERT JUMPDEST POP JUMP JUMPDEST PUSH0 DUP2 MLOAD SWAP1 POP PUSH2 0x192 DUP2 PUSH2 0x16E JUMP JUMPDEST SWAP3 SWAP2 POP POP JUMP JUMPDEST PUSH0 DUP2 SWAP1 POP SWAP2 SWAP1 POP JUMP JUMPDEST PUSH2 0x1AA DUP2 PUSH2 0x198 JUMP JUMPDEST DUP2 EQ PUSH2 0x1B4 JUMPI PUSH0 DUP1 REVERT JUMPDEST POP JUMP JUMPDEST PUSH0 DUP2 MLOAD SWAP1 POP PUSH2 0x1C5 DUP2 PUSH2 0x1A1 JUMP JUMPDEST SWAP3 SWAP2 POP POP JUMP JUMPDEST PUSH0 DUP1 PUSH0 PUSH1 0x60 DUP5 DUP7 SUB SLT ISZERO PUSH2 0x1E2 JUMPI PUSH2 0x1E1 PUSH2 0xFF JUMP JUMPDEST JUMPDEST PUSH0 PUSH2 0x1EF DUP7 DUP3 DUP8 ADD PUSH2 0x149 JUMP JUMPDEST SWAP4 POP POP PUSH1 0x20 PUSH2 0x200 DUP7 DUP3 DUP8 ADD PUSH2 0x184 JUMP JUMPDEST SWAP3 POP POP PUSH1 0x40 PUSH2 0x211 DUP7 DUP3 DUP8 ADD PUSH2 0x1B7 JUMP JUMPDEST SWAP2 POP POP SWAP3 POP SWAP3 POP SWAP3 JUMP JUMPDEST PUSH2 0x6E3 DUP1 PUSH2 0x228 PUSH0 CODECOPY PUSH0 RETURN INVALID PUSH1 0x80 PUSH1 0x40 MSTORE PUSH1 0x4 CALLDATASIZE LT PUSH2 0x54 JUMPI PUSH0 CALLDATALOAD PUSH1 0xE0 SHR DUP1 PUSH4 0x8551A53 EQ PUSH2 0x58 JUMPI DUP1 PUSH4 0x18599D38 EQ PUSH2 0x82 JUMPI DUP1 PUSH4 0x7150D8AE EQ PUSH2 0xAC JUMPI DUP1 PUSH4 0x86D1A69F EQ PUSH2 0xD6 JUMPI DUP1 PUSH4 0xAA8C217C EQ PUSH2 0xEC JUMPI DUP1 PUSH4 0xD0E30DB0 EQ PUSH2 0x116 JUMPI JUMPDEST PUSH0 DUP1 REVERT JUMPDEST CALLVALUE DUP1 ISZERO PUSH2 0x63 JUMPI PUSH0 DUP1 REVERT JUMPDEST POP PUSH2 0x6C PUSH2 0x120 JUMP JUMPDEST PUSH1 0x40 MLOAD PUSH2 0x79 SWAP2 SWAP1 PUSH2 0x3E2 JUMP JUMPDEST PUSH1 0x40 MLOAD DUP1 SWAP2 SUB SWAP1 RETURN JUMPDEST CALLVALUE DUP1 ISZERO PUSH2 0x8D JUMPI PUSH0 DUP1 REVERT JUMPDEST POP PUSH2 0x96 PUSH2 0x145 JUMP JUMPDEST PUSH1 0x40 MLOAD PUSH2 0xA3 SWAP2 SWAP1 PUSH2 0x41B JUMP JUMPDEST PUSH1 0x40 MLOAD DUP1 SWAP2 SUB SWAP1 RETURN JUMPDEST CALLVALUE DUP1 ISZERO PUSH2 0xB7 JUMPI PUSH0 DUP1 REVERT JUMPDEST POP PUSH2 0xC0 PUSH2 0x16A JUMP JUMPDEST PUSH1 0x40 MLOAD PUSH2 0xCD SWAP2 SWAP1 PUSH2 0x41B JUMP JUMPDEST PUSH1 0x40 MLOAD DUP1 SWAP2 SUB SWAP1 RETURN JUMPDEST CALLVALUE DUP1 ISZERO PUSH2 0xE1 JUMPI PUSH0 DUP1 REVERT JUMPDEST POP PUSH2 0xEA PUSH2 0x18D JUMP JUMPDEST STOP JUMPDEST CALLVALUE DUP1 ISZERO PUSH2 0xF7 JUMPI PUSH0 DUP1 REVERT JUMPDEST POP PUSH2 0x100 PUSH2 0x2C9 JUMP JUMPDEST PUSH1 0x40 MLOAD PUSH2 0x10D SWAP2 SWAP1 PUSH2 0x44C JUMP JUMPDEST PUSH1 0x40 MLOAD DUP1 SWAP2 SUB SWAP1 RETURN JUMPDEST PUSH2 0x11E PUSH2 0x2CF JUMP JUMPDEST STOP JUMPDEST PUSH1 0x1 PUSH0 SWAP1 SLOAD SWAP1 PUSH2 0x100 EXP SWAP1 DIV PUSH20 0xFFFFFFFFFFFFFFFFFFFFFFFFFFFFFFFFFFFFFFFF AND DUP2 JUMP JUMPDEST PUSH1 0x2 PUSH0 SWAP1 SLOAD SWAP1 PUSH2 0x100 EXP SWAP1 DIV PUSH20 0xFFFFFFFFFFFFFFFFFFFFFFFFFFFFFFFFFFFFFFFF AND DUP2 JUMP JUMPDEST PUSH0 DUP1 SLOAD SWAP1 PUSH2 0x100 EXP SWAP1 DIV PUSH20 0xFFFFFFFFFFFFFFFFFFFFFFFFFFFFFFFFFFFFFFFF AND DUP2 JUMP JUMPDEST PUSH1 0x2 PUSH0 SWAP1 SLOAD SWAP1 PUSH2 0x100 EXP SWAP1 DIV PUSH20 0xFFFFFFFFFFFFFFFFFFFFFFFFFFFFFFFFFFFFFFFF AND PUSH20 0xFFFFFFFFFFFFFFFFFFFFFFFFFFFFFFFFFFFFFFFF AND CALLER PUSH20 0xFFFFFFFFFFFFFFFFFFFFFFFFFFFFFFFFFFFFFFFF AND EQ PUSH2 0x21C JUMPI PUSH1 0x40 MLOAD PUSH32 0x8C379A000000000000000000000000000000000000000000000000000000000 DUP2 MSTORE PUSH1 0x4 ADD PUSH2 0x213 SWAP1 PUSH2 0x4E5 JUMP JUMPDEST PUSH1 0x40 MLOAD DUP1 SWAP2 SUB SWAP1 REVERT JUMPDEST PUSH1 0x3 SLOAD SELFBALANCE EQ PUSH2 0x260 JUMPI PUSH1 0x40 MLOAD PUSH32 0x8C379A000000000000000000000000000000000000000000000000000000000 DUP2 MSTORE PUSH1 0x4 ADD PUSH2 0x257 SWAP1 PUSH2 0x573 JUMP JUMPDEST PUSH1 0x40 MLOAD DUP1 SWAP2 SUB SWAP1 REVERT JUMPDEST PUSH1 0x1 PUSH0 SWAP1 SLOAD SWAP1 PUSH2 0x100 EXP SWAP1 DIV PUSH20 0xFFFFFFFFFFFFFFFFFFFFFFFFFFFFFFFFFFFFFFFF AND PUSH20 0xFFFFFFFFFFFFFFFFFFFFFFFFFFFFFFFFFFFFFFFF AND PUSH2 0x8FC PUSH1 0x3 SLOAD SWAP1 DUP2 ISZERO MUL SWAP1 PUSH1 0x40 MLOAD PUSH0 PUSH1 0x40 MLOAD DUP1 DUP4 SUB DUP2 DUP6 DUP9 DUP9 CALL SWAP4 POP POP POP POP ISZERO DUP1 ISZERO PUSH2 0x2C6 JUMPI RETURNDATASIZE PUSH0 DUP1 RETURNDATACOPY RETURNDATASIZE PUSH0 REVERT JUMPDEST POP JUMP JUMPDEST PUSH1 0x3 SLOAD DUP2 JUMP JUMPDEST PUSH0 DUP1 SLOAD SWAP1 PUSH2 0x100 EXP SWAP1 DIV PUSH20 0xFFFFFFFFFFFFFFFFFFFFFFFFFFFFFFFFFFFFFFFF AND PUSH20 0xFFFFFFFFFFFFFFFFFFFFFFFFFFFFFFFFFFFFFFFF AND CALLER PUSH20 0xFFFFFFFFFFFFFFFFFFFFFFFFFFFFFFFFFFFFFFFF AND EQ PUSH2 0x35C JUMPI PUSH1 0x40 MLOAD PUSH32 0x8C379A000000000000000000000000000000000000000000000000000000000 DUP2 MSTORE PUSH1 0x4 ADD PUSH2 0x353 SWAP1 PUSH2 0x601 JUMP JUMPDEST PUSH1 0x40 MLOAD DUP1 SWAP2 SUB SWAP1 REVERT JUMPDEST PUSH1 0x3 SLOAD SELFBALANCE GT ISZERO PUSH2 0x3A1 JUMPI PUSH1 0x40 MLOAD PUSH32 0x8C379A000000000000000000000000000000000000000000000000000000000 DUP2 MSTORE PUSH1 0x4 ADD PUSH2 0x398 SWAP1 PUSH2 0x68F JUMP JUMPDEST PUSH1 0x40 MLOAD DUP1 SWAP2 SUB SWAP1 REVERT JUMPDEST JUMP JUMPDEST PUSH0 PUSH20 0xFFFFFFFFFFFFFFFFFFFFFFFFFFFFFFFFFFFFFFFF DUP3 AND SWAP1 POP SWAP2 SWAP1 POP JUMP JUMPDEST PUSH0 PUSH2 0x3CC DUP3 PUSH2 0x3A3 JUMP JUMPDEST SWAP1 POP SWAP2 SWAP1 POP JUMP JUMPDEST PUSH2 0x3DC DUP2 PUSH2 0x3C2 JUMP JUMPDEST DUP3 MSTORE POP POP JUMP JUMPDEST PUSH0 PUSH1 0x20 DUP3 ADD SWAP1 POP PUSH2 0x3F5 PUSH0 DUP4 ADD DUP5 PUSH2 0x3D3 JUMP JUMPDEST SWAP3 SWAP2 POP POP JUMP JUMPDEST PUSH0 PUSH2 0x405 DUP3 PUSH2 0x3A3 JUMP JUMPDEST SWAP1 POP SWAP2 SWAP1 POP JUMP JUMPDEST PUSH2 0x415 DUP2 PUSH2 0x3FB JUMP JUMPDEST DUP3 MSTORE POP POP JUMP JUMPDEST PUSH0 PUSH1 0x20 DUP3 ADD SWAP1 POP PUSH2 0x42E PUSH0 DUP4 ADD DUP5 PUSH2 0x40C JUMP JUMPDEST SWAP3 SWAP2 POP POP JUMP JUMPDEST PUSH0 DUP2 SWAP1 POP SWAP2 SWAP1 POP JUMP JUMPDEST PUSH2 0x446 DUP2 PUSH2 0x434 JUMP JUMPDEST DUP3 MSTORE POP POP JUMP JUMPDEST PUSH0 PUSH1 0x20 DUP3 ADD SWAP1 POP PUSH2 0x45F PUSH0 DUP4 ADD DUP5 PUSH2 0x43D JUMP JUMPDEST SWAP3 SWAP2 POP POP JUMP JUMPDEST PUSH0 DUP3 DUP3 MSTORE PUSH1 0x20 DUP3 ADD SWAP1 POP SWAP3 SWAP2 POP POP JUMP JUMPDEST PUSH32 0x4F4E6C7920657363726F772070617274792063616E20706572666F726D207468 PUSH0 DUP3 ADD MSTORE PUSH32 0x6973206F7065726174696F6E0000000000000000000000000000000000000000 PUSH1 0x20 DUP3 ADD MSTORE POP JUMP JUMPDEST PUSH0 PUSH2 0x4CF PUSH1 0x2C DUP4 PUSH2 0x465 JUMP JUMPDEST SWAP2 POP PUSH2 0x4DA DUP3 PUSH2 0x475 JUMP JUMPDEST PUSH1 0x40 DUP3 ADD SWAP1 POP SWAP2 SWAP1 POP JUMP JUMPDEST PUSH0 PUSH1 0x20 DUP3 ADD SWAP1 POP DUP2 DUP2 SUB PUSH0 DUP4 ADD MSTORE PUSH2 0x4FC DUP2 PUSH2 0x4C3 JUMP JUMPDEST SWAP1 POP SWAP2 SWAP1 POP JUMP JUMPDEST PUSH32 0x43616E6E6F74207265616C73652066756E6473206265666F72652066756C6C20 PUSH0 DUP3 ADD MSTORE PUSH32 0x616D6F756E742069732073656E74000000000000000000000000000000000000 PUSH1 0x20 DUP3 ADD MSTORE POP JUMP JUMPDEST PUSH0 PUSH2 0x55D PUSH1 0x2E DUP4 PUSH2 0x465 JUMP JUMPDEST SWAP2 POP PUSH2 0x568 DUP3 PUSH2 0x503 JUMP JUMPDEST PUSH1 0x40 DUP3 ADD SWAP1 POP SWAP2 SWAP1 POP JUMP JUMPDEST PUSH0 PUSH1 0x20 DUP3 ADD SWAP1 POP DUP2 DUP2 SUB PUSH0 DUP4 ADD MSTORE PUSH2 0x58A DUP2 PUSH2 0x551 JUMP JUMPDEST SWAP1 POP SWAP2 SWAP1 POP JUMP JUMPDEST PUSH32 0x53656E646572206D75737420626520746865206275796572206F662074686520 PUSH0 DUP3 ADD MSTORE PUSH32 0x6974656D00000000000000000000000000000000000000000000000000000000 PUSH1 0x20 DUP3 ADD MSTORE POP JUMP JUMPDEST PUSH0 PUSH2 0x5EB PUSH1 0x24 DUP4 PUSH2 0x465 JUMP JUMPDEST SWAP2 POP PUSH2 0x5F6 DUP3 PUSH2 0x591 JUMP JUMPDEST PUSH1 0x40 DUP3 ADD SWAP1 POP SWAP2 SWAP1 POP JUMP JUMPDEST PUSH0 PUSH1 0x20 DUP3 ADD SWAP1 POP DUP2 DUP2 SUB PUSH0 DUP4 ADD MSTORE PUSH2 0x618 DUP2 PUSH2 0x5DF JUMP JUMPDEST SWAP1 POP SWAP2 SWAP1 POP JUMP JUMPDEST PUSH32 0x43616E6E6F742073656E64206D6F7265207468616E2074686520616D6F756E74 PUSH0 DUP3 ADD MSTORE PUSH32 0x20726571756972652066726F6D2074686520657363726F770000000000000000 PUSH1 0x20 DUP3 ADD MSTORE POP JUMP JUMPDEST PUSH0 PUSH2 0x679 PUSH1 0x38 DUP4 PUSH2 0x465 JUMP JUMPDEST SWAP2 POP PUSH2 0x684 DUP3 PUSH2 0x61F JUMP JUMPDEST PUSH1 0x40 DUP3 ADD SWAP1 POP SWAP2 SWAP1 POP JUMP JUMPDEST PUSH0 PUSH1 0x20 DUP3 ADD SWAP1 POP DUP2 DUP2 SUB PUSH0 DUP4 ADD MSTORE PUSH2 0x6A6 DUP2 PUSH2 0x66D JUMP JUMPDEST SWAP1 POP SWAP2 SWAP1 POP JUMP INVALID LOG2 PUSH5 0x6970667358 0x22 SLT KECCAK256 PUSH28 0x15667E3F231A9A08CC7F4CB685EA8FF81C89CB7CB275014948EBAC38 0xFC DELEGATECALL MUL PUSH5 0x736F6C6343 STOP ADDMOD XOR STOP CALLER "
				},
				"gasEstimates": {
					"creation": {
						"codeDepositCost": "352600",
						"executionCost": "infinite",
						"totalCost": "infinite"
					},
					"external": {
						"amount()": "2491",
						"buyer()": "2527",
						"deposit()": "4803",
						"escrowParty()": "2508",
						"release()": "infinite",
						"seller()": "2486"
					}
				},
				"methodIdentifiers": {
					"amount()": "aa8c217c",
					"buyer()": "7150d8ae",
					"deposit()": "d0e30db0",
					"escrowParty()": "18599d38",
					"release()": "86d1a69f",
					"seller()": "08551a53"
				}
			},
			"storageLayout": {
				"storage": [
					{
						"astId": 3,
						"contract": "escrowV2.sol:Escrow",
						"label": "buyer",
						"offset": 0,
						"slot": "0",
						"type": "t_address"
					},
					{
						"astId": 5,
						"contract": "escrowV2.sol:Escrow",
						"label": "seller",
						"offset": 0,
						"slot": "1",
						"type": "t_address_payable"
					},
					{
						"astId": 7,
						"contract": "escrowV2.sol:Escrow",
						"label": "escrowParty",
						"offset": 0,
						"slot": "2",
						"type": "t_address"
					},
					{
						"astId": 9,
						"contract": "escrowV2.sol:Escrow",
						"label": "amount",
						"offset": 0,
						"slot": "3",
						"type": "t_uint256"
					}
				],
				"types": {
					"t_address": {
						"encoding": "inplace",
						"label": "address",
						"numberOfBytes": "20"
					},
					"t_address_payable": {
						"encoding": "inplace",
						"label": "address payable",
						"numberOfBytes": "20"
					},
					"t_uint256": {
						"encoding": "inplace",
						"label": "uint256",
						"numberOfBytes": "32"
					}
				}
			},
			"userdoc": {
				"kind": "user",
				"methods": {},
				"version": 1
			}
		}
	}
}