{
	"Lottery.sol": {
		"Lottery": {
			"abi": [
				{
					"inputs": [
						{
							"internalType": "uint256",
							"name": "fee",
							"type": "uint256"
						}
					],
					"stateMutability": "nonpayable",
					"type": "constructor"
				},
				{
					"inputs": [],
					"name": "admin",
					"outputs": [
						{
							"internalType": "address",
							"name": "",
							"type": "address"
						}
					],
					"stateMutability": "view",
					"type": "function"
				},
				{
					"inputs": [],
					"name": "bet",
					"outputs": [],
					"stateMutability": "payable",
					"type": "function"
				},
				{
					"inputs": [],
					"name": "cancel",
					"outputs": [],
					"stateMutability": "nonpayable",
					"type": "function"
				},
				{
					"inputs": [
						{
							"internalType": "uint256",
							"name": "numPlayers",
							"type": "uint256"
						},
						{
							"internalType": "uint256",
							"name": "betMoney",
							"type": "uint256"
						}
					],
					"name": "createBet",
					"outputs": [],
					"stateMutability": "nonpayable",
					"type": "function"
				},
				{
					"inputs": [],
					"name": "currentState",
					"outputs": [
						{
							"internalType": "enum Lottery.State",
							"name": "",
							"type": "uint8"
						}
					],
					"stateMutability": "view",
					"type": "function"
				},
				{
					"inputs": [],
					"name": "houseFee",
					"outputs": [
						{
							"internalType": "uint256",
							"name": "",
							"type": "uint256"
						}
					],
					"stateMutability": "view",
					"type": "function"
				},
				{
					"inputs": [],
					"name": "maxNumPlayers",
					"outputs": [
						{
							"internalType": "uint256",
							"name": "",
							"type": "uint256"
						}
					],
					"stateMutability": "view",
					"type": "function"
				},
				{
					"inputs": [],
					"name": "moneyRequiredTOBet",
					"outputs": [
						{
							"internalType": "uint256",
							"name": "",
							"type": "uint256"
						}
					],
					"stateMutability": "view",
					"type": "function"
				},
				{
					"inputs": [
						{
							"internalType": "uint256",
							"name": "",
							"type": "uint256"
						}
					],
					"name": "players",
					"outputs": [
						{
							"internalType": "address payable",
							"name": "",
							"type": "address"
						}
					],
					"stateMutability": "view",
					"type": "function"
				}
			],
			"devdoc": {
				"kind": "dev",
				"methods": {},
				"version": 1
			},
			"evm": {
				"assembly": "    /* \"Lottery.sol\":61:2926  contract Lottery {... */\n  mstore(0x40, 0x80)\n    /* \"Lottery.sol\":375:385  State.IDLE */\n  0x00\n    /* \"Lottery.sol\":347:385  State public currentState = State.IDLE */\n  0x01\n  exp(0x0100, 0x00)\n  dup2\n  sload\n  dup2\n  0xff\n  mul\n  not\n  and\n  swap1\n  dup4\n  0x01\n  dup2\n  gt\n  iszero\n  tag_1\n  jumpi\n  tag_2\n  tag_3\n  jump\t// in\ntag_2:\ntag_1:\n  mul\n  or\n  swap1\n  sstore\n  pop\n    /* \"Lottery.sol\":782:925  constructor(uint fee) {... */\n  callvalue\n  dup1\n  iszero\n  tag_4\n  jumpi\n  0x00\n  dup1\n  revert\ntag_4:\n  pop\n  mload(0x40)\n  sub(codesize, bytecodeSize)\n  dup1\n  bytecodeSize\n  dup4\n  codecopy\n  dup2\n  dup2\n  add\n  0x40\n  mstore\n  dup2\n  add\n  swap1\n  tag_5\n  swap2\n  swap1\n  tag_6\n  jump\t// in\ntag_5:\n    /* \"Lottery.sol\":829:830  1 */\n  0x01\n    /* \"Lottery.sol\":823:826  fee */\n  dup2\n    /* \"Lottery.sol\":823:830  fee > 1 */\n  gt\n    /* \"Lottery.sol\":815:863  require(fee > 1, \"Fee should be greater than 1\") */\n  tag_9\n  jumpi\n  mload(0x40)\n  0x08c379a000000000000000000000000000000000000000000000000000000000\n  dup2\n  mstore\n  0x04\n  add\n  tag_10\n  swap1\n  tag_11\n  jump\t// in\ntag_10:\n  mload(0x40)\n  dup1\n  swap2\n  sub\n  swap1\n  revert\ntag_9:\n    /* \"Lottery.sol\":882:892  msg.sender */\n  caller\n    /* \"Lottery.sol\":874:879  admin */\n  0x05\n  0x00\n    /* \"Lottery.sol\":874:892  admin = msg.sender */\n  0x0100\n  exp\n  dup2\n  sload\n  dup2\n  0xffffffffffffffffffffffffffffffffffffffff\n  mul\n  not\n  and\n  swap1\n  dup4\n  0xffffffffffffffffffffffffffffffffffffffff\n  and\n  mul\n  or\n  swap1\n  sstore\n  pop\n    /* \"Lottery.sol\":914:917  fee */\n  dup1\n    /* \"Lottery.sol\":903:911  houseFee */\n  0x04\n    /* \"Lottery.sol\":903:917  houseFee = fee */\n  dup2\n  swap1\n  sstore\n  pop\n    /* \"Lottery.sol\":782:925  constructor(uint fee) {... */\n  pop\n    /* \"Lottery.sol\":61:2926  contract Lottery {... */\n  jump(tag_12)\n    /* \"#utility.yul\":7:187   */\ntag_3:\n    /* \"#utility.yul\":55:132   */\n  0x4e487b7100000000000000000000000000000000000000000000000000000000\n    /* \"#utility.yul\":52:53   */\n  0x00\n    /* \"#utility.yul\":45:133   */\n  mstore\n    /* \"#utility.yul\":152:156   */\n  0x21\n    /* \"#utility.yul\":149:150   */\n  0x04\n    /* \"#utility.yul\":142:157   */\n  mstore\n    /* \"#utility.yul\":176:180   */\n  0x24\n    /* \"#utility.yul\":173:174   */\n  0x00\n    /* \"#utility.yul\":166:181   */\n  revert\n    /* \"#utility.yul\":274:391   */\ntag_14:\n    /* \"#utility.yul\":383:384   */\n  0x00\n    /* \"#utility.yul\":380:381   */\n  dup1\n    /* \"#utility.yul\":373:385   */\n  revert\n    /* \"#utility.yul\":520:597   */\ntag_16:\n    /* \"#utility.yul\":557:564   */\n  0x00\n    /* \"#utility.yul\":586:591   */\n  dup2\n    /* \"#utility.yul\":575:591   */\n  swap1\n  pop\n    /* \"#utility.yul\":520:597   */\n  swap2\n  swap1\n  pop\n  jump\t// out\n    /* \"#utility.yul\":603:725   */\ntag_17:\n    /* \"#utility.yul\":676:700   */\n  tag_29\n    /* \"#utility.yul\":694:699   */\n  dup2\n    /* \"#utility.yul\":676:700   */\n  tag_16\n  jump\t// in\ntag_29:\n    /* \"#utility.yul\":669:674   */\n  dup2\n    /* \"#utility.yul\":666:701   */\n  eq\n    /* \"#utility.yul\":656:719   */\n  tag_30\n  jumpi\n    /* \"#utility.yul\":715:716   */\n  0x00\n    /* \"#utility.yul\":712:713   */\n  dup1\n    /* \"#utility.yul\":705:717   */\n  revert\n    /* \"#utility.yul\":656:719   */\ntag_30:\n    /* \"#utility.yul\":603:725   */\n  pop\n  jump\t// out\n    /* \"#utility.yul\":731:874   */\ntag_18:\n    /* \"#utility.yul\":788:793   */\n  0x00\n    /* \"#utility.yul\":819:825   */\n  dup2\n    /* \"#utility.yul\":813:826   */\n  mload\n    /* \"#utility.yul\":804:826   */\n  swap1\n  pop\n    /* \"#utility.yul\":835:868   */\n  tag_32\n    /* \"#utility.yul\":862:867   */\n  dup2\n    /* \"#utility.yul\":835:868   */\n  tag_17\n  jump\t// in\ntag_32:\n    /* \"#utility.yul\":731:874   */\n  swap3\n  swap2\n  pop\n  pop\n  jump\t// out\n    /* \"#utility.yul\":880:1231   */\ntag_6:\n    /* \"#utility.yul\":950:956   */\n  0x00\n    /* \"#utility.yul\":999:1001   */\n  0x20\n    /* \"#utility.yul\":987:996   */\n  dup3\n    /* \"#utility.yul\":978:985   */\n  dup5\n    /* \"#utility.yul\":974:997   */\n  sub\n    /* \"#utility.yul\":970:1002   */\n  slt\n    /* \"#utility.yul\":967:1086   */\n  iszero\n  tag_34\n  jumpi\n    /* \"#utility.yul\":1005:1084   */\n  tag_35\n  tag_14\n  jump\t// in\ntag_35:\n    /* \"#utility.yul\":967:1086   */\ntag_34:\n    /* \"#utility.yul\":1125:1126   */\n  0x00\n    /* \"#utility.yul\":1150:1214   */\n  tag_36\n    /* \"#utility.yul\":1206:1213   */\n  dup5\n    /* \"#utility.yul\":1197:1203   */\n  dup3\n    /* \"#utility.yul\":1186:1195   */\n  dup6\n    /* \"#utility.yul\":1182:1204   */\n  add\n    /* \"#utility.yul\":1150:1214   */\n  tag_18\n  jump\t// in\ntag_36:\n    /* \"#utility.yul\":1140:1214   */\n  swap2\n  pop\n    /* \"#utility.yul\":1096:1224   */\n  pop\n    /* \"#utility.yul\":880:1231   */\n  swap3\n  swap2\n  pop\n  pop\n  jump\t// out\n    /* \"#utility.yul\":1237:1406   */\ntag_19:\n    /* \"#utility.yul\":1321:1332   */\n  0x00\n    /* \"#utility.yul\":1355:1361   */\n  dup3\n    /* \"#utility.yul\":1350:1353   */\n  dup3\n    /* \"#utility.yul\":1343:1362   */\n  mstore\n    /* \"#utility.yul\":1395:1399   */\n  0x20\n    /* \"#utility.yul\":1390:1393   */\n  dup3\n    /* \"#utility.yul\":1386:1400   */\n  add\n    /* \"#utility.yul\":1371:1400   */\n  swap1\n  pop\n    /* \"#utility.yul\":1237:1406   */\n  swap3\n  swap2\n  pop\n  pop\n  jump\t// out\n    /* \"#utility.yul\":1412:1590   */\ntag_20:\n    /* \"#utility.yul\":1552:1582   */\n  0x4665652073686f756c642062652067726561746572207468616e203100000000\n    /* \"#utility.yul\":1548:1549   */\n  0x00\n    /* \"#utility.yul\":1540:1546   */\n  dup3\n    /* \"#utility.yul\":1536:1550   */\n  add\n    /* \"#utility.yul\":1529:1583   */\n  mstore\n    /* \"#utility.yul\":1412:1590   */\n  pop\n  jump\t// out\n    /* \"#utility.yul\":1596:1962   */\ntag_21:\n    /* \"#utility.yul\":1738:1741   */\n  0x00\n    /* \"#utility.yul\":1759:1826   */\n  tag_40\n    /* \"#utility.yul\":1823:1825   */\n  0x1c\n    /* \"#utility.yul\":1818:1821   */\n  dup4\n    /* \"#utility.yul\":1759:1826   */\n  tag_19\n  jump\t// in\ntag_40:\n    /* \"#utility.yul\":1752:1826   */\n  swap2\n  pop\n    /* \"#utility.yul\":1835:1928   */\n  tag_41\n    /* \"#utility.yul\":1924:1927   */\n  dup3\n    /* \"#utility.yul\":1835:1928   */\n  tag_20\n  jump\t// in\ntag_41:\n    /* \"#utility.yul\":1953:1955   */\n  0x20\n    /* \"#utility.yul\":1948:1951   */\n  dup3\n    /* \"#utility.yul\":1944:1956   */\n  add\n    /* \"#utility.yul\":1937:1956   */\n  swap1\n  pop\n    /* \"#utility.yul\":1596:1962   */\n  swap2\n  swap1\n  pop\n  jump\t// out\n    /* \"#utility.yul\":1968:2387   */\ntag_11:\n    /* \"#utility.yul\":2134:2138   */\n  0x00\n    /* \"#utility.yul\":2172:2174   */\n  0x20\n    /* \"#utility.yul\":2161:2170   */\n  dup3\n    /* \"#utility.yul\":2157:2175   */\n  add\n    /* \"#utility.yul\":2149:2175   */\n  swap1\n  pop\n    /* \"#utility.yul\":2221:2230   */\n  dup2\n    /* \"#utility.yul\":2215:2219   */\n  dup2\n    /* \"#utility.yul\":2211:2231   */\n  sub\n    /* \"#utility.yul\":2207:2208   */\n  0x00\n    /* \"#utility.yul\":2196:2205   */\n  dup4\n    /* \"#utility.yul\":2192:2209   */\n  add\n    /* \"#utility.yul\":2185:2232   */\n  mstore\n    /* \"#utility.yul\":2249:2380   */\n  tag_43\n    /* \"#utility.yul\":2375:2379   */\n  dup2\n    /* \"#utility.yul\":2249:2380   */\n  tag_21\n  jump\t// in\ntag_43:\n    /* \"#utility.yul\":2241:2380   */\n  swap1\n  pop\n    /* \"#utility.yul\":1968:2387   */\n  swap2\n  swap1\n  pop\n  jump\t// out\n    /* \"Lottery.sol\":61:2926  contract Lottery {... */\ntag_12:\n  dataSize(sub_0)\n  dup1\n  dataOffset(sub_0)\n  0x00\n  codecopy\n  0x00\n  return\nstop\n\nsub_0: assembly {\n        /* \"Lottery.sol\":61:2926  contract Lottery {... */\n      mstore(0x40, 0x80)\n      jumpi(tag_1, lt(calldatasize, 0x04))\n      shr(0xe0, calldataload(0x00))\n      dup1\n      0xb8dc50f7\n      gt\n      tag_11\n      jumpi\n      dup1\n      0xb8dc50f7\n      eq\n      tag_6\n      jumpi\n      dup1\n      0xea8a1af0\n      eq\n      tag_7\n      jumpi\n      dup1\n      0xf71d96cb\n      eq\n      tag_8\n      jumpi\n      dup1\n      0xf851a440\n      eq\n      tag_9\n      jumpi\n      dup1\n      0xfff058e6\n      eq\n      tag_10\n      jumpi\n      jump(tag_1)\n    tag_11:\n      dup1\n      0x0c3f6acf\n      eq\n      tag_2\n      jumpi\n      dup1\n      0x0ed469b8\n      eq\n      tag_3\n      jumpi\n      dup1\n      0x11610c25\n      eq\n      tag_4\n      jumpi\n      dup1\n      0x9ae6f132\n      eq\n      tag_5\n      jumpi\n    tag_1:\n      0x00\n      dup1\n      revert\n        /* \"Lottery.sol\":347:385  State public currentState = State.IDLE */\n    tag_2:\n      callvalue\n      dup1\n      iszero\n      tag_12\n      jumpi\n      0x00\n      dup1\n      revert\n    tag_12:\n      pop\n      tag_13\n      tag_14\n      jump\t// in\n    tag_13:\n      mload(0x40)\n      tag_15\n      swap2\n      swap1\n      tag_16\n      jump\t// in\n    tag_15:\n      mload(0x40)\n      dup1\n      swap2\n      sub\n      swap1\n      return\n        /* \"Lottery.sol\":649:669  uint public houseFee */\n    tag_3:\n      callvalue\n      dup1\n      iszero\n      tag_17\n      jumpi\n      0x00\n      dup1\n      revert\n    tag_17:\n      pop\n      tag_18\n      tag_19\n      jump\t// in\n    tag_18:\n      mload(0x40)\n      tag_20\n      swap2\n      swap1\n      tag_21\n      jump\t// in\n    tag_20:\n      mload(0x40)\n      dup1\n      swap2\n      sub\n      swap1\n      return\n        /* \"Lottery.sol\":1297:1976  function bet() external payable inState(State.BETTING) {... */\n    tag_4:\n      tag_22\n      tag_23\n      jump\t// in\n    tag_22:\n      stop\n        /* \"Lottery.sol\":451:476  uint public maxNumPlayers */\n    tag_5:\n      callvalue\n      dup1\n      iszero\n      tag_24\n      jumpi\n      0x00\n      dup1\n      revert\n    tag_24:\n      pop\n      tag_25\n      tag_26\n      jump\t// in\n    tag_25:\n      mload(0x40)\n      tag_27\n      swap2\n      swap1\n      tag_21\n      jump\t// in\n    tag_27:\n      mload(0x40)\n      dup1\n      swap2\n      sub\n      swap1\n      return\n        /* \"Lottery.sol\":555:585  uint public moneyRequiredTOBet */\n    tag_6:\n      callvalue\n      dup1\n      iszero\n      tag_28\n      jumpi\n      0x00\n      dup1\n      revert\n    tag_28:\n      pop\n      tag_29\n      tag_30\n      jump\t// in\n    tag_29:\n      mload(0x40)\n      tag_31\n      swap2\n      swap1\n      tag_21\n      jump\t// in\n    tag_31:\n      mload(0x40)\n      dup1\n      swap2\n      sub\n      swap1\n      return\n        /* \"Lottery.sol\":2131:2380  function cancel() external inState(State.BETTING) onlyAdmin() {... */\n    tag_7:\n      callvalue\n      dup1\n      iszero\n      tag_32\n      jumpi\n      0x00\n      dup1\n      revert\n    tag_32:\n      pop\n      tag_33\n      tag_34\n      jump\t// in\n    tag_33:\n      stop\n        /* \"Lottery.sol\":247:280  address payable [] public players */\n    tag_8:\n      callvalue\n      dup1\n      iszero\n      tag_35\n      jumpi\n      0x00\n      dup1\n      revert\n    tag_35:\n      pop\n      tag_36\n      0x04\n      dup1\n      calldatasize\n      sub\n      dup2\n      add\n      swap1\n      tag_37\n      swap2\n      swap1\n      tag_38\n      jump\t// in\n    tag_37:\n      tag_39\n      jump\t// in\n    tag_36:\n      mload(0x40)\n      tag_40\n      swap2\n      swap1\n      tag_41\n      jump\t// in\n    tag_40:\n      mload(0x40)\n      dup1\n      swap2\n      sub\n      swap1\n      return\n        /* \"Lottery.sol\":753:773  address public admin */\n    tag_9:\n      callvalue\n      dup1\n      iszero\n      tag_42\n      jumpi\n      0x00\n      dup1\n      revert\n    tag_42:\n      pop\n      tag_43\n      tag_44\n      jump\t// in\n    tag_43:\n      mload(0x40)\n      tag_45\n      swap2\n      swap1\n      tag_46\n      jump\t// in\n    tag_45:\n      mload(0x40)\n      dup1\n      swap2\n      sub\n      swap1\n      return\n        /* \"Lottery.sol\":933:1151  function createBet(uint numPlayers, uint betMoney) external inState(State.IDLE) onlyAdmin() {... */\n    tag_10:\n      callvalue\n      dup1\n      iszero\n      tag_47\n      jumpi\n      0x00\n      dup1\n      revert\n    tag_47:\n      pop\n      tag_48\n      0x04\n      dup1\n      calldatasize\n      sub\n      dup2\n      add\n      swap1\n      tag_49\n      swap2\n      swap1\n      tag_50\n      jump\t// in\n    tag_49:\n      tag_51\n      jump\t// in\n    tag_48:\n      stop\n        /* \"Lottery.sol\":347:385  State public currentState = State.IDLE */\n    tag_14:\n      0x01\n      0x00\n      swap1\n      sload\n      swap1\n      0x0100\n      exp\n      swap1\n      div\n      0xff\n      and\n      dup2\n      jump\t// out\n        /* \"Lottery.sol\":649:669  uint public houseFee */\n    tag_19:\n      sload(0x04)\n      dup2\n      jump\t// out\n        /* \"Lottery.sol\":1297:1976  function bet() external payable inState(State.BETTING) {... */\n    tag_23:\n        /* \"Lottery.sol\":1337:1350  State.BETTING */\n      0x01\n        /* \"Lottery.sol\":2725:2737  currentState */\n      dup1\n      0x00\n      swap1\n      sload\n      swap1\n      0x0100\n      exp\n      swap1\n      div\n      0xff\n      and\n        /* \"Lottery.sol\":2716:2737  state == currentState */\n      0x01\n      dup2\n      gt\n      iszero\n      tag_53\n      jumpi\n      tag_54\n      tag_55\n      jump\t// in\n    tag_54:\n    tag_53:\n        /* \"Lottery.sol\":2716:2721  state */\n      dup2\n        /* \"Lottery.sol\":2716:2737  state == currentState */\n      0x01\n      dup2\n      gt\n      iszero\n      tag_56\n      jumpi\n      tag_57\n      tag_55\n      jump\t// in\n    tag_57:\n    tag_56:\n      eq\n        /* \"Lottery.sol\":2708:2774  require(state == currentState, \"Current state doesnot allow this\") */\n      tag_58\n      jumpi\n      mload(0x40)\n      0x08c379a000000000000000000000000000000000000000000000000000000000\n      dup2\n      mstore\n      0x04\n      add\n      tag_59\n      swap1\n      tag_60\n      jump\t// in\n    tag_59:\n      mload(0x40)\n      dup1\n      swap2\n      sub\n      swap1\n      revert\n    tag_58:\n        /* \"Lottery.sol\":1384:1402  moneyRequiredTOBet */\n      sload(0x03)\n        /* \"Lottery.sol\":1371:1380  msg.value */\n      callvalue\n        /* \"Lottery.sol\":1371:1402  msg.value == moneyRequiredTOBet */\n      eq\n        /* \"Lottery.sol\":1363:1445  require(msg.value == moneyRequiredTOBet, \"Can Only bet the exact ETH that is set\") */\n      tag_62\n      jumpi\n      mload(0x40)\n      0x08c379a000000000000000000000000000000000000000000000000000000000\n      dup2\n      mstore\n      0x04\n      add\n      tag_63\n      swap1\n      tag_64\n      jump\t// in\n    tag_63:\n      mload(0x40)\n      dup1\n      swap2\n      sub\n      swap1\n      revert\n    tag_62:\n        /* \"Lottery.sol\":1456:1463  players */\n      0x00\n        /* \"Lottery.sol\":1477:1487  msg.sender */\n      caller\n        /* \"Lottery.sol\":1456:1489  players.push(payable(msg.sender)) */\n      swap1\n      dup1\n      0x01\n      dup2\n      sload\n      add\n      dup1\n      dup3\n      sstore\n      dup1\n      swap2\n      pop\n      pop\n      0x01\n      swap1\n      sub\n      swap1\n      0x00\n      mstore\n      keccak256(0x00, 0x20)\n      add\n      0x00\n      swap1\n      swap2\n      swap1\n      swap2\n      swap1\n      swap2\n      0x0100\n      exp\n      dup2\n      sload\n      dup2\n      0xffffffffffffffffffffffffffffffffffffffff\n      mul\n      not\n      and\n      swap1\n      dup4\n      0xffffffffffffffffffffffffffffffffffffffff\n      and\n      mul\n      or\n      swap1\n      sstore\n      pop\n        /* \"Lottery.sol\":1521:1534  maxNumPlayers */\n      sload(0x02)\n        /* \"Lottery.sol\":1503:1510  players */\n      0x00\n        /* \"Lottery.sol\":1503:1517  players.length */\n      dup1\n      sload\n      swap1\n      pop\n        /* \"Lottery.sol\":1503:1534  players.length == maxNumPlayers */\n      sub\n        /* \"Lottery.sol\":1500:1969  if(players.length == maxNumPlayers) {... */\n      tag_66\n      jumpi\n        /* \"Lottery.sol\":1580:1591  uint winner */\n      0x00\n        /* \"Lottery.sol\":1594:1623  _randomwModulo(maxNumPlayers) */\n      tag_67\n        /* \"Lottery.sol\":1609:1622  maxNumPlayers */\n      sload(0x02)\n        /* \"Lottery.sol\":1594:1608  _randomwModulo */\n      tag_68\n        /* \"Lottery.sol\":1594:1623  _randomwModulo(maxNumPlayers) */\n      jump\t// in\n    tag_67:\n        /* \"Lottery.sol\":1580:1623  uint winner = _randomwModulo(maxNumPlayers) */\n      swap1\n      pop\n        /* \"Lottery.sol\":1683:1690  players */\n      0x00\n        /* \"Lottery.sol\":1691:1697  winner */\n      dup2\n        /* \"Lottery.sol\":1683:1698  players[winner] */\n      dup2\n      sload\n      dup2\n      lt\n      tag_69\n      jumpi\n      tag_70\n      tag_71\n      jump\t// in\n    tag_70:\n    tag_69:\n      swap1\n      0x00\n      mstore\n      keccak256(0x00, 0x20)\n      add\n      0x00\n      swap1\n      sload\n      swap1\n      0x0100\n      exp\n      swap1\n      div\n      0xffffffffffffffffffffffffffffffffffffffff\n      and\n        /* \"Lottery.sol\":1683:1707  players[winner].transfer */\n      0xffffffffffffffffffffffffffffffffffffffff\n      and\n        /* \"Lottery.sol\":1683:1768  players[winner].transfer((moneyRequiredTOBet * maxNumPlayers) * (100-houseFee) / 100) */\n      0x08fc\n        /* \"Lottery.sol\":1764:1767  100 */\n      0x64\n        /* \"Lottery.sol\":1752:1760  houseFee */\n      sload(0x04)\n        /* \"Lottery.sol\":1748:1751  100 */\n      0x64\n        /* \"Lottery.sol\":1748:1760  100-houseFee */\n      tag_73\n      swap2\n      swap1\n      tag_74\n      jump\t// in\n    tag_73:\n        /* \"Lottery.sol\":1730:1743  maxNumPlayers */\n      sload(0x02)\n        /* \"Lottery.sol\":1709:1727  moneyRequiredTOBet */\n      sload(0x03)\n        /* \"Lottery.sol\":1709:1743  moneyRequiredTOBet * maxNumPlayers */\n      tag_75\n      swap2\n      swap1\n      tag_76\n      jump\t// in\n    tag_75:\n        /* \"Lottery.sol\":1708:1761  (moneyRequiredTOBet * maxNumPlayers) * (100-houseFee) */\n      tag_77\n      swap2\n      swap1\n      tag_76\n      jump\t// in\n    tag_77:\n        /* \"Lottery.sol\":1708:1767  (moneyRequiredTOBet * maxNumPlayers) * (100-houseFee) / 100 */\n      tag_78\n      swap2\n      swap1\n      tag_79\n      jump\t// in\n    tag_78:\n        /* \"Lottery.sol\":1683:1768  players[winner].transfer((moneyRequiredTOBet * maxNumPlayers) * (100-houseFee) / 100) */\n      swap1\n      dup2\n      iszero\n      mul\n      swap1\n      mload(0x40)\n      0x00\n      mload(0x40)\n      dup1\n      dup4\n      sub\n      dup2\n      dup6\n      dup9\n      dup9\n      call\n      swap4\n      pop\n      pop\n      pop\n      pop\n      iszero\n      dup1\n      iszero\n      tag_81\n      jumpi\n      returndatasize\n      0x00\n      dup1\n      returndatacopy\n      revert(0x00, returndatasize)\n    tag_81:\n      pop\n        /* \"Lottery.sol\":1839:1849  State.IDLE */\n      0x00\n        /* \"Lottery.sol\":1824:1836  currentState */\n      0x01\n      0x00\n        /* \"Lottery.sol\":1824:1849  currentState = State.IDLE */\n      0x0100\n      exp\n      dup2\n      sload\n      dup2\n      0xff\n      mul\n      not\n      and\n      swap1\n      dup4\n      0x01\n      dup2\n      gt\n      iszero\n      tag_82\n      jumpi\n      tag_83\n      tag_55\n      jump\t// in\n    tag_83:\n    tag_82:\n      mul\n      or\n      swap1\n      sstore\n      pop\n        /* \"Lottery.sol\":1948:1955  players */\n      0x00\n      dup1\n        /* \"Lottery.sol\":1941:1955  delete players */\n      tag_84\n      swap2\n      swap1\n      tag_85\n      jump\t// in\n    tag_84:\n        /* \"Lottery.sol\":1536:1969  {... */\n      pop\n        /* \"Lottery.sol\":1500:1969  if(players.length == maxNumPlayers) {... */\n    tag_66:\n        /* \"Lottery.sol\":1297:1976  function bet() external payable inState(State.BETTING) {... */\n      pop\n      jump\t// out\n        /* \"Lottery.sol\":451:476  uint public maxNumPlayers */\n    tag_26:\n      sload(0x02)\n      dup2\n      jump\t// out\n        /* \"Lottery.sol\":555:585  uint public moneyRequiredTOBet */\n    tag_30:\n      sload(0x03)\n      dup2\n      jump\t// out\n        /* \"Lottery.sol\":2131:2380  function cancel() external inState(State.BETTING) onlyAdmin() {... */\n    tag_34:\n        /* \"Lottery.sol\":2166:2179  State.BETTING */\n      0x01\n        /* \"Lottery.sol\":2725:2737  currentState */\n      dup1\n      0x00\n      swap1\n      sload\n      swap1\n      0x0100\n      exp\n      swap1\n      div\n      0xff\n      and\n        /* \"Lottery.sol\":2716:2737  state == currentState */\n      0x01\n      dup2\n      gt\n      iszero\n      tag_87\n      jumpi\n      tag_88\n      tag_55\n      jump\t// in\n    tag_88:\n    tag_87:\n        /* \"Lottery.sol\":2716:2721  state */\n      dup2\n        /* \"Lottery.sol\":2716:2737  state == currentState */\n      0x01\n      dup2\n      gt\n      iszero\n      tag_89\n      jumpi\n      tag_90\n      tag_55\n      jump\t// in\n    tag_90:\n    tag_89:\n      eq\n        /* \"Lottery.sol\":2708:2774  require(state == currentState, \"Current state doesnot allow this\") */\n      tag_91\n      jumpi\n      mload(0x40)\n      0x08c379a000000000000000000000000000000000000000000000000000000000\n      dup2\n      mstore\n      0x04\n      add\n      tag_92\n      swap1\n      tag_60\n      jump\t// in\n    tag_92:\n      mload(0x40)\n      dup1\n      swap2\n      sub\n      swap1\n      revert\n    tag_91:\n        /* \"Lottery.sol\":2854:2859  admin */\n      0x05\n      0x00\n      swap1\n      sload\n      swap1\n      0x0100\n      exp\n      swap1\n      div\n      0xffffffffffffffffffffffffffffffffffffffff\n      and\n        /* \"Lottery.sol\":2840:2859  msg.sender == admin */\n      0xffffffffffffffffffffffffffffffffffffffff\n      and\n        /* \"Lottery.sol\":2840:2850  msg.sender */\n      caller\n        /* \"Lottery.sol\":2840:2859  msg.sender == admin */\n      0xffffffffffffffffffffffffffffffffffffffff\n      and\n      eq\n        /* \"Lottery.sol\":2832:2901  require(msg.sender == admin, \"ONly admin can perform this operation\") */\n      tag_94\n      jumpi\n      mload(0x40)\n      0x08c379a000000000000000000000000000000000000000000000000000000000\n      dup2\n      mstore\n      0x04\n      add\n      tag_95\n      swap1\n      tag_96\n      jump\t// in\n    tag_95:\n      mload(0x40)\n      dup1\n      swap2\n      sub\n      swap1\n      revert\n    tag_94:\n        /* \"Lottery.sol\":2208:2214  uint i */\n      0x00\n        /* \"Lottery.sol\":2204:2312  for(uint i =0; i < players.length; i++) {... */\n    tag_98:\n        /* \"Lottery.sol\":2223:2230  players */\n      0x00\n        /* \"Lottery.sol\":2223:2237  players.length */\n      dup1\n      sload\n      swap1\n      pop\n        /* \"Lottery.sol\":2219:2220  i */\n      dup2\n        /* \"Lottery.sol\":2219:2237  i < players.length */\n      lt\n        /* \"Lottery.sol\":2204:2312  for(uint i =0; i < players.length; i++) {... */\n      iszero\n      tag_99\n      jumpi\n        /* \"Lottery.sol\":2259:2266  players */\n      0x00\n        /* \"Lottery.sol\":2267:2268  i */\n      dup2\n        /* \"Lottery.sol\":2259:2269  players[i] */\n      dup2\n      sload\n      dup2\n      lt\n      tag_101\n      jumpi\n      tag_102\n      tag_71\n      jump\t// in\n    tag_102:\n    tag_101:\n      swap1\n      0x00\n      mstore\n      keccak256(0x00, 0x20)\n      add\n      0x00\n      swap1\n      sload\n      swap1\n      0x0100\n      exp\n      swap1\n      div\n      0xffffffffffffffffffffffffffffffffffffffff\n      and\n        /* \"Lottery.sol\":2259:2278  players[i].transfer */\n      0xffffffffffffffffffffffffffffffffffffffff\n      and\n        /* \"Lottery.sol\":2259:2298  players[i].transfer(moneyRequiredTOBet) */\n      0x08fc\n        /* \"Lottery.sol\":2279:2297  moneyRequiredTOBet */\n      sload(0x03)\n        /* \"Lottery.sol\":2259:2298  players[i].transfer(moneyRequiredTOBet) */\n      swap1\n      dup2\n      iszero\n      mul\n      swap1\n      mload(0x40)\n      0x00\n      mload(0x40)\n      dup1\n      dup4\n      sub\n      dup2\n      dup6\n      dup9\n      dup9\n      call\n      swap4\n      pop\n      pop\n      pop\n      pop\n      iszero\n      dup1\n      iszero\n      tag_105\n      jumpi\n      returndatasize\n      0x00\n      dup1\n      returndatacopy\n      revert(0x00, returndatasize)\n    tag_105:\n      pop\n        /* \"Lottery.sol\":2239:2242  i++ */\n      dup1\n      dup1\n      tag_106\n      swap1\n      tag_107\n      jump\t// in\n    tag_106:\n      swap2\n      pop\n      pop\n        /* \"Lottery.sol\":2204:2312  for(uint i =0; i < players.length; i++) {... */\n      jump(tag_98)\n    tag_99:\n      pop\n        /* \"Lottery.sol\":2329:2336  players */\n      0x00\n      dup1\n        /* \"Lottery.sol\":2322:2336  delete players */\n      tag_108\n      swap2\n      swap1\n      tag_85\n      jump\t// in\n    tag_108:\n        /* \"Lottery.sol\":2362:2372  State.IDLE */\n      0x00\n        /* \"Lottery.sol\":2347:2359  currentState */\n      0x01\n      0x00\n        /* \"Lottery.sol\":2347:2372  currentState = State.IDLE */\n      0x0100\n      exp\n      dup2\n      sload\n      dup2\n      0xff\n      mul\n      not\n      and\n      swap1\n      dup4\n      0x01\n      dup2\n      gt\n      iszero\n      tag_109\n      jumpi\n      tag_110\n      tag_55\n      jump\t// in\n    tag_110:\n    tag_109:\n      mul\n      or\n      swap1\n      sstore\n      pop\n        /* \"Lottery.sol\":2131:2380  function cancel() external inState(State.BETTING) onlyAdmin() {... */\n      pop\n      jump\t// out\n        /* \"Lottery.sol\":247:280  address payable [] public players */\n    tag_39:\n      0x00\n      dup2\n      dup2\n      sload\n      dup2\n      lt\n      tag_111\n      jumpi\n      0x00\n      dup1\n      revert\n    tag_111:\n      swap1\n      0x00\n      mstore\n      keccak256(0x00, 0x20)\n      add\n      0x00\n      swap2\n      pop\n      sload\n      swap1\n      0x0100\n      exp\n      swap1\n      div\n      0xffffffffffffffffffffffffffffffffffffffff\n      and\n      dup2\n      jump\t// out\n        /* \"Lottery.sol\":753:773  address public admin */\n    tag_44:\n      0x05\n      0x00\n      swap1\n      sload\n      swap1\n      0x0100\n      exp\n      swap1\n      div\n      0xffffffffffffffffffffffffffffffffffffffff\n      and\n      dup2\n      jump\t// out\n        /* \"Lottery.sol\":933:1151  function createBet(uint numPlayers, uint betMoney) external inState(State.IDLE) onlyAdmin() {... */\n    tag_51:\n        /* \"Lottery.sol\":1001:1011  State.IDLE */\n      0x00\n        /* \"Lottery.sol\":2725:2737  currentState */\n      0x01\n      0x00\n      swap1\n      sload\n      swap1\n      0x0100\n      exp\n      swap1\n      div\n      0xff\n      and\n        /* \"Lottery.sol\":2716:2737  state == currentState */\n      0x01\n      dup2\n      gt\n      iszero\n      tag_114\n      jumpi\n      tag_115\n      tag_55\n      jump\t// in\n    tag_115:\n    tag_114:\n        /* \"Lottery.sol\":2716:2721  state */\n      dup2\n        /* \"Lottery.sol\":2716:2737  state == currentState */\n      0x01\n      dup2\n      gt\n      iszero\n      tag_116\n      jumpi\n      tag_117\n      tag_55\n      jump\t// in\n    tag_117:\n    tag_116:\n      eq\n        /* \"Lottery.sol\":2708:2774  require(state == currentState, \"Current state doesnot allow this\") */\n      tag_118\n      jumpi\n      mload(0x40)\n      0x08c379a000000000000000000000000000000000000000000000000000000000\n      dup2\n      mstore\n      0x04\n      add\n      tag_119\n      swap1\n      tag_60\n      jump\t// in\n    tag_119:\n      mload(0x40)\n      dup1\n      swap2\n      sub\n      swap1\n      revert\n    tag_118:\n        /* \"Lottery.sol\":2854:2859  admin */\n      0x05\n      0x00\n      swap1\n      sload\n      swap1\n      0x0100\n      exp\n      swap1\n      div\n      0xffffffffffffffffffffffffffffffffffffffff\n      and\n        /* \"Lottery.sol\":2840:2859  msg.sender == admin */\n      0xffffffffffffffffffffffffffffffffffffffff\n      and\n        /* \"Lottery.sol\":2840:2850  msg.sender */\n      caller\n        /* \"Lottery.sol\":2840:2859  msg.sender == admin */\n      0xffffffffffffffffffffffffffffffffffffffff\n      and\n      eq\n        /* \"Lottery.sol\":2832:2901  require(msg.sender == admin, \"ONly admin can perform this operation\") */\n      tag_121\n      jumpi\n      mload(0x40)\n      0x08c379a000000000000000000000000000000000000000000000000000000000\n      dup2\n      mstore\n      0x04\n      add\n      tag_122\n      swap1\n      tag_96\n      jump\t// in\n    tag_122:\n      mload(0x40)\n      dup1\n      swap2\n      sub\n      swap1\n      revert\n    tag_121:\n        /* \"Lottery.sol\":1052:1062  numPlayers */\n      dup3\n        /* \"Lottery.sol\":1036:1049  maxNumPlayers */\n      0x02\n        /* \"Lottery.sol\":1036:1062  maxNumPlayers = numPlayers */\n      dup2\n      swap1\n      sstore\n      pop\n        /* \"Lottery.sol\":1094:1102  betMoney */\n      dup2\n        /* \"Lottery.sol\":1073:1091  moneyRequiredTOBet */\n      0x03\n        /* \"Lottery.sol\":1073:1102  moneyRequiredTOBet = betMoney */\n      dup2\n      swap1\n      sstore\n      pop\n        /* \"Lottery.sol\":1128:1141  State.BETTING */\n      0x01\n        /* \"Lottery.sol\":1113:1125  currentState */\n      dup1\n      0x00\n        /* \"Lottery.sol\":1113:1141  currentState = State.BETTING */\n      0x0100\n      exp\n      dup2\n      sload\n      dup2\n      0xff\n      mul\n      not\n      and\n      swap1\n      dup4\n      0x01\n      dup2\n      gt\n      iszero\n      tag_124\n      jumpi\n      tag_125\n      tag_55\n      jump\t// in\n    tag_125:\n    tag_124:\n      mul\n      or\n      swap1\n      sstore\n      pop\n        /* \"Lottery.sol\":933:1151  function createBet(uint numPlayers, uint betMoney) external inState(State.IDLE) onlyAdmin() {... */\n      pop\n      pop\n      pop\n      jump\t// out\n        /* \"Lottery.sol\":2388:2659  function _randomwModulo(uint modulo) view internal returns(uint) {... */\n    tag_68:\n        /* \"Lottery.sol\":2447:2451  uint */\n      0x00\n        /* \"Lottery.sol\":2464:2481  uint randomNumber */\n      dup1\n        /* \"Lottery.sol\":2538:2554  block.difficulty */\n      difficulty\n        /* \"Lottery.sol\":2556:2571  block.timestamp */\n      timestamp\n        /* \"Lottery.sol\":2521:2572  abi.encodePacked(block.difficulty, block.timestamp) */\n      add(0x20, mload(0x40))\n      tag_127\n      swap3\n      swap2\n      swap1\n      tag_128\n      jump\t// in\n    tag_127:\n      mload(0x40)\n      0x20\n      dup2\n      dup4\n      sub\n      sub\n      dup2\n      mstore\n      swap1\n      0x40\n      mstore\n        /* \"Lottery.sol\":2511:2573  keccak256(abi.encodePacked(block.difficulty, block.timestamp)) */\n      dup1\n      mload\n      swap1\n      0x20\n      add\n      keccak256\n        /* \"Lottery.sol\":2506:2574  uint(keccak256(abi.encodePacked(block.difficulty, block.timestamp))) */\n      0x00\n      shr\n        /* \"Lottery.sol\":2492:2574  randomNumber= uint(keccak256(abi.encodePacked(block.difficulty, block.timestamp))) */\n      swap1\n      pop\n        /* \"Lottery.sol\":2615:2621  modulo */\n      dup3\n        /* \"Lottery.sol\":2600:2612  randomNumber */\n      dup2\n        /* \"Lottery.sol\":2600:2621  randomNumber % modulo */\n      tag_129\n      swap2\n      swap1\n      tag_130\n      jump\t// in\n    tag_129:\n        /* \"Lottery.sol\":2585:2621  randomNumber = randomNumber % modulo */\n      swap1\n      pop\n        /* \"Lottery.sol\":2639:2651  randomNumber */\n      dup1\n        /* \"Lottery.sol\":2632:2651  return randomNumber */\n      swap2\n      pop\n      pop\n        /* \"Lottery.sol\":2388:2659  function _randomwModulo(uint modulo) view internal returns(uint) {... */\n      swap2\n      swap1\n      pop\n      jump\t// out\n    tag_85:\n      pop\n      dup1\n      sload\n      0x00\n      dup3\n      sstore\n      swap1\n      0x00\n      mstore\n      keccak256(0x00, 0x20)\n      swap1\n      dup2\n      add\n      swap1\n      tag_132\n      swap2\n      swap1\n      tag_133\n      jump\t// in\n    tag_132:\n      pop\n      jump\t// out\n    tag_133:\n    tag_134:\n      dup1\n      dup3\n      gt\n      iszero\n      tag_135\n      jumpi\n      0x00\n      dup2\n      0x00\n      swap1\n      sstore\n      pop\n      0x01\n      add\n      jump(tag_134)\n    tag_135:\n      pop\n      swap1\n      jump\t// out\n        /* \"#utility.yul\":7:187   */\n    tag_55:\n        /* \"#utility.yul\":55:132   */\n      0x4e487b7100000000000000000000000000000000000000000000000000000000\n        /* \"#utility.yul\":52:53   */\n      0x00\n        /* \"#utility.yul\":45:133   */\n      mstore\n        /* \"#utility.yul\":152:156   */\n      0x21\n        /* \"#utility.yul\":149:150   */\n      0x04\n        /* \"#utility.yul\":142:157   */\n      mstore\n        /* \"#utility.yul\":176:180   */\n      0x24\n        /* \"#utility.yul\":173:174   */\n      0x00\n        /* \"#utility.yul\":166:181   */\n      revert\n        /* \"#utility.yul\":193:305   */\n    tag_136:\n        /* \"#utility.yul\":273:274   */\n      0x02\n        /* \"#utility.yul\":266:271   */\n      dup2\n        /* \"#utility.yul\":263:275   */\n      lt\n        /* \"#utility.yul\":253:299   */\n      tag_166\n      jumpi\n        /* \"#utility.yul\":279:297   */\n      tag_167\n      tag_55\n      jump\t// in\n    tag_167:\n        /* \"#utility.yul\":253:299   */\n    tag_166:\n        /* \"#utility.yul\":193:305   */\n      pop\n      jump\t// out\n        /* \"#utility.yul\":311:436   */\n    tag_137:\n        /* \"#utility.yul\":355:362   */\n      0x00\n        /* \"#utility.yul\":384:389   */\n      dup2\n        /* \"#utility.yul\":373:389   */\n      swap1\n      pop\n        /* \"#utility.yul\":390:430   */\n      tag_169\n        /* \"#utility.yul\":424:429   */\n      dup3\n        /* \"#utility.yul\":390:430   */\n      tag_136\n      jump\t// in\n    tag_169:\n        /* \"#utility.yul\":311:436   */\n      swap2\n      swap1\n      pop\n      jump\t// out\n        /* \"#utility.yul\":442:567   */\n    tag_138:\n        /* \"#utility.yul\":497:506   */\n      0x00\n        /* \"#utility.yul\":530:561   */\n      tag_171\n        /* \"#utility.yul\":555:560   */\n      dup3\n        /* \"#utility.yul\":530:561   */\n      tag_137\n      jump\t// in\n    tag_171:\n        /* \"#utility.yul\":517:561   */\n      swap1\n      pop\n        /* \"#utility.yul\":442:567   */\n      swap2\n      swap1\n      pop\n      jump\t// out\n        /* \"#utility.yul\":573:714   */\n    tag_139:\n        /* \"#utility.yul\":665:707   */\n      tag_173\n        /* \"#utility.yul\":701:706   */\n      dup2\n        /* \"#utility.yul\":665:707   */\n      tag_138\n      jump\t// in\n    tag_173:\n        /* \"#utility.yul\":660:663   */\n      dup3\n        /* \"#utility.yul\":653:708   */\n      mstore\n        /* \"#utility.yul\":573:714   */\n      pop\n      pop\n      jump\t// out\n        /* \"#utility.yul\":720:952   */\n    tag_16:\n        /* \"#utility.yul\":818:822   */\n      0x00\n        /* \"#utility.yul\":856:858   */\n      0x20\n        /* \"#utility.yul\":845:854   */\n      dup3\n        /* \"#utility.yul\":841:859   */\n      add\n        /* \"#utility.yul\":833:859   */\n      swap1\n      pop\n        /* \"#utility.yul\":869:945   */\n      tag_175\n        /* \"#utility.yul\":942:943   */\n      0x00\n        /* \"#utility.yul\":931:940   */\n      dup4\n        /* \"#utility.yul\":927:944   */\n      add\n        /* \"#utility.yul\":918:924   */\n      dup5\n        /* \"#utility.yul\":869:945   */\n      tag_139\n      jump\t// in\n    tag_175:\n        /* \"#utility.yul\":720:952   */\n      swap3\n      swap2\n      pop\n      pop\n      jump\t// out\n        /* \"#utility.yul\":958:1035   */\n    tag_140:\n        /* \"#utility.yul\":995:1002   */\n      0x00\n        /* \"#utility.yul\":1024:1029   */\n      dup2\n        /* \"#utility.yul\":1013:1029   */\n      swap1\n      pop\n        /* \"#utility.yul\":958:1035   */\n      swap2\n      swap1\n      pop\n      jump\t// out\n        /* \"#utility.yul\":1041:1159   */\n    tag_141:\n        /* \"#utility.yul\":1128:1152   */\n      tag_178\n        /* \"#utility.yul\":1146:1151   */\n      dup2\n        /* \"#utility.yul\":1128:1152   */\n      tag_140\n      jump\t// in\n    tag_178:\n        /* \"#utility.yul\":1123:1126   */\n      dup3\n        /* \"#utility.yul\":1116:1153   */\n      mstore\n        /* \"#utility.yul\":1041:1159   */\n      pop\n      pop\n      jump\t// out\n        /* \"#utility.yul\":1165:1387   */\n    tag_21:\n        /* \"#utility.yul\":1258:1262   */\n      0x00\n        /* \"#utility.yul\":1296:1298   */\n      0x20\n        /* \"#utility.yul\":1285:1294   */\n      dup3\n        /* \"#utility.yul\":1281:1299   */\n      add\n        /* \"#utility.yul\":1273:1299   */\n      swap1\n      pop\n        /* \"#utility.yul\":1309:1380   */\n      tag_180\n        /* \"#utility.yul\":1377:1378   */\n      0x00\n        /* \"#utility.yul\":1366:1375   */\n      dup4\n        /* \"#utility.yul\":1362:1379   */\n      add\n        /* \"#utility.yul\":1353:1359   */\n      dup5\n        /* \"#utility.yul\":1309:1380   */\n      tag_141\n      jump\t// in\n    tag_180:\n        /* \"#utility.yul\":1165:1387   */\n      swap3\n      swap2\n      pop\n      pop\n      jump\t// out\n        /* \"#utility.yul\":1474:1591   */\n    tag_143:\n        /* \"#utility.yul\":1583:1584   */\n      0x00\n        /* \"#utility.yul\":1580:1581   */\n      dup1\n        /* \"#utility.yul\":1573:1585   */\n      revert\n        /* \"#utility.yul\":1720:1842   */\n    tag_145:\n        /* \"#utility.yul\":1793:1817   */\n      tag_185\n        /* \"#utility.yul\":1811:1816   */\n      dup2\n        /* \"#utility.yul\":1793:1817   */\n      tag_140\n      jump\t// in\n    tag_185:\n        /* \"#utility.yul\":1786:1791   */\n      dup2\n        /* \"#utility.yul\":1783:1818   */\n      eq\n        /* \"#utility.yul\":1773:1836   */\n      tag_186\n      jumpi\n        /* \"#utility.yul\":1832:1833   */\n      0x00\n        /* \"#utility.yul\":1829:1830   */\n      dup1\n        /* \"#utility.yul\":1822:1834   */\n      revert\n        /* \"#utility.yul\":1773:1836   */\n    tag_186:\n        /* \"#utility.yul\":1720:1842   */\n      pop\n      jump\t// out\n        /* \"#utility.yul\":1848:1987   */\n    tag_146:\n        /* \"#utility.yul\":1894:1899   */\n      0x00\n        /* \"#utility.yul\":1932:1938   */\n      dup2\n        /* \"#utility.yul\":1919:1939   */\n      calldataload\n        /* \"#utility.yul\":1910:1939   */\n      swap1\n      pop\n        /* \"#utility.yul\":1948:1981   */\n      tag_188\n        /* \"#utility.yul\":1975:1980   */\n      dup2\n        /* \"#utility.yul\":1948:1981   */\n      tag_145\n      jump\t// in\n    tag_188:\n        /* \"#utility.yul\":1848:1987   */\n      swap3\n      swap2\n      pop\n      pop\n      jump\t// out\n        /* \"#utility.yul\":1993:2322   */\n    tag_38:\n        /* \"#utility.yul\":2052:2058   */\n      0x00\n        /* \"#utility.yul\":2101:2103   */\n      0x20\n        /* \"#utility.yul\":2089:2098   */\n      dup3\n        /* \"#utility.yul\":2080:2087   */\n      dup5\n        /* \"#utility.yul\":2076:2099   */\n      sub\n        /* \"#utility.yul\":2072:2104   */\n      slt\n        /* \"#utility.yul\":2069:2188   */\n      iszero\n      tag_190\n      jumpi\n        /* \"#utility.yul\":2107:2186   */\n      tag_191\n      tag_143\n      jump\t// in\n    tag_191:\n        /* \"#utility.yul\":2069:2188   */\n    tag_190:\n        /* \"#utility.yul\":2227:2228   */\n      0x00\n        /* \"#utility.yul\":2252:2305   */\n      tag_192\n        /* \"#utility.yul\":2297:2304   */\n      dup5\n        /* \"#utility.yul\":2288:2294   */\n      dup3\n        /* \"#utility.yul\":2277:2286   */\n      dup6\n        /* \"#utility.yul\":2273:2295   */\n      add\n        /* \"#utility.yul\":2252:2305   */\n      tag_146\n      jump\t// in\n    tag_192:\n        /* \"#utility.yul\":2242:2305   */\n      swap2\n      pop\n        /* \"#utility.yul\":2198:2315   */\n      pop\n        /* \"#utility.yul\":1993:2322   */\n      swap3\n      swap2\n      pop\n      pop\n      jump\t// out\n        /* \"#utility.yul\":2328:2454   */\n    tag_147:\n        /* \"#utility.yul\":2365:2372   */\n      0x00\n        /* \"#utility.yul\":2405:2447   */\n      0xffffffffffffffffffffffffffffffffffffffff\n        /* \"#utility.yul\":2398:2403   */\n      dup3\n        /* \"#utility.yul\":2394:2448   */\n      and\n        /* \"#utility.yul\":2383:2448   */\n      swap1\n      pop\n        /* \"#utility.yul\":2328:2454   */\n      swap2\n      swap1\n      pop\n      jump\t// out\n        /* \"#utility.yul\":2460:2564   */\n    tag_148:\n        /* \"#utility.yul\":2505:2512   */\n      0x00\n        /* \"#utility.yul\":2534:2558   */\n      tag_195\n        /* \"#utility.yul\":2552:2557   */\n      dup3\n        /* \"#utility.yul\":2534:2558   */\n      tag_147\n      jump\t// in\n    tag_195:\n        /* \"#utility.yul\":2523:2558   */\n      swap1\n      pop\n        /* \"#utility.yul\":2460:2564   */\n      swap2\n      swap1\n      pop\n      jump\t// out\n        /* \"#utility.yul\":2570:2712   */\n    tag_149:\n        /* \"#utility.yul\":2673:2705   */\n      tag_197\n        /* \"#utility.yul\":2699:2704   */\n      dup2\n        /* \"#utility.yul\":2673:2705   */\n      tag_148\n      jump\t// in\n    tag_197:\n        /* \"#utility.yul\":2668:2671   */\n      dup3\n        /* \"#utility.yul\":2661:2706   */\n      mstore\n        /* \"#utility.yul\":2570:2712   */\n      pop\n      pop\n      jump\t// out\n        /* \"#utility.yul\":2718:2972   */\n    tag_41:\n        /* \"#utility.yul\":2827:2831   */\n      0x00\n        /* \"#utility.yul\":2865:2867   */\n      0x20\n        /* \"#utility.yul\":2854:2863   */\n      dup3\n        /* \"#utility.yul\":2850:2868   */\n      add\n        /* \"#utility.yul\":2842:2868   */\n      swap1\n      pop\n        /* \"#utility.yul\":2878:2965   */\n      tag_199\n        /* \"#utility.yul\":2962:2963   */\n      0x00\n        /* \"#utility.yul\":2951:2960   */\n      dup4\n        /* \"#utility.yul\":2947:2964   */\n      add\n        /* \"#utility.yul\":2938:2944   */\n      dup5\n        /* \"#utility.yul\":2878:2965   */\n      tag_149\n      jump\t// in\n    tag_199:\n        /* \"#utility.yul\":2718:2972   */\n      swap3\n      swap2\n      pop\n      pop\n      jump\t// out\n        /* \"#utility.yul\":2978:3074   */\n    tag_150:\n        /* \"#utility.yul\":3015:3022   */\n      0x00\n        /* \"#utility.yul\":3044:3068   */\n      tag_201\n        /* \"#utility.yul\":3062:3067   */\n      dup3\n        /* \"#utility.yul\":3044:3068   */\n      tag_147\n      jump\t// in\n    tag_201:\n        /* \"#utility.yul\":3033:3068   */\n      swap1\n      pop\n        /* \"#utility.yul\":2978:3074   */\n      swap2\n      swap1\n      pop\n      jump\t// out\n        /* \"#utility.yul\":3080:3198   */\n    tag_151:\n        /* \"#utility.yul\":3167:3191   */\n      tag_203\n        /* \"#utility.yul\":3185:3190   */\n      dup2\n        /* \"#utility.yul\":3167:3191   */\n      tag_150\n      jump\t// in\n    tag_203:\n        /* \"#utility.yul\":3162:3165   */\n      dup3\n        /* \"#utility.yul\":3155:3192   */\n      mstore\n        /* \"#utility.yul\":3080:3198   */\n      pop\n      pop\n      jump\t// out\n        /* \"#utility.yul\":3204:3426   */\n    tag_46:\n        /* \"#utility.yul\":3297:3301   */\n      0x00\n        /* \"#utility.yul\":3335:3337   */\n      0x20\n        /* \"#utility.yul\":3324:3333   */\n      dup3\n        /* \"#utility.yul\":3320:3338   */\n      add\n        /* \"#utility.yul\":3312:3338   */\n      swap1\n      pop\n        /* \"#utility.yul\":3348:3419   */\n      tag_205\n        /* \"#utility.yul\":3416:3417   */\n      0x00\n        /* \"#utility.yul\":3405:3414   */\n      dup4\n        /* \"#utility.yul\":3401:3418   */\n      add\n        /* \"#utility.yul\":3392:3398   */\n      dup5\n        /* \"#utility.yul\":3348:3419   */\n      tag_151\n      jump\t// in\n    tag_205:\n        /* \"#utility.yul\":3204:3426   */\n      swap3\n      swap2\n      pop\n      pop\n      jump\t// out\n        /* \"#utility.yul\":3432:3906   */\n    tag_50:\n        /* \"#utility.yul\":3500:3506   */\n      0x00\n        /* \"#utility.yul\":3508:3514   */\n      dup1\n        /* \"#utility.yul\":3557:3559   */\n      0x40\n        /* \"#utility.yul\":3545:3554   */\n      dup4\n        /* \"#utility.yul\":3536:3543   */\n      dup6\n        /* \"#utility.yul\":3532:3555   */\n      sub\n        /* \"#utility.yul\":3528:3560   */\n      slt\n        /* \"#utility.yul\":3525:3644   */\n      iszero\n      tag_207\n      jumpi\n        /* \"#utility.yul\":3563:3642   */\n      tag_208\n      tag_143\n      jump\t// in\n    tag_208:\n        /* \"#utility.yul\":3525:3644   */\n    tag_207:\n        /* \"#utility.yul\":3683:3684   */\n      0x00\n        /* \"#utility.yul\":3708:3761   */\n      tag_209\n        /* \"#utility.yul\":3753:3760   */\n      dup6\n        /* \"#utility.yul\":3744:3750   */\n      dup3\n        /* \"#utility.yul\":3733:3742   */\n      dup7\n        /* \"#utility.yul\":3729:3751   */\n      add\n        /* \"#utility.yul\":3708:3761   */\n      tag_146\n      jump\t// in\n    tag_209:\n        /* \"#utility.yul\":3698:3761   */\n      swap3\n      pop\n        /* \"#utility.yul\":3654:3771   */\n      pop\n        /* \"#utility.yul\":3810:3812   */\n      0x20\n        /* \"#utility.yul\":3836:3889   */\n      tag_210\n        /* \"#utility.yul\":3881:3888   */\n      dup6\n        /* \"#utility.yul\":3872:3878   */\n      dup3\n        /* \"#utility.yul\":3861:3870   */\n      dup7\n        /* \"#utility.yul\":3857:3879   */\n      add\n        /* \"#utility.yul\":3836:3889   */\n      tag_146\n      jump\t// in\n    tag_210:\n        /* \"#utility.yul\":3826:3889   */\n      swap2\n      pop\n        /* \"#utility.yul\":3781:3899   */\n      pop\n        /* \"#utility.yul\":3432:3906   */\n      swap3\n      pop\n      swap3\n      swap1\n      pop\n      jump\t// out\n        /* \"#utility.yul\":3912:4081   */\n    tag_152:\n        /* \"#utility.yul\":3996:4007   */\n      0x00\n        /* \"#utility.yul\":4030:4036   */\n      dup3\n        /* \"#utility.yul\":4025:4028   */\n      dup3\n        /* \"#utility.yul\":4018:4037   */\n      mstore\n        /* \"#utility.yul\":4070:4074   */\n      0x20\n        /* \"#utility.yul\":4065:4068   */\n      dup3\n        /* \"#utility.yul\":4061:4075   */\n      add\n        /* \"#utility.yul\":4046:4075   */\n      swap1\n      pop\n        /* \"#utility.yul\":3912:4081   */\n      swap3\n      swap2\n      pop\n      pop\n      jump\t// out\n        /* \"#utility.yul\":4087:4269   */\n    tag_153:\n        /* \"#utility.yul\":4227:4261   */\n      0x43757272656e7420737461746520646f65736e6f7420616c6c6f772074686973\n        /* \"#utility.yul\":4223:4224   */\n      0x00\n        /* \"#utility.yul\":4215:4221   */\n      dup3\n        /* \"#utility.yul\":4211:4225   */\n      add\n        /* \"#utility.yul\":4204:4262   */\n      mstore\n        /* \"#utility.yul\":4087:4269   */\n      pop\n      jump\t// out\n        /* \"#utility.yul\":4275:4641   */\n    tag_154:\n        /* \"#utility.yul\":4417:4420   */\n      0x00\n        /* \"#utility.yul\":4438:4505   */\n      tag_214\n        /* \"#utility.yul\":4502:4504   */\n      0x20\n        /* \"#utility.yul\":4497:4500   */\n      dup4\n        /* \"#utility.yul\":4438:4505   */\n      tag_152\n      jump\t// in\n    tag_214:\n        /* \"#utility.yul\":4431:4505   */\n      swap2\n      pop\n        /* \"#utility.yul\":4514:4607   */\n      tag_215\n        /* \"#utility.yul\":4603:4606   */\n      dup3\n        /* \"#utility.yul\":4514:4607   */\n      tag_153\n      jump\t// in\n    tag_215:\n        /* \"#utility.yul\":4632:4634   */\n      0x20\n        /* \"#utility.yul\":4627:4630   */\n      dup3\n        /* \"#utility.yul\":4623:4635   */\n      add\n        /* \"#utility.yul\":4616:4635   */\n      swap1\n      pop\n        /* \"#utility.yul\":4275:4641   */\n      swap2\n      swap1\n      pop\n      jump\t// out\n        /* \"#utility.yul\":4647:5066   */\n    tag_60:\n        /* \"#utility.yul\":4813:4817   */\n      0x00\n        /* \"#utility.yul\":4851:4853   */\n      0x20\n        /* \"#utility.yul\":4840:4849   */\n      dup3\n        /* \"#utility.yul\":4836:4854   */\n      add\n        /* \"#utility.yul\":4828:4854   */\n      swap1\n      pop\n        /* \"#utility.yul\":4900:4909   */\n      dup2\n        /* \"#utility.yul\":4894:4898   */\n      dup2\n        /* \"#utility.yul\":4890:4910   */\n      sub\n        /* \"#utility.yul\":4886:4887   */\n      0x00\n        /* \"#utility.yul\":4875:4884   */\n      dup4\n        /* \"#utility.yul\":4871:4888   */\n      add\n        /* \"#utility.yul\":4864:4911   */\n      mstore\n        /* \"#utility.yul\":4928:5059   */\n      tag_217\n        /* \"#utility.yul\":5054:5058   */\n      dup2\n        /* \"#utility.yul\":4928:5059   */\n      tag_154\n      jump\t// in\n    tag_217:\n        /* \"#utility.yul\":4920:5059   */\n      swap1\n      pop\n        /* \"#utility.yul\":4647:5066   */\n      swap2\n      swap1\n      pop\n      jump\t// out\n        /* \"#utility.yul\":5072:5297   */\n    tag_155:\n        /* \"#utility.yul\":5212:5246   */\n      0x43616e204f6e6c79206265742074686520657861637420455448207468617420\n        /* \"#utility.yul\":5208:5209   */\n      0x00\n        /* \"#utility.yul\":5200:5206   */\n      dup3\n        /* \"#utility.yul\":5196:5210   */\n      add\n        /* \"#utility.yul\":5189:5247   */\n      mstore\n        /* \"#utility.yul\":5281:5289   */\n      0x6973207365740000000000000000000000000000000000000000000000000000\n        /* \"#utility.yul\":5276:5278   */\n      0x20\n        /* \"#utility.yul\":5268:5274   */\n      dup3\n        /* \"#utility.yul\":5264:5279   */\n      add\n        /* \"#utility.yul\":5257:5290   */\n      mstore\n        /* \"#utility.yul\":5072:5297   */\n      pop\n      jump\t// out\n        /* \"#utility.yul\":5303:5669   */\n    tag_156:\n        /* \"#utility.yul\":5445:5448   */\n      0x00\n        /* \"#utility.yul\":5466:5533   */\n      tag_220\n        /* \"#utility.yul\":5530:5532   */\n      0x26\n        /* \"#utility.yul\":5525:5528   */\n      dup4\n        /* \"#utility.yul\":5466:5533   */\n      tag_152\n      jump\t// in\n    tag_220:\n        /* \"#utility.yul\":5459:5533   */\n      swap2\n      pop\n        /* \"#utility.yul\":5542:5635   */\n      tag_221\n        /* \"#utility.yul\":5631:5634   */\n      dup3\n        /* \"#utility.yul\":5542:5635   */\n      tag_155\n      jump\t// in\n    tag_221:\n        /* \"#utility.yul\":5660:5662   */\n      0x40\n        /* \"#utility.yul\":5655:5658   */\n      dup3\n        /* \"#utility.yul\":5651:5663   */\n      add\n        /* \"#utility.yul\":5644:5663   */\n      swap1\n      pop\n        /* \"#utility.yul\":5303:5669   */\n      swap2\n      swap1\n      pop\n      jump\t// out\n        /* \"#utility.yul\":5675:6094   */\n    tag_64:\n        /* \"#utility.yul\":5841:5845   */\n      0x00\n        /* \"#utility.yul\":5879:5881   */\n      0x20\n        /* \"#utility.yul\":5868:5877   */\n      dup3\n        /* \"#utility.yul\":5864:5882   */\n      add\n        /* \"#utility.yul\":5856:5882   */\n      swap1\n      pop\n        /* \"#utility.yul\":5928:5937   */\n      dup2\n        /* \"#utility.yul\":5922:5926   */\n      dup2\n        /* \"#utility.yul\":5918:5938   */\n      sub\n        /* \"#utility.yul\":5914:5915   */\n      0x00\n        /* \"#utility.yul\":5903:5912   */\n      dup4\n        /* \"#utility.yul\":5899:5916   */\n      add\n        /* \"#utility.yul\":5892:5939   */\n      mstore\n        /* \"#utility.yul\":5956:6087   */\n      tag_223\n        /* \"#utility.yul\":6082:6086   */\n      dup2\n        /* \"#utility.yul\":5956:6087   */\n      tag_156\n      jump\t// in\n    tag_223:\n        /* \"#utility.yul\":5948:6087   */\n      swap1\n      pop\n        /* \"#utility.yul\":5675:6094   */\n      swap2\n      swap1\n      pop\n      jump\t// out\n        /* \"#utility.yul\":6100:6280   */\n    tag_71:\n        /* \"#utility.yul\":6148:6225   */\n      0x4e487b7100000000000000000000000000000000000000000000000000000000\n        /* \"#utility.yul\":6145:6146   */\n      0x00\n        /* \"#utility.yul\":6138:6226   */\n      mstore\n        /* \"#utility.yul\":6245:6249   */\n      0x32\n        /* \"#utility.yul\":6242:6243   */\n      0x04\n        /* \"#utility.yul\":6235:6250   */\n      mstore\n        /* \"#utility.yul\":6269:6273   */\n      0x24\n        /* \"#utility.yul\":6266:6267   */\n      0x00\n        /* \"#utility.yul\":6259:6274   */\n      revert\n        /* \"#utility.yul\":6286:6466   */\n    tag_157:\n        /* \"#utility.yul\":6334:6411   */\n      0x4e487b7100000000000000000000000000000000000000000000000000000000\n        /* \"#utility.yul\":6331:6332   */\n      0x00\n        /* \"#utility.yul\":6324:6412   */\n      mstore\n        /* \"#utility.yul\":6431:6435   */\n      0x11\n        /* \"#utility.yul\":6428:6429   */\n      0x04\n        /* \"#utility.yul\":6421:6436   */\n      mstore\n        /* \"#utility.yul\":6455:6459   */\n      0x24\n        /* \"#utility.yul\":6452:6453   */\n      0x00\n        /* \"#utility.yul\":6445:6460   */\n      revert\n        /* \"#utility.yul\":6472:6666   */\n    tag_74:\n        /* \"#utility.yul\":6512:6516   */\n      0x00\n        /* \"#utility.yul\":6532:6552   */\n      tag_227\n        /* \"#utility.yul\":6550:6551   */\n      dup3\n        /* \"#utility.yul\":6532:6552   */\n      tag_140\n      jump\t// in\n    tag_227:\n        /* \"#utility.yul\":6527:6552   */\n      swap2\n      pop\n        /* \"#utility.yul\":6566:6586   */\n      tag_228\n        /* \"#utility.yul\":6584:6585   */\n      dup4\n        /* \"#utility.yul\":6566:6586   */\n      tag_140\n      jump\t// in\n    tag_228:\n        /* \"#utility.yul\":6561:6586   */\n      swap3\n      pop\n        /* \"#utility.yul\":6610:6611   */\n      dup3\n        /* \"#utility.yul\":6607:6608   */\n      dup3\n        /* \"#utility.yul\":6603:6612   */\n      sub\n        /* \"#utility.yul\":6595:6612   */\n      swap1\n      pop\n        /* \"#utility.yul\":6634:6635   */\n      dup2\n        /* \"#utility.yul\":6628:6632   */\n      dup2\n        /* \"#utility.yul\":6625:6636   */\n      gt\n        /* \"#utility.yul\":6622:6659   */\n      iszero\n      tag_229\n      jumpi\n        /* \"#utility.yul\":6639:6657   */\n      tag_230\n      tag_157\n      jump\t// in\n    tag_230:\n        /* \"#utility.yul\":6622:6659   */\n    tag_229:\n        /* \"#utility.yul\":6472:6666   */\n      swap3\n      swap2\n      pop\n      pop\n      jump\t// out\n        /* \"#utility.yul\":6672:7020   */\n    tag_76:\n        /* \"#utility.yul\":6712:6719   */\n      0x00\n        /* \"#utility.yul\":6735:6755   */\n      tag_232\n        /* \"#utility.yul\":6753:6754   */\n      dup3\n        /* \"#utility.yul\":6735:6755   */\n      tag_140\n      jump\t// in\n    tag_232:\n        /* \"#utility.yul\":6730:6755   */\n      swap2\n      pop\n        /* \"#utility.yul\":6769:6789   */\n      tag_233\n        /* \"#utility.yul\":6787:6788   */\n      dup4\n        /* \"#utility.yul\":6769:6789   */\n      tag_140\n      jump\t// in\n    tag_233:\n        /* \"#utility.yul\":6764:6789   */\n      swap3\n      pop\n        /* \"#utility.yul\":6957:6958   */\n      dup2\n        /* \"#utility.yul\":6889:6955   */\n      0xffffffffffffffffffffffffffffffffffffffffffffffffffffffffffffffff\n        /* \"#utility.yul\":6885:6959   */\n      div\n        /* \"#utility.yul\":6882:6883   */\n      dup4\n        /* \"#utility.yul\":6879:6960   */\n      gt\n        /* \"#utility.yul\":6874:6875   */\n      dup3\n        /* \"#utility.yul\":6867:6876   */\n      iszero\n        /* \"#utility.yul\":6860:6877   */\n      iszero\n        /* \"#utility.yul\":6856:6961   */\n      and\n        /* \"#utility.yul\":6853:6984   */\n      iszero\n      tag_234\n      jumpi\n        /* \"#utility.yul\":6964:6982   */\n      tag_235\n      tag_157\n      jump\t// in\n    tag_235:\n        /* \"#utility.yul\":6853:6984   */\n    tag_234:\n        /* \"#utility.yul\":7012:7013   */\n      dup3\n        /* \"#utility.yul\":7009:7010   */\n      dup3\n        /* \"#utility.yul\":7005:7014   */\n      mul\n        /* \"#utility.yul\":6994:7014   */\n      swap1\n      pop\n        /* \"#utility.yul\":6672:7020   */\n      swap3\n      swap2\n      pop\n      pop\n      jump\t// out\n        /* \"#utility.yul\":7026:7206   */\n    tag_158:\n        /* \"#utility.yul\":7074:7151   */\n      0x4e487b7100000000000000000000000000000000000000000000000000000000\n        /* \"#utility.yul\":7071:7072   */\n      0x00\n        /* \"#utility.yul\":7064:7152   */\n      mstore\n        /* \"#utility.yul\":7171:7175   */\n      0x12\n        /* \"#utility.yul\":7168:7169   */\n      0x04\n        /* \"#utility.yul\":7161:7176   */\n      mstore\n        /* \"#utility.yul\":7195:7199   */\n      0x24\n        /* \"#utility.yul\":7192:7193   */\n      0x00\n        /* \"#utility.yul\":7185:7200   */\n      revert\n        /* \"#utility.yul\":7212:7397   */\n    tag_79:\n        /* \"#utility.yul\":7252:7253   */\n      0x00\n        /* \"#utility.yul\":7269:7289   */\n      tag_238\n        /* \"#utility.yul\":7287:7288   */\n      dup3\n        /* \"#utility.yul\":7269:7289   */\n      tag_140\n      jump\t// in\n    tag_238:\n        /* \"#utility.yul\":7264:7289   */\n      swap2\n      pop\n        /* \"#utility.yul\":7303:7323   */\n      tag_239\n        /* \"#utility.yul\":7321:7322   */\n      dup4\n        /* \"#utility.yul\":7303:7323   */\n      tag_140\n      jump\t// in\n    tag_239:\n        /* \"#utility.yul\":7298:7323   */\n      swap3\n      pop\n        /* \"#utility.yul\":7342:7343   */\n      dup3\n        /* \"#utility.yul\":7332:7367   */\n      tag_240\n      jumpi\n        /* \"#utility.yul\":7347:7365   */\n      tag_241\n      tag_158\n      jump\t// in\n    tag_241:\n        /* \"#utility.yul\":7332:7367   */\n    tag_240:\n        /* \"#utility.yul\":7389:7390   */\n      dup3\n        /* \"#utility.yul\":7386:7387   */\n      dup3\n        /* \"#utility.yul\":7382:7391   */\n      div\n        /* \"#utility.yul\":7377:7391   */\n      swap1\n      pop\n        /* \"#utility.yul\":7212:7397   */\n      swap3\n      swap2\n      pop\n      pop\n      jump\t// out\n        /* \"#utility.yul\":7403:7627   */\n    tag_159:\n        /* \"#utility.yul\":7543:7577   */\n      0x4f4e6c792061646d696e2063616e20706572666f726d2074686973206f706572\n        /* \"#utility.yul\":7539:7540   */\n      0x00\n        /* \"#utility.yul\":7531:7537   */\n      dup3\n        /* \"#utility.yul\":7527:7541   */\n      add\n        /* \"#utility.yul\":7520:7578   */\n      mstore\n        /* \"#utility.yul\":7612:7619   */\n      0x6174696f6e000000000000000000000000000000000000000000000000000000\n        /* \"#utility.yul\":7607:7609   */\n      0x20\n        /* \"#utility.yul\":7599:7605   */\n      dup3\n        /* \"#utility.yul\":7595:7610   */\n      add\n        /* \"#utility.yul\":7588:7620   */\n      mstore\n        /* \"#utility.yul\":7403:7627   */\n      pop\n      jump\t// out\n        /* \"#utility.yul\":7633:7999   */\n    tag_160:\n        /* \"#utility.yul\":7775:7778   */\n      0x00\n        /* \"#utility.yul\":7796:7863   */\n      tag_244\n        /* \"#utility.yul\":7860:7862   */\n      0x25\n        /* \"#utility.yul\":7855:7858   */\n      dup4\n        /* \"#utility.yul\":7796:7863   */\n      tag_152\n      jump\t// in\n    tag_244:\n        /* \"#utility.yul\":7789:7863   */\n      swap2\n      pop\n        /* \"#utility.yul\":7872:7965   */\n      tag_245\n        /* \"#utility.yul\":7961:7964   */\n      dup3\n        /* \"#utility.yul\":7872:7965   */\n      tag_159\n      jump\t// in\n    tag_245:\n        /* \"#utility.yul\":7990:7992   */\n      0x40\n        /* \"#utility.yul\":7985:7988   */\n      dup3\n        /* \"#utility.yul\":7981:7993   */\n      add\n        /* \"#utility.yul\":7974:7993   */\n      swap1\n      pop\n        /* \"#utility.yul\":7633:7999   */\n      swap2\n      swap1\n      pop\n      jump\t// out\n        /* \"#utility.yul\":8005:8424   */\n    tag_96:\n        /* \"#utility.yul\":8171:8175   */\n      0x00\n        /* \"#utility.yul\":8209:8211   */\n      0x20\n        /* \"#utility.yul\":8198:8207   */\n      dup3\n        /* \"#utility.yul\":8194:8212   */\n      add\n        /* \"#utility.yul\":8186:8212   */\n      swap1\n      pop\n        /* \"#utility.yul\":8258:8267   */\n      dup2\n        /* \"#utility.yul\":8252:8256   */\n      dup2\n        /* \"#utility.yul\":8248:8268   */\n      sub\n        /* \"#utility.yul\":8244:8245   */\n      0x00\n        /* \"#utility.yul\":8233:8242   */\n      dup4\n        /* \"#utility.yul\":8229:8246   */\n      add\n        /* \"#utility.yul\":8222:8269   */\n      mstore\n        /* \"#utility.yul\":8286:8417   */\n      tag_247\n        /* \"#utility.yul\":8412:8416   */\n      dup2\n        /* \"#utility.yul\":8286:8417   */\n      tag_160\n      jump\t// in\n    tag_247:\n        /* \"#utility.yul\":8278:8417   */\n      swap1\n      pop\n        /* \"#utility.yul\":8005:8424   */\n      swap2\n      swap1\n      pop\n      jump\t// out\n        /* \"#utility.yul\":8430:8663   */\n    tag_107:\n        /* \"#utility.yul\":8469:8472   */\n      0x00\n        /* \"#utility.yul\":8492:8516   */\n      tag_249\n        /* \"#utility.yul\":8510:8515   */\n      dup3\n        /* \"#utility.yul\":8492:8516   */\n      tag_140\n      jump\t// in\n    tag_249:\n        /* \"#utility.yul\":8483:8516   */\n      swap2\n      pop\n        /* \"#utility.yul\":8538:8604   */\n      0xffffffffffffffffffffffffffffffffffffffffffffffffffffffffffffffff\n        /* \"#utility.yul\":8531:8536   */\n      dup3\n        /* \"#utility.yul\":8528:8605   */\n      sub\n        /* \"#utility.yul\":8525:8628   */\n      tag_250\n      jumpi\n        /* \"#utility.yul\":8608:8626   */\n      tag_251\n      tag_157\n      jump\t// in\n    tag_251:\n        /* \"#utility.yul\":8525:8628   */\n    tag_250:\n        /* \"#utility.yul\":8655:8656   */\n      0x01\n        /* \"#utility.yul\":8648:8653   */\n      dup3\n        /* \"#utility.yul\":8644:8657   */\n      add\n        /* \"#utility.yul\":8637:8657   */\n      swap1\n      pop\n        /* \"#utility.yul\":8430:8663   */\n      swap2\n      swap1\n      pop\n      jump\t// out\n        /* \"#utility.yul\":8669:8748   */\n    tag_161:\n        /* \"#utility.yul\":8708:8715   */\n      0x00\n        /* \"#utility.yul\":8737:8742   */\n      dup2\n        /* \"#utility.yul\":8726:8742   */\n      swap1\n      pop\n        /* \"#utility.yul\":8669:8748   */\n      swap2\n      swap1\n      pop\n      jump\t// out\n        /* \"#utility.yul\":8754:8911   */\n    tag_162:\n        /* \"#utility.yul\":8859:8904   */\n      tag_254\n        /* \"#utility.yul\":8879:8903   */\n      tag_255\n        /* \"#utility.yul\":8897:8902   */\n      dup3\n        /* \"#utility.yul\":8879:8903   */\n      tag_140\n      jump\t// in\n    tag_255:\n        /* \"#utility.yul\":8859:8904   */\n      tag_161\n      jump\t// in\n    tag_254:\n        /* \"#utility.yul\":8854:8857   */\n      dup3\n        /* \"#utility.yul\":8847:8905   */\n      mstore\n        /* \"#utility.yul\":8754:8911   */\n      pop\n      pop\n      jump\t// out\n        /* \"#utility.yul\":8917:9314   */\n    tag_128:\n        /* \"#utility.yul\":9057:9060   */\n      0x00\n        /* \"#utility.yul\":9072:9147   */\n      tag_257\n        /* \"#utility.yul\":9143:9146   */\n      dup3\n        /* \"#utility.yul\":9134:9140   */\n      dup6\n        /* \"#utility.yul\":9072:9147   */\n      tag_162\n      jump\t// in\n    tag_257:\n        /* \"#utility.yul\":9172:9174   */\n      0x20\n        /* \"#utility.yul\":9167:9170   */\n      dup3\n        /* \"#utility.yul\":9163:9175   */\n      add\n        /* \"#utility.yul\":9156:9175   */\n      swap2\n      pop\n        /* \"#utility.yul\":9185:9260   */\n      tag_258\n        /* \"#utility.yul\":9256:9259   */\n      dup3\n        /* \"#utility.yul\":9247:9253   */\n      dup5\n        /* \"#utility.yul\":9185:9260   */\n      tag_162\n      jump\t// in\n    tag_258:\n        /* \"#utility.yul\":9285:9287   */\n      0x20\n        /* \"#utility.yul\":9280:9283   */\n      dup3\n        /* \"#utility.yul\":9276:9288   */\n      add\n        /* \"#utility.yul\":9269:9288   */\n      swap2\n      pop\n        /* \"#utility.yul\":9305:9308   */\n      dup2\n        /* \"#utility.yul\":9298:9308   */\n      swap1\n      pop\n        /* \"#utility.yul\":8917:9314   */\n      swap4\n      swap3\n      pop\n      pop\n      pop\n      jump\t// out\n        /* \"#utility.yul\":9320:9496   */\n    tag_130:\n        /* \"#utility.yul\":9352:9353   */\n      0x00\n        /* \"#utility.yul\":9369:9389   */\n      tag_260\n        /* \"#utility.yul\":9387:9388   */\n      dup3\n        /* \"#utility.yul\":9369:9389   */\n      tag_140\n      jump\t// in\n    tag_260:\n        /* \"#utility.yul\":9364:9389   */\n      swap2\n      pop\n        /* \"#utility.yul\":9403:9423   */\n      tag_261\n        /* \"#utility.yul\":9421:9422   */\n      dup4\n        /* \"#utility.yul\":9403:9423   */\n      tag_140\n      jump\t// in\n    tag_261:\n        /* \"#utility.yul\":9398:9423   */\n      swap3\n      pop\n        /* \"#utility.yul\":9442:9443   */\n      dup3\n        /* \"#utility.yul\":9432:9467   */\n      tag_262\n      jumpi\n        /* \"#utility.yul\":9447:9465   */\n      tag_263\n      tag_158\n      jump\t// in\n    tag_263:\n        /* \"#utility.yul\":9432:9467   */\n    tag_262:\n        /* \"#utility.yul\":9488:9489   */\n      dup3\n        /* \"#utility.yul\":9485:9486   */\n      dup3\n        /* \"#utility.yul\":9481:9490   */\n      mod\n        /* \"#utility.yul\":9476:9490   */\n      swap1\n      pop\n        /* \"#utility.yul\":9320:9496   */\n      swap3\n      swap2\n      pop\n      pop\n      jump\t// out\n\n    auxdata: 0xa2646970667358221220b4643965fefcc202100ef06aaa4e965e7ca864b0c29ebc6595686d05fa11dc3664736f6c63430008100033\n}\n",
				"bytecode": {
					"linkReferences": {},
					"object": "60806040526000600160006101000a81548160ff021916908360018111156200002d576200002c620000fa565b5b02179055503480156200003f57600080fd5b506040516200106c3803806200106c833981810160405281019062000065919062000169565b60018111620000ab576040517f08c379a0000000000000000000000000000000000000000000000000000000008152600401620000a290620001fc565b60405180910390fd5b33600560006101000a81548173ffffffffffffffffffffffffffffffffffffffff021916908373ffffffffffffffffffffffffffffffffffffffff16021790555080600481905550506200021e565b7f4e487b7100000000000000000000000000000000000000000000000000000000600052602160045260246000fd5b600080fd5b6000819050919050565b62000143816200012e565b81146200014f57600080fd5b50565b600081519050620001638162000138565b92915050565b60006020828403121562000182576200018162000129565b5b6000620001928482850162000152565b91505092915050565b600082825260208201905092915050565b7f4665652073686f756c642062652067726561746572207468616e203100000000600082015250565b6000620001e4601c836200019b565b9150620001f182620001ac565b602082019050919050565b600060208201905081810360008301526200021781620001d5565b9050919050565b610e3e806200022e6000396000f3fe6080604052600436106100865760003560e01c8063b8dc50f711610059578063b8dc50f714610116578063ea8a1af014610141578063f71d96cb14610158578063f851a44014610195578063fff058e6146101c057610086565b80630c3f6acf1461008b5780630ed469b8146100b657806311610c25146100e15780639ae6f132146100eb575b600080fd5b34801561009757600080fd5b506100a06101e9565b6040516100ad91906108d0565b60405180910390f35b3480156100c257600080fd5b506100cb6101fc565b6040516100d89190610904565b60405180910390f35b6100e9610202565b005b3480156100f757600080fd5b50610100610432565b60405161010d9190610904565b60405180910390f35b34801561012257600080fd5b5061012b610438565b6040516101389190610904565b60405180910390f35b34801561014d57600080fd5b5061015661043e565b005b34801561016457600080fd5b5061017f600480360381019061017a9190610950565b61062a565b60405161018c91906109be565b60405180910390f35b3480156101a157600080fd5b506101aa610669565b6040516101b791906109fa565b60405180910390f35b3480156101cc57600080fd5b506101e760048036038101906101e29190610a15565b61068f565b005b600160009054906101000a900460ff1681565b60045481565b60018060009054906101000a900460ff16600181111561022557610224610859565b5b81600181111561023857610237610859565b5b14610278576040517f08c379a000000000000000000000000000000000000000000000000000000000815260040161026f90610ab2565b60405180910390fd5b60035434146102bc576040517f08c379a00000000000000000000000000000000000000000000000000000000081526004016102b390610b44565b60405180910390fd5b6000339080600181540180825580915050600190039060005260206000200160009091909190916101000a81548173ffffffffffffffffffffffffffffffffffffffff021916908373ffffffffffffffffffffffffffffffffffffffff1602179055506002546000805490500361042f57600061033a6002546107d3565b9050600081815481106103505761034f610b64565b5b9060005260206000200160009054906101000a900473ffffffffffffffffffffffffffffffffffffffff1673ffffffffffffffffffffffffffffffffffffffff166108fc606460045460646103a59190610bc2565b6002546003546103b59190610bf6565b6103bf9190610bf6565b6103c99190610c7f565b9081150290604051600060405180830381858888f193505050501580156103f4573d6000803e3d6000fd5b506000600160006101000a81548160ff0219169083600181111561041b5761041a610859565b5b021790555060008061042d919061081b565b505b50565b60025481565b60035481565b60018060009054906101000a900460ff16600181111561046157610460610859565b5b81600181111561047457610473610859565b5b146104b4576040517f08c379a00000000000000000000000000000000000000000000000000000000081526004016104ab90610ab2565b60405180910390fd5b600560009054906101000a900473ffffffffffffffffffffffffffffffffffffffff1673ffffffffffffffffffffffffffffffffffffffff163373ffffffffffffffffffffffffffffffffffffffff1614610544576040517f08c379a000000000000000000000000000000000000000000000000000000000815260040161053b90610d22565b60405180910390fd5b60005b6000805490508110156105ee576000818154811061056857610567610b64565b5b9060005260206000200160009054906101000a900473ffffffffffffffffffffffffffffffffffffffff1673ffffffffffffffffffffffffffffffffffffffff166108fc6003549081150290604051600060405180830381858888f193505050501580156105da573d6000803e3d6000fd5b5080806105e690610d42565b915050610547565b506000806105fc919061081b565b6000600160006101000a81548160ff0219169083600181111561062257610621610859565b5b021790555050565b6000818154811061063a57600080fd5b906000526020600020016000915054906101000a900473ffffffffffffffffffffffffffffffffffffffff1681565b600560009054906101000a900473ffffffffffffffffffffffffffffffffffffffff1681565b6000600160009054906101000a900460ff1660018111156106b3576106b2610859565b5b8160018111156106c6576106c5610859565b5b14610706576040517f08c379a00000000000000000000000000000000000000000000000000000000081526004016106fd90610ab2565b60405180910390fd5b600560009054906101000a900473ffffffffffffffffffffffffffffffffffffffff1673ffffffffffffffffffffffffffffffffffffffff163373ffffffffffffffffffffffffffffffffffffffff1614610796576040517f08c379a000000000000000000000000000000000000000000000000000000000815260040161078d90610d22565b60405180910390fd5b826002819055508160038190555060018060006101000a81548160ff021916908360018111156107c9576107c8610859565b5b0217905550505050565b60008044426040516020016107e9929190610dab565b6040516020818303038152906040528051906020012060001c905082816108109190610dd7565b905080915050919050565b5080546000825590600052602060002090810190610839919061083c565b50565b5b8082111561085557600081600090555060010161083d565b5090565b7f4e487b7100000000000000000000000000000000000000000000000000000000600052602160045260246000fd5b6002811061089957610898610859565b5b50565b60008190506108aa82610888565b919050565b60006108ba8261089c565b9050919050565b6108ca816108af565b82525050565b60006020820190506108e560008301846108c1565b92915050565b6000819050919050565b6108fe816108eb565b82525050565b600060208201905061091960008301846108f5565b92915050565b600080fd5b61092d816108eb565b811461093857600080fd5b50565b60008135905061094a81610924565b92915050565b6000602082840312156109665761096561091f565b5b60006109748482850161093b565b91505092915050565b600073ffffffffffffffffffffffffffffffffffffffff82169050919050565b60006109a88261097d565b9050919050565b6109b88161099d565b82525050565b60006020820190506109d360008301846109af565b92915050565b60006109e48261097d565b9050919050565b6109f4816109d9565b82525050565b6000602082019050610a0f60008301846109eb565b92915050565b60008060408385031215610a2c57610a2b61091f565b5b6000610a3a8582860161093b565b9250506020610a4b8582860161093b565b9150509250929050565b600082825260208201905092915050565b7f43757272656e7420737461746520646f65736e6f7420616c6c6f772074686973600082015250565b6000610a9c602083610a55565b9150610aa782610a66565b602082019050919050565b60006020820190508181036000830152610acb81610a8f565b9050919050565b7f43616e204f6e6c7920626574207468652065786163742045544820746861742060008201527f6973207365740000000000000000000000000000000000000000000000000000602082015250565b6000610b2e602683610a55565b9150610b3982610ad2565b604082019050919050565b60006020820190508181036000830152610b5d81610b21565b9050919050565b7f4e487b7100000000000000000000000000000000000000000000000000000000600052603260045260246000fd5b7f4e487b7100000000000000000000000000000000000000000000000000000000600052601160045260246000fd5b6000610bcd826108eb565b9150610bd8836108eb565b9250828203905081811115610bf057610bef610b93565b5b92915050565b6000610c01826108eb565b9150610c0c836108eb565b9250817fffffffffffffffffffffffffffffffffffffffffffffffffffffffffffffffff0483118215151615610c4557610c44610b93565b5b828202905092915050565b7f4e487b7100000000000000000000000000000000000000000000000000000000600052601260045260246000fd5b6000610c8a826108eb565b9150610c95836108eb565b925082610ca557610ca4610c50565b5b828204905092915050565b7f4f4e6c792061646d696e2063616e20706572666f726d2074686973206f70657260008201527f6174696f6e000000000000000000000000000000000000000000000000000000602082015250565b6000610d0c602583610a55565b9150610d1782610cb0565b604082019050919050565b60006020820190508181036000830152610d3b81610cff565b9050919050565b6000610d4d826108eb565b91507fffffffffffffffffffffffffffffffffffffffffffffffffffffffffffffffff8203610d7f57610d7e610b93565b5b600182019050919050565b6000819050919050565b610da5610da0826108eb565b610d8a565b82525050565b6000610db78285610d94565b602082019150610dc78284610d94565b6020820191508190509392505050565b6000610de2826108eb565b9150610ded836108eb565b925082610dfd57610dfc610c50565b5b82820690509291505056fea2646970667358221220b4643965fefcc202100ef06aaa4e965e7ca864b0c29ebc6595686d05fa11dc3664736f6c63430008100033",
					"opcodes": "PUSH1 0x80 PUSH1 0x40 MSTORE PUSH1 0x0 PUSH1 0x1 PUSH1 0x0 PUSH2 0x100 EXP DUP2 SLOAD DUP2 PUSH1 0xFF MUL NOT AND SWAP1 DUP4 PUSH1 0x1 DUP2 GT ISZERO PUSH3 0x2D JUMPI PUSH3 0x2C PUSH3 0xFA JUMP JUMPDEST JUMPDEST MUL OR SWAP1 SSTORE POP CALLVALUE DUP1 ISZERO PUSH3 0x3F JUMPI PUSH1 0x0 DUP1 REVERT JUMPDEST POP PUSH1 0x40 MLOAD PUSH3 0x106C CODESIZE SUB DUP1 PUSH3 0x106C DUP4 CODECOPY DUP2 DUP2 ADD PUSH1 0x40 MSTORE DUP2 ADD SWAP1 PUSH3 0x65 SWAP2 SWAP1 PUSH3 0x169 JUMP JUMPDEST PUSH1 0x1 DUP2 GT PUSH3 0xAB JUMPI PUSH1 0x40 MLOAD PUSH32 0x8C379A000000000000000000000000000000000000000000000000000000000 DUP2 MSTORE PUSH1 0x4 ADD PUSH3 0xA2 SWAP1 PUSH3 0x1FC JUMP JUMPDEST PUSH1 0x40 MLOAD DUP1 SWAP2 SUB SWAP1 REVERT JUMPDEST CALLER PUSH1 0x5 PUSH1 0x0 PUSH2 0x100 EXP DUP2 SLOAD DUP2 PUSH20 0xFFFFFFFFFFFFFFFFFFFFFFFFFFFFFFFFFFFFFFFF MUL NOT AND SWAP1 DUP4 PUSH20 0xFFFFFFFFFFFFFFFFFFFFFFFFFFFFFFFFFFFFFFFF AND MUL OR SWAP1 SSTORE POP DUP1 PUSH1 0x4 DUP2 SWAP1 SSTORE POP POP PUSH3 0x21E JUMP JUMPDEST PUSH32 0x4E487B7100000000000000000000000000000000000000000000000000000000 PUSH1 0x0 MSTORE PUSH1 0x21 PUSH1 0x4 MSTORE PUSH1 0x24 PUSH1 0x0 REVERT JUMPDEST PUSH1 0x0 DUP1 REVERT JUMPDEST PUSH1 0x0 DUP2 SWAP1 POP SWAP2 SWAP1 POP JUMP JUMPDEST PUSH3 0x143 DUP2 PUSH3 0x12E JUMP JUMPDEST DUP2 EQ PUSH3 0x14F JUMPI PUSH1 0x0 DUP1 REVERT JUMPDEST POP JUMP JUMPDEST PUSH1 0x0 DUP2 MLOAD SWAP1 POP PUSH3 0x163 DUP2 PUSH3 0x138 JUMP JUMPDEST SWAP3 SWAP2 POP POP JUMP JUMPDEST PUSH1 0x0 PUSH1 0x20 DUP3 DUP5 SUB SLT ISZERO PUSH3 0x182 JUMPI PUSH3 0x181 PUSH3 0x129 JUMP JUMPDEST JUMPDEST PUSH1 0x0 PUSH3 0x192 DUP5 DUP3 DUP6 ADD PUSH3 0x152 JUMP JUMPDEST SWAP2 POP POP SWAP3 SWAP2 POP POP JUMP JUMPDEST PUSH1 0x0 DUP3 DUP3 MSTORE PUSH1 0x20 DUP3 ADD SWAP1 POP SWAP3 SWAP2 POP POP JUMP JUMPDEST PUSH32 0x4665652073686F756C642062652067726561746572207468616E203100000000 PUSH1 0x0 DUP3 ADD MSTORE POP JUMP JUMPDEST PUSH1 0x0 PUSH3 0x1E4 PUSH1 0x1C DUP4 PUSH3 0x19B JUMP JUMPDEST SWAP2 POP PUSH3 0x1F1 DUP3 PUSH3 0x1AC JUMP JUMPDEST PUSH1 0x20 DUP3 ADD SWAP1 POP SWAP2 SWAP1 POP JUMP JUMPDEST PUSH1 0x0 PUSH1 0x20 DUP3 ADD SWAP1 POP DUP2 DUP2 SUB PUSH1 0x0 DUP4 ADD MSTORE PUSH3 0x217 DUP2 PUSH3 0x1D5 JUMP JUMPDEST SWAP1 POP SWAP2 SWAP1 POP JUMP JUMPDEST PUSH2 0xE3E DUP1 PUSH3 0x22E PUSH1 0x0 CODECOPY PUSH1 0x0 RETURN INVALID PUSH1 0x80 PUSH1 0x40 MSTORE PUSH1 0x4 CALLDATASIZE LT PUSH2 0x86 JUMPI PUSH1 0x0 CALLDATALOAD PUSH1 0xE0 SHR DUP1 PUSH4 0xB8DC50F7 GT PUSH2 0x59 JUMPI DUP1 PUSH4 0xB8DC50F7 EQ PUSH2 0x116 JUMPI DUP1 PUSH4 0xEA8A1AF0 EQ PUSH2 0x141 JUMPI DUP1 PUSH4 0xF71D96CB EQ PUSH2 0x158 JUMPI DUP1 PUSH4 0xF851A440 EQ PUSH2 0x195 JUMPI DUP1 PUSH4 0xFFF058E6 EQ PUSH2 0x1C0 JUMPI PUSH2 0x86 JUMP JUMPDEST DUP1 PUSH4 0xC3F6ACF EQ PUSH2 0x8B JUMPI DUP1 PUSH4 0xED469B8 EQ PUSH2 0xB6 JUMPI DUP1 PUSH4 0x11610C25 EQ PUSH2 0xE1 JUMPI DUP1 PUSH4 0x9AE6F132 EQ PUSH2 0xEB JUMPI JUMPDEST PUSH1 0x0 DUP1 REVERT JUMPDEST CALLVALUE DUP1 ISZERO PUSH2 0x97 JUMPI PUSH1 0x0 DUP1 REVERT JUMPDEST POP PUSH2 0xA0 PUSH2 0x1E9 JUMP JUMPDEST PUSH1 0x40 MLOAD PUSH2 0xAD SWAP2 SWAP1 PUSH2 0x8D0 JUMP JUMPDEST PUSH1 0x40 MLOAD DUP1 SWAP2 SUB SWAP1 RETURN JUMPDEST CALLVALUE DUP1 ISZERO PUSH2 0xC2 JUMPI PUSH1 0x0 DUP1 REVERT JUMPDEST POP PUSH2 0xCB PUSH2 0x1FC JUMP JUMPDEST PUSH1 0x40 MLOAD PUSH2 0xD8 SWAP2 SWAP1 PUSH2 0x904 JUMP JUMPDEST PUSH1 0x40 MLOAD DUP1 SWAP2 SUB SWAP1 RETURN JUMPDEST PUSH2 0xE9 PUSH2 0x202 JUMP JUMPDEST STOP JUMPDEST CALLVALUE DUP1 ISZERO PUSH2 0xF7 JUMPI PUSH1 0x0 DUP1 REVERT JUMPDEST POP PUSH2 0x100 PUSH2 0x432 JUMP JUMPDEST PUSH1 0x40 MLOAD PUSH2 0x10D SWAP2 SWAP1 PUSH2 0x904 JUMP JUMPDEST PUSH1 0x40 MLOAD DUP1 SWAP2 SUB SWAP1 RETURN JUMPDEST CALLVALUE DUP1 ISZERO PUSH2 0x122 JUMPI PUSH1 0x0 DUP1 REVERT JUMPDEST POP PUSH2 0x12B PUSH2 0x438 JUMP JUMPDEST PUSH1 0x40 MLOAD PUSH2 0x138 SWAP2 SWAP1 PUSH2 0x904 JUMP JUMPDEST PUSH1 0x40 MLOAD DUP1 SWAP2 SUB SWAP1 RETURN JUMPDEST CALLVALUE DUP1 ISZERO PUSH2 0x14D JUMPI PUSH1 0x0 DUP1 REVERT JUMPDEST POP PUSH2 0x156 PUSH2 0x43E JUMP JUMPDEST STOP JUMPDEST CALLVALUE DUP1 ISZERO PUSH2 0x164 JUMPI PUSH1 0x0 DUP1 REVERT JUMPDEST POP PUSH2 0x17F PUSH1 0x4 DUP1 CALLDATASIZE SUB DUP2 ADD SWAP1 PUSH2 0x17A SWAP2 SWAP1 PUSH2 0x950 JUMP JUMPDEST PUSH2 0x62A JUMP JUMPDEST PUSH1 0x40 MLOAD PUSH2 0x18C SWAP2 SWAP1 PUSH2 0x9BE JUMP JUMPDEST PUSH1 0x40 MLOAD DUP1 SWAP2 SUB SWAP1 RETURN JUMPDEST CALLVALUE DUP1 ISZERO PUSH2 0x1A1 JUMPI PUSH1 0x0 DUP1 REVERT JUMPDEST POP PUSH2 0x1AA PUSH2 0x669 JUMP JUMPDEST PUSH1 0x40 MLOAD PUSH2 0x1B7 SWAP2 SWAP1 PUSH2 0x9FA JUMP JUMPDEST PUSH1 0x40 MLOAD DUP1 SWAP2 SUB SWAP1 RETURN JUMPDEST CALLVALUE DUP1 ISZERO PUSH2 0x1CC JUMPI PUSH1 0x0 DUP1 REVERT JUMPDEST POP PUSH2 0x1E7 PUSH1 0x4 DUP1 CALLDATASIZE SUB DUP2 ADD SWAP1 PUSH2 0x1E2 SWAP2 SWAP1 PUSH2 0xA15 JUMP JUMPDEST PUSH2 0x68F JUMP JUMPDEST STOP JUMPDEST PUSH1 0x1 PUSH1 0x0 SWAP1 SLOAD SWAP1 PUSH2 0x100 EXP SWAP1 DIV PUSH1 0xFF AND DUP2 JUMP JUMPDEST PUSH1 0x4 SLOAD DUP2 JUMP JUMPDEST PUSH1 0x1 DUP1 PUSH1 0x0 SWAP1 SLOAD SWAP1 PUSH2 0x100 EXP SWAP1 DIV PUSH1 0xFF AND PUSH1 0x1 DUP2 GT ISZERO PUSH2 0x225 JUMPI PUSH2 0x224 PUSH2 0x859 JUMP JUMPDEST JUMPDEST DUP2 PUSH1 0x1 DUP2 GT ISZERO PUSH2 0x238 JUMPI PUSH2 0x237 PUSH2 0x859 JUMP JUMPDEST JUMPDEST EQ PUSH2 0x278 JUMPI PUSH1 0x40 MLOAD PUSH32 0x8C379A000000000000000000000000000000000000000000000000000000000 DUP2 MSTORE PUSH1 0x4 ADD PUSH2 0x26F SWAP1 PUSH2 0xAB2 JUMP JUMPDEST PUSH1 0x40 MLOAD DUP1 SWAP2 SUB SWAP1 REVERT JUMPDEST PUSH1 0x3 SLOAD CALLVALUE EQ PUSH2 0x2BC JUMPI PUSH1 0x40 MLOAD PUSH32 0x8C379A000000000000000000000000000000000000000000000000000000000 DUP2 MSTORE PUSH1 0x4 ADD PUSH2 0x2B3 SWAP1 PUSH2 0xB44 JUMP JUMPDEST PUSH1 0x40 MLOAD DUP1 SWAP2 SUB SWAP1 REVERT JUMPDEST PUSH1 0x0 CALLER SWAP1 DUP1 PUSH1 0x1 DUP2 SLOAD ADD DUP1 DUP3 SSTORE DUP1 SWAP2 POP POP PUSH1 0x1 SWAP1 SUB SWAP1 PUSH1 0x0 MSTORE PUSH1 0x20 PUSH1 0x0 KECCAK256 ADD PUSH1 0x0 SWAP1 SWAP2 SWAP1 SWAP2 SWAP1 SWAP2 PUSH2 0x100 EXP DUP2 SLOAD DUP2 PUSH20 0xFFFFFFFFFFFFFFFFFFFFFFFFFFFFFFFFFFFFFFFF MUL NOT AND SWAP1 DUP4 PUSH20 0xFFFFFFFFFFFFFFFFFFFFFFFFFFFFFFFFFFFFFFFF AND MUL OR SWAP1 SSTORE POP PUSH1 0x2 SLOAD PUSH1 0x0 DUP1 SLOAD SWAP1 POP SUB PUSH2 0x42F JUMPI PUSH1 0x0 PUSH2 0x33A PUSH1 0x2 SLOAD PUSH2 0x7D3 JUMP JUMPDEST SWAP1 POP PUSH1 0x0 DUP2 DUP2 SLOAD DUP2 LT PUSH2 0x350 JUMPI PUSH2 0x34F PUSH2 0xB64 JUMP JUMPDEST JUMPDEST SWAP1 PUSH1 0x0 MSTORE PUSH1 0x20 PUSH1 0x0 KECCAK256 ADD PUSH1 0x0 SWAP1 SLOAD SWAP1 PUSH2 0x100 EXP SWAP1 DIV PUSH20 0xFFFFFFFFFFFFFFFFFFFFFFFFFFFFFFFFFFFFFFFF AND PUSH20 0xFFFFFFFFFFFFFFFFFFFFFFFFFFFFFFFFFFFFFFFF AND PUSH2 0x8FC PUSH1 0x64 PUSH1 0x4 SLOAD PUSH1 0x64 PUSH2 0x3A5 SWAP2 SWAP1 PUSH2 0xBC2 JUMP JUMPDEST PUSH1 0x2 SLOAD PUSH1 0x3 SLOAD PUSH2 0x3B5 SWAP2 SWAP1 PUSH2 0xBF6 JUMP JUMPDEST PUSH2 0x3BF SWAP2 SWAP1 PUSH2 0xBF6 JUMP JUMPDEST PUSH2 0x3C9 SWAP2 SWAP1 PUSH2 0xC7F JUMP JUMPDEST SWAP1 DUP2 ISZERO MUL SWAP1 PUSH1 0x40 MLOAD PUSH1 0x0 PUSH1 0x40 MLOAD DUP1 DUP4 SUB DUP2 DUP6 DUP9 DUP9 CALL SWAP4 POP POP POP POP ISZERO DUP1 ISZERO PUSH2 0x3F4 JUMPI RETURNDATASIZE PUSH1 0x0 DUP1 RETURNDATACOPY RETURNDATASIZE PUSH1 0x0 REVERT JUMPDEST POP PUSH1 0x0 PUSH1 0x1 PUSH1 0x0 PUSH2 0x100 EXP DUP2 SLOAD DUP2 PUSH1 0xFF MUL NOT AND SWAP1 DUP4 PUSH1 0x1 DUP2 GT ISZERO PUSH2 0x41B JUMPI PUSH2 0x41A PUSH2 0x859 JUMP JUMPDEST JUMPDEST MUL OR SWAP1 SSTORE POP PUSH1 0x0 DUP1 PUSH2 0x42D SWAP2 SWAP1 PUSH2 0x81B JUMP JUMPDEST POP JUMPDEST POP JUMP JUMPDEST PUSH1 0x2 SLOAD DUP2 JUMP JUMPDEST PUSH1 0x3 SLOAD DUP2 JUMP JUMPDEST PUSH1 0x1 DUP1 PUSH1 0x0 SWAP1 SLOAD SWAP1 PUSH2 0x100 EXP SWAP1 DIV PUSH1 0xFF AND PUSH1 0x1 DUP2 GT ISZERO PUSH2 0x461 JUMPI PUSH2 0x460 PUSH2 0x859 JUMP JUMPDEST JUMPDEST DUP2 PUSH1 0x1 DUP2 GT ISZERO PUSH2 0x474 JUMPI PUSH2 0x473 PUSH2 0x859 JUMP JUMPDEST JUMPDEST EQ PUSH2 0x4B4 JUMPI PUSH1 0x40 MLOAD PUSH32 0x8C379A000000000000000000000000000000000000000000000000000000000 DUP2 MSTORE PUSH1 0x4 ADD PUSH2 0x4AB SWAP1 PUSH2 0xAB2 JUMP JUMPDEST PUSH1 0x40 MLOAD DUP1 SWAP2 SUB SWAP1 REVERT JUMPDEST PUSH1 0x5 PUSH1 0x0 SWAP1 SLOAD SWAP1 PUSH2 0x100 EXP SWAP1 DIV PUSH20 0xFFFFFFFFFFFFFFFFFFFFFFFFFFFFFFFFFFFFFFFF AND PUSH20 0xFFFFFFFFFFFFFFFFFFFFFFFFFFFFFFFFFFFFFFFF AND CALLER PUSH20 0xFFFFFFFFFFFFFFFFFFFFFFFFFFFFFFFFFFFFFFFF AND EQ PUSH2 0x544 JUMPI PUSH1 0x40 MLOAD PUSH32 0x8C379A000000000000000000000000000000000000000000000000000000000 DUP2 MSTORE PUSH1 0x4 ADD PUSH2 0x53B SWAP1 PUSH2 0xD22 JUMP JUMPDEST PUSH1 0x40 MLOAD DUP1 SWAP2 SUB SWAP1 REVERT JUMPDEST PUSH1 0x0 JUMPDEST PUSH1 0x0 DUP1 SLOAD SWAP1 POP DUP2 LT ISZERO PUSH2 0x5EE JUMPI PUSH1 0x0 DUP2 DUP2 SLOAD DUP2 LT PUSH2 0x568 JUMPI PUSH2 0x567 PUSH2 0xB64 JUMP JUMPDEST JUMPDEST SWAP1 PUSH1 0x0 MSTORE PUSH1 0x20 PUSH1 0x0 KECCAK256 ADD PUSH1 0x0 SWAP1 SLOAD SWAP1 PUSH2 0x100 EXP SWAP1 DIV PUSH20 0xFFFFFFFFFFFFFFFFFFFFFFFFFFFFFFFFFFFFFFFF AND PUSH20 0xFFFFFFFFFFFFFFFFFFFFFFFFFFFFFFFFFFFFFFFF AND PUSH2 0x8FC PUSH1 0x3 SLOAD SWAP1 DUP2 ISZERO MUL SWAP1 PUSH1 0x40 MLOAD PUSH1 0x0 PUSH1 0x40 MLOAD DUP1 DUP4 SUB DUP2 DUP6 DUP9 DUP9 CALL SWAP4 POP POP POP POP ISZERO DUP1 ISZERO PUSH2 0x5DA JUMPI RETURNDATASIZE PUSH1 0x0 DUP1 RETURNDATACOPY RETURNDATASIZE PUSH1 0x0 REVERT JUMPDEST POP DUP1 DUP1 PUSH2 0x5E6 SWAP1 PUSH2 0xD42 JUMP JUMPDEST SWAP2 POP POP PUSH2 0x547 JUMP JUMPDEST POP PUSH1 0x0 DUP1 PUSH2 0x5FC SWAP2 SWAP1 PUSH2 0x81B JUMP JUMPDEST PUSH1 0x0 PUSH1 0x1 PUSH1 0x0 PUSH2 0x100 EXP DUP2 SLOAD DUP2 PUSH1 0xFF MUL NOT AND SWAP1 DUP4 PUSH1 0x1 DUP2 GT ISZERO PUSH2 0x622 JUMPI PUSH2 0x621 PUSH2 0x859 JUMP JUMPDEST JUMPDEST MUL OR SWAP1 SSTORE POP POP JUMP JUMPDEST PUSH1 0x0 DUP2 DUP2 SLOAD DUP2 LT PUSH2 0x63A JUMPI PUSH1 0x0 DUP1 REVERT JUMPDEST SWAP1 PUSH1 0x0 MSTORE PUSH1 0x20 PUSH1 0x0 KECCAK256 ADD PUSH1 0x0 SWAP2 POP SLOAD SWAP1 PUSH2 0x100 EXP SWAP1 DIV PUSH20 0xFFFFFFFFFFFFFFFFFFFFFFFFFFFFFFFFFFFFFFFF AND DUP2 JUMP JUMPDEST PUSH1 0x5 PUSH1 0x0 SWAP1 SLOAD SWAP1 PUSH2 0x100 EXP SWAP1 DIV PUSH20 0xFFFFFFFFFFFFFFFFFFFFFFFFFFFFFFFFFFFFFFFF AND DUP2 JUMP JUMPDEST PUSH1 0x0 PUSH1 0x1 PUSH1 0x0 SWAP1 SLOAD SWAP1 PUSH2 0x100 EXP SWAP1 DIV PUSH1 0xFF AND PUSH1 0x1 DUP2 GT ISZERO PUSH2 0x6B3 JUMPI PUSH2 0x6B2 PUSH2 0x859 JUMP JUMPDEST JUMPDEST DUP2 PUSH1 0x1 DUP2 GT ISZERO PUSH2 0x6C6 JUMPI PUSH2 0x6C5 PUSH2 0x859 JUMP JUMPDEST JUMPDEST EQ PUSH2 0x706 JUMPI PUSH1 0x40 MLOAD PUSH32 0x8C379A000000000000000000000000000000000000000000000000000000000 DUP2 MSTORE PUSH1 0x4 ADD PUSH2 0x6FD SWAP1 PUSH2 0xAB2 JUMP JUMPDEST PUSH1 0x40 MLOAD DUP1 SWAP2 SUB SWAP1 REVERT JUMPDEST PUSH1 0x5 PUSH1 0x0 SWAP1 SLOAD SWAP1 PUSH2 0x100 EXP SWAP1 DIV PUSH20 0xFFFFFFFFFFFFFFFFFFFFFFFFFFFFFFFFFFFFFFFF AND PUSH20 0xFFFFFFFFFFFFFFFFFFFFFFFFFFFFFFFFFFFFFFFF AND CALLER PUSH20 0xFFFFFFFFFFFFFFFFFFFFFFFFFFFFFFFFFFFFFFFF AND EQ PUSH2 0x796 JUMPI PUSH1 0x40 MLOAD PUSH32 0x8C379A000000000000000000000000000000000000000000000000000000000 DUP2 MSTORE PUSH1 0x4 ADD PUSH2 0x78D SWAP1 PUSH2 0xD22 JUMP JUMPDEST PUSH1 0x40 MLOAD DUP1 SWAP2 SUB SWAP1 REVERT JUMPDEST DUP3 PUSH1 0x2 DUP2 SWAP1 SSTORE POP DUP2 PUSH1 0x3 DUP2 SWAP1 SSTORE POP PUSH1 0x1 DUP1 PUSH1 0x0 PUSH2 0x100 EXP DUP2 SLOAD DUP2 PUSH1 0xFF MUL NOT AND SWAP1 DUP4 PUSH1 0x1 DUP2 GT ISZERO PUSH2 0x7C9 JUMPI PUSH2 0x7C8 PUSH2 0x859 JUMP JUMPDEST JUMPDEST MUL OR SWAP1 SSTORE POP POP POP POP JUMP JUMPDEST PUSH1 0x0 DUP1 DIFFICULTY TIMESTAMP PUSH1 0x40 MLOAD PUSH1 0x20 ADD PUSH2 0x7E9 SWAP3 SWAP2 SWAP1 PUSH2 0xDAB JUMP JUMPDEST PUSH1 0x40 MLOAD PUSH1 0x20 DUP2 DUP4 SUB SUB DUP2 MSTORE SWAP1 PUSH1 0x40 MSTORE DUP1 MLOAD SWAP1 PUSH1 0x20 ADD KECCAK256 PUSH1 0x0 SHR SWAP1 POP DUP3 DUP2 PUSH2 0x810 SWAP2 SWAP1 PUSH2 0xDD7 JUMP JUMPDEST SWAP1 POP DUP1 SWAP2 POP POP SWAP2 SWAP1 POP JUMP JUMPDEST POP DUP1 SLOAD PUSH1 0x0 DUP3 SSTORE SWAP1 PUSH1 0x0 MSTORE PUSH1 0x20 PUSH1 0x0 KECCAK256 SWAP1 DUP2 ADD SWAP1 PUSH2 0x839 SWAP2 SWAP1 PUSH2 0x83C JUMP JUMPDEST POP JUMP JUMPDEST JUMPDEST DUP1 DUP3 GT ISZERO PUSH2 0x855 JUMPI PUSH1 0x0 DUP2 PUSH1 0x0 SWAP1 SSTORE POP PUSH1 0x1 ADD PUSH2 0x83D JUMP JUMPDEST POP SWAP1 JUMP JUMPDEST PUSH32 0x4E487B7100000000000000000000000000000000000000000000000000000000 PUSH1 0x0 MSTORE PUSH1 0x21 PUSH1 0x4 MSTORE PUSH1 0x24 PUSH1 0x0 REVERT JUMPDEST PUSH1 0x2 DUP2 LT PUSH2 0x899 JUMPI PUSH2 0x898 PUSH2 0x859 JUMP JUMPDEST JUMPDEST POP JUMP JUMPDEST PUSH1 0x0 DUP2 SWAP1 POP PUSH2 0x8AA DUP3 PUSH2 0x888 JUMP JUMPDEST SWAP2 SWAP1 POP JUMP JUMPDEST PUSH1 0x0 PUSH2 0x8BA DUP3 PUSH2 0x89C JUMP JUMPDEST SWAP1 POP SWAP2 SWAP1 POP JUMP JUMPDEST PUSH2 0x8CA DUP2 PUSH2 0x8AF JUMP JUMPDEST DUP3 MSTORE POP POP JUMP JUMPDEST PUSH1 0x0 PUSH1 0x20 DUP3 ADD SWAP1 POP PUSH2 0x8E5 PUSH1 0x0 DUP4 ADD DUP5 PUSH2 0x8C1 JUMP JUMPDEST SWAP3 SWAP2 POP POP JUMP JUMPDEST PUSH1 0x0 DUP2 SWAP1 POP SWAP2 SWAP1 POP JUMP JUMPDEST PUSH2 0x8FE DUP2 PUSH2 0x8EB JUMP JUMPDEST DUP3 MSTORE POP POP JUMP JUMPDEST PUSH1 0x0 PUSH1 0x20 DUP3 ADD SWAP1 POP PUSH2 0x919 PUSH1 0x0 DUP4 ADD DUP5 PUSH2 0x8F5 JUMP JUMPDEST SWAP3 SWAP2 POP POP JUMP JUMPDEST PUSH1 0x0 DUP1 REVERT JUMPDEST PUSH2 0x92D DUP2 PUSH2 0x8EB JUMP JUMPDEST DUP2 EQ PUSH2 0x938 JUMPI PUSH1 0x0 DUP1 REVERT JUMPDEST POP JUMP JUMPDEST PUSH1 0x0 DUP2 CALLDATALOAD SWAP1 POP PUSH2 0x94A DUP2 PUSH2 0x924 JUMP JUMPDEST SWAP3 SWAP2 POP POP JUMP JUMPDEST PUSH1 0x0 PUSH1 0x20 DUP3 DUP5 SUB SLT ISZERO PUSH2 0x966 JUMPI PUSH2 0x965 PUSH2 0x91F JUMP JUMPDEST JUMPDEST PUSH1 0x0 PUSH2 0x974 DUP5 DUP3 DUP6 ADD PUSH2 0x93B JUMP JUMPDEST SWAP2 POP POP SWAP3 SWAP2 POP POP JUMP JUMPDEST PUSH1 0x0 PUSH20 0xFFFFFFFFFFFFFFFFFFFFFFFFFFFFFFFFFFFFFFFF DUP3 AND SWAP1 POP SWAP2 SWAP1 POP JUMP JUMPDEST PUSH1 0x0 PUSH2 0x9A8 DUP3 PUSH2 0x97D JUMP JUMPDEST SWAP1 POP SWAP2 SWAP1 POP JUMP JUMPDEST PUSH2 0x9B8 DUP2 PUSH2 0x99D JUMP JUMPDEST DUP3 MSTORE POP POP JUMP JUMPDEST PUSH1 0x0 PUSH1 0x20 DUP3 ADD SWAP1 POP PUSH2 0x9D3 PUSH1 0x0 DUP4 ADD DUP5 PUSH2 0x9AF JUMP JUMPDEST SWAP3 SWAP2 POP POP JUMP JUMPDEST PUSH1 0x0 PUSH2 0x9E4 DUP3 PUSH2 0x97D JUMP JUMPDEST SWAP1 POP SWAP2 SWAP1 POP JUMP JUMPDEST PUSH2 0x9F4 DUP2 PUSH2 0x9D9 JUMP JUMPDEST DUP3 MSTORE POP POP JUMP JUMPDEST PUSH1 0x0 PUSH1 0x20 DUP3 ADD SWAP1 POP PUSH2 0xA0F PUSH1 0x0 DUP4 ADD DUP5 PUSH2 0x9EB JUMP JUMPDEST SWAP3 SWAP2 POP POP JUMP JUMPDEST PUSH1 0x0 DUP1 PUSH1 0x40 DUP4 DUP6 SUB SLT ISZERO PUSH2 0xA2C JUMPI PUSH2 0xA2B PUSH2 0x91F JUMP JUMPDEST JUMPDEST PUSH1 0x0 PUSH2 0xA3A DUP6 DUP3 DUP7 ADD PUSH2 0x93B JUMP JUMPDEST SWAP3 POP POP PUSH1 0x20 PUSH2 0xA4B DUP6 DUP3 DUP7 ADD PUSH2 0x93B JUMP JUMPDEST SWAP2 POP POP SWAP3 POP SWAP3 SWAP1 POP JUMP JUMPDEST PUSH1 0x0 DUP3 DUP3 MSTORE PUSH1 0x20 DUP3 ADD SWAP1 POP SWAP3 SWAP2 POP POP JUMP JUMPDEST PUSH32 0x43757272656E7420737461746520646F65736E6F7420616C6C6F772074686973 PUSH1 0x0 DUP3 ADD MSTORE POP JUMP JUMPDEST PUSH1 0x0 PUSH2 0xA9C PUSH1 0x20 DUP4 PUSH2 0xA55 JUMP JUMPDEST SWAP2 POP PUSH2 0xAA7 DUP3 PUSH2 0xA66 JUMP JUMPDEST PUSH1 0x20 DUP3 ADD SWAP1 POP SWAP2 SWAP1 POP JUMP JUMPDEST PUSH1 0x0 PUSH1 0x20 DUP3 ADD SWAP1 POP DUP2 DUP2 SUB PUSH1 0x0 DUP4 ADD MSTORE PUSH2 0xACB DUP2 PUSH2 0xA8F JUMP JUMPDEST SWAP1 POP SWAP2 SWAP1 POP JUMP JUMPDEST PUSH32 0x43616E204F6E6C79206265742074686520657861637420455448207468617420 PUSH1 0x0 DUP3 ADD MSTORE PUSH32 0x6973207365740000000000000000000000000000000000000000000000000000 PUSH1 0x20 DUP3 ADD MSTORE POP JUMP JUMPDEST PUSH1 0x0 PUSH2 0xB2E PUSH1 0x26 DUP4 PUSH2 0xA55 JUMP JUMPDEST SWAP2 POP PUSH2 0xB39 DUP3 PUSH2 0xAD2 JUMP JUMPDEST PUSH1 0x40 DUP3 ADD SWAP1 POP SWAP2 SWAP1 POP JUMP JUMPDEST PUSH1 0x0 PUSH1 0x20 DUP3 ADD SWAP1 POP DUP2 DUP2 SUB PUSH1 0x0 DUP4 ADD MSTORE PUSH2 0xB5D DUP2 PUSH2 0xB21 JUMP JUMPDEST SWAP1 POP SWAP2 SWAP1 POP JUMP JUMPDEST PUSH32 0x4E487B7100000000000000000000000000000000000000000000000000000000 PUSH1 0x0 MSTORE PUSH1 0x32 PUSH1 0x4 MSTORE PUSH1 0x24 PUSH1 0x0 REVERT JUMPDEST PUSH32 0x4E487B7100000000000000000000000000000000000000000000000000000000 PUSH1 0x0 MSTORE PUSH1 0x11 PUSH1 0x4 MSTORE PUSH1 0x24 PUSH1 0x0 REVERT JUMPDEST PUSH1 0x0 PUSH2 0xBCD DUP3 PUSH2 0x8EB JUMP JUMPDEST SWAP2 POP PUSH2 0xBD8 DUP4 PUSH2 0x8EB JUMP JUMPDEST SWAP3 POP DUP3 DUP3 SUB SWAP1 POP DUP2 DUP2 GT ISZERO PUSH2 0xBF0 JUMPI PUSH2 0xBEF PUSH2 0xB93 JUMP JUMPDEST JUMPDEST SWAP3 SWAP2 POP POP JUMP JUMPDEST PUSH1 0x0 PUSH2 0xC01 DUP3 PUSH2 0x8EB JUMP JUMPDEST SWAP2 POP PUSH2 0xC0C DUP4 PUSH2 0x8EB JUMP JUMPDEST SWAP3 POP DUP2 PUSH32 0xFFFFFFFFFFFFFFFFFFFFFFFFFFFFFFFFFFFFFFFFFFFFFFFFFFFFFFFFFFFFFFFF DIV DUP4 GT DUP3 ISZERO ISZERO AND ISZERO PUSH2 0xC45 JUMPI PUSH2 0xC44 PUSH2 0xB93 JUMP JUMPDEST JUMPDEST DUP3 DUP3 MUL SWAP1 POP SWAP3 SWAP2 POP POP JUMP JUMPDEST PUSH32 0x4E487B7100000000000000000000000000000000000000000000000000000000 PUSH1 0x0 MSTORE PUSH1 0x12 PUSH1 0x4 MSTORE PUSH1 0x24 PUSH1 0x0 REVERT JUMPDEST PUSH1 0x0 PUSH2 0xC8A DUP3 PUSH2 0x8EB JUMP JUMPDEST SWAP2 POP PUSH2 0xC95 DUP4 PUSH2 0x8EB JUMP JUMPDEST SWAP3 POP DUP3 PUSH2 0xCA5 JUMPI PUSH2 0xCA4 PUSH2 0xC50 JUMP JUMPDEST JUMPDEST DUP3 DUP3 DIV SWAP1 POP SWAP3 SWAP2 POP POP JUMP JUMPDEST PUSH32 0x4F4E6C792061646D696E2063616E20706572666F726D2074686973206F706572 PUSH1 0x0 DUP3 ADD MSTORE PUSH32 0x6174696F6E000000000000000000000000000000000000000000000000000000 PUSH1 0x20 DUP3 ADD MSTORE POP JUMP JUMPDEST PUSH1 0x0 PUSH2 0xD0C PUSH1 0x25 DUP4 PUSH2 0xA55 JUMP JUMPDEST SWAP2 POP PUSH2 0xD17 DUP3 PUSH2 0xCB0 JUMP JUMPDEST PUSH1 0x40 DUP3 ADD SWAP1 POP SWAP2 SWAP1 POP JUMP JUMPDEST PUSH1 0x0 PUSH1 0x20 DUP3 ADD SWAP1 POP DUP2 DUP2 SUB PUSH1 0x0 DUP4 ADD MSTORE PUSH2 0xD3B DUP2 PUSH2 0xCFF JUMP JUMPDEST SWAP1 POP SWAP2 SWAP1 POP JUMP JUMPDEST PUSH1 0x0 PUSH2 0xD4D DUP3 PUSH2 0x8EB JUMP JUMPDEST SWAP2 POP PUSH32 0xFFFFFFFFFFFFFFFFFFFFFFFFFFFFFFFFFFFFFFFFFFFFFFFFFFFFFFFFFFFFFFFF DUP3 SUB PUSH2 0xD7F JUMPI PUSH2 0xD7E PUSH2 0xB93 JUMP JUMPDEST JUMPDEST PUSH1 0x1 DUP3 ADD SWAP1 POP SWAP2 SWAP1 POP JUMP JUMPDEST PUSH1 0x0 DUP2 SWAP1 POP SWAP2 SWAP1 POP JUMP JUMPDEST PUSH2 0xDA5 PUSH2 0xDA0 DUP3 PUSH2 0x8EB JUMP JUMPDEST PUSH2 0xD8A JUMP JUMPDEST DUP3 MSTORE POP POP JUMP JUMPDEST PUSH1 0x0 PUSH2 0xDB7 DUP3 DUP6 PUSH2 0xD94 JUMP JUMPDEST PUSH1 0x20 DUP3 ADD SWAP2 POP PUSH2 0xDC7 DUP3 DUP5 PUSH2 0xD94 JUMP JUMPDEST PUSH1 0x20 DUP3 ADD SWAP2 POP DUP2 SWAP1 POP SWAP4 SWAP3 POP POP POP JUMP JUMPDEST PUSH1 0x0 PUSH2 0xDE2 DUP3 PUSH2 0x8EB JUMP JUMPDEST SWAP2 POP PUSH2 0xDED DUP4 PUSH2 0x8EB JUMP JUMPDEST SWAP3 POP DUP3 PUSH2 0xDFD JUMPI PUSH2 0xDFC PUSH2 0xC50 JUMP JUMPDEST JUMPDEST DUP3 DUP3 MOD SWAP1 POP SWAP3 SWAP2 POP POP JUMP INVALID LOG2 PUSH5 0x6970667358 0x22 SLT KECCAK256 0xB4 PUSH5 0x3965FEFCC2 MUL LT 0xE CREATE PUSH11 0xAA4E965E7CA864B0C29EBC PUSH6 0x95686D05FA11 0xDC CALLDATASIZE PUSH5 0x736F6C6343 STOP ADDMOD LT STOP CALLER "
				},
				"gasEstimates": {
					"creation": {
						"codeDepositCost": "729200",
						"executionCost": "infinite",
						"totalCost": "infinite"
					},
					"external": {
						"admin()": "2580",
						"bet()": "infinite",
						"cancel()": "infinite",
						"createBet(uint256,uint256)": "infinite",
						"currentState()": "2561",
						"houseFee()": "2452",
						"maxNumPlayers()": "2496",
						"moneyRequiredTOBet()": "2429",
						"players(uint256)": "5000"
					},
					"internal": {
						"_randomwModulo(uint256)": "infinite"
					}
				},
				"methodIdentifiers": {
					"admin()": "f851a440",
					"bet()": "11610c25",
					"cancel()": "ea8a1af0",
					"createBet(uint256,uint256)": "fff058e6",
					"currentState()": "0c3f6acf",
					"houseFee()": "0ed469b8",
					"maxNumPlayers()": "9ae6f132",
					"moneyRequiredTOBet()": "b8dc50f7",
					"players(uint256)": "f71d96cb"
				}
			},
			"storageLayout": {
				"storage": [
					{
						"astId": 7,
						"contract": "Lottery.sol:Lottery",
						"label": "players",
						"offset": 0,
						"slot": "0",
						"type": "t_array(t_address_payable)dyn_storage"
					},
					{
						"astId": 12,
						"contract": "Lottery.sol:Lottery",
						"label": "currentState",
						"offset": 0,
						"slot": "1",
						"type": "t_enum(State)4"
					},
					{
						"astId": 14,
						"contract": "Lottery.sol:Lottery",
						"label": "maxNumPlayers",
						"offset": 0,
						"slot": "2",
						"type": "t_uint256"
					},
					{
						"astId": 16,
						"contract": "Lottery.sol:Lottery",
						"label": "moneyRequiredTOBet",
						"offset": 0,
						"slot": "3",
						"type": "t_uint256"
					},
					{
						"astId": 18,
						"contract": "Lottery.sol:Lottery",
						"label": "houseFee",
						"offset": 0,
						"slot": "4",
						"type": "t_uint256"
					},
					{
						"astId": 20,
						"contract": "Lottery.sol:Lottery",
						"label": "admin",
						"offset": 0,
						"slot": "5",
						"type": "t_address"
					}
				],
				"types": {
					"t_address": {
						"encoding": "inplace",
						"label": "address",
						"numberOfBytes": "20"
					},
					"t_address_payable": {
						"encoding": "inplace",
						"label": "address payable",
						"numberOfBytes": "20"
					},
					"t_array(t_address_payable)dyn_storage": {
						"base": "t_address_payable",
						"encoding": "dynamic_array",
						"label": "address payable[]",
						"numberOfBytes": "32"
					},
					"t_enum(State)4": {
						"encoding": "inplace",
						"label": "enum Lottery.State",
						"numberOfBytes": "1"
					},
					"t_uint256": {
						"encoding": "inplace",
						"label": "uint256",
						"numberOfBytes": "32"
					}
				}
			},
			"userdoc": {
				"kind": "user",
				"methods": {},
				"version": 1
			}
		}
	}
}