{
	"BuilIT.sol": {
		"BuiltInVarsAndFuncs": {
			"abi": [
				{
					"inputs": [],
					"name": "blockBaseFee",
					"outputs": [
						{
							"internalType": "uint256",
							"name": "",
							"type": "uint256"
						}
					],
					"stateMutability": "view",
					"type": "function"
				},
				{
					"inputs": [],
					"name": "blockNumber",
					"outputs": [
						{
							"internalType": "uint256",
							"name": "",
							"type": "uint256"
						}
					],
					"stateMutability": "view",
					"type": "function"
				},
				{
					"inputs": [],
					"name": "genesisBlockHash",
					"outputs": [
						{
							"internalType": "bytes32",
							"name": "",
							"type": "bytes32"
						}
					],
					"stateMutability": "view",
					"type": "function"
				},
				{
					"inputs": [],
					"name": "msgSender",
					"outputs": [
						{
							"internalType": "address",
							"name": "",
							"type": "address"
						}
					],
					"stateMutability": "view",
					"type": "function"
				},
				{
					"inputs": [],
					"name": "msgValue",
					"outputs": [
						{
							"internalType": "uint256",
							"name": "",
							"type": "uint256"
						}
					],
					"stateMutability": "payable",
					"type": "function"
				},
				{
					"inputs": [],
					"name": "txGasPrice",
					"outputs": [
						{
							"internalType": "uint256",
							"name": "",
							"type": "uint256"
						}
					],
					"stateMutability": "view",
					"type": "function"
				},
				{
					"inputs": [],
					"name": "txOrigin",
					"outputs": [
						{
							"internalType": "address",
							"name": "",
							"type": "address"
						}
					],
					"stateMutability": "view",
					"type": "function"
				}
			],
			"devdoc": {
				"kind": "dev",
				"methods": {},
				"version": 1
			},
			"evm": {
				"assembly": "    /* \"BuilIT.sol\":67:774  contract BuiltInVarsAndFuncs {... */\n  mstore(0x40, 0x80)\n  callvalue\n  dup1\n  iszero\n  tag_1\n  jumpi\n  0x00\n  dup1\n  revert\ntag_1:\n  pop\n  dataSize(sub_0)\n  dup1\n  dataOffset(sub_0)\n  0x00\n  codecopy\n  0x00\n  return\nstop\n\nsub_0: assembly {\n        /* \"BuilIT.sol\":67:774  contract BuiltInVarsAndFuncs {... */\n      mstore(0x40, 0x80)\n      jumpi(tag_1, lt(calldatasize, 0x04))\n      shr(0xe0, calldataload(0x00))\n      dup1\n      0xd737d0c7\n      gt\n      tag_9\n      jumpi\n      dup1\n      0xd737d0c7\n      eq\n      tag_5\n      jumpi\n      dup1\n      0xddf363d7\n      eq\n      tag_6\n      jumpi\n      dup1\n      0xf80a0b53\n      eq\n      tag_7\n      jumpi\n      dup1\n      0xf96757d1\n      eq\n      tag_8\n      jumpi\n      jump(tag_1)\n    tag_9:\n      dup1\n      0x28e24b3d\n      eq\n      tag_2\n      jumpi\n      dup1\n      0x534ca054\n      eq\n      tag_3\n      jumpi\n      dup1\n      0x57e871e7\n      eq\n      tag_4\n      jumpi\n    tag_1:\n      0x00\n      dup1\n      revert\n        /* \"BuilIT.sol\":103:199  function genesisBlockHash() public view returns (bytes32) {... */\n    tag_2:\n      callvalue\n      dup1\n      iszero\n      tag_10\n      jumpi\n      0x00\n      dup1\n      revert\n    tag_10:\n      pop\n      tag_11\n      tag_12\n      jump\t// in\n    tag_11:\n      mload(0x40)\n      tag_13\n      swap2\n      swap1\n      tag_14\n      jump\t// in\n    tag_13:\n      mload(0x40)\n      dup1\n      swap2\n      sub\n      swap1\n      return\n        /* \"BuilIT.sol\":684:770  function txGasPrice() public view returns (uint) {... */\n    tag_3:\n      callvalue\n      dup1\n      iszero\n      tag_15\n      jumpi\n      0x00\n      dup1\n      revert\n    tag_15:\n      pop\n      tag_16\n      tag_17\n      jump\t// in\n    tag_16:\n      mload(0x40)\n      tag_18\n      swap2\n      swap1\n      tag_19\n      jump\t// in\n    tag_18:\n      mload(0x40)\n      dup1\n      swap2\n      sub\n      swap1\n      return\n        /* \"BuilIT.sol\":309:403  function blockNumber() public view returns (uint) {... */\n    tag_4:\n      callvalue\n      dup1\n      iszero\n      tag_20\n      jumpi\n      0x00\n      dup1\n      revert\n    tag_20:\n      pop\n      tag_21\n      tag_22\n      jump\t// in\n    tag_21:\n      mload(0x40)\n      tag_23\n      swap2\n      swap1\n      tag_19\n      jump\t// in\n    tag_23:\n      mload(0x40)\n      dup1\n      swap2\n      sub\n      swap1\n      return\n        /* \"BuilIT.sol\":409:496  function msgSender() public view returns (address) {... */\n    tag_5:\n      callvalue\n      dup1\n      iszero\n      tag_24\n      jumpi\n      0x00\n      dup1\n      revert\n    tag_24:\n      pop\n      tag_25\n      tag_26\n      jump\t// in\n    tag_25:\n      mload(0x40)\n      tag_27\n      swap2\n      swap1\n      tag_28\n      jump\t// in\n    tag_27:\n      mload(0x40)\n      dup1\n      swap2\n      sub\n      swap1\n      return\n        /* \"BuilIT.sol\":502:587  function msgValue() public payable returns (uint) {... */\n    tag_6:\n      tag_29\n      tag_30\n      jump\t// in\n    tag_29:\n      mload(0x40)\n      tag_31\n      swap2\n      swap1\n      tag_19\n      jump\t// in\n    tag_31:\n      mload(0x40)\n      dup1\n      swap2\n      sub\n      swap1\n      return\n        /* \"BuilIT.sol\":208:301  function blockBaseFee() public view returns (uint) {... */\n    tag_7:\n      callvalue\n      dup1\n      iszero\n      tag_32\n      jumpi\n      0x00\n      dup1\n      revert\n    tag_32:\n      pop\n      tag_33\n      tag_34\n      jump\t// in\n    tag_33:\n      mload(0x40)\n      tag_35\n      swap2\n      swap1\n      tag_19\n      jump\t// in\n    tag_35:\n      mload(0x40)\n      dup1\n      swap2\n      sub\n      swap1\n      return\n        /* \"BuilIT.sol\":593:678  function txOrigin() public view returns (address) {... */\n    tag_8:\n      callvalue\n      dup1\n      iszero\n      tag_36\n      jumpi\n      0x00\n      dup1\n      revert\n    tag_36:\n      pop\n      tag_37\n      tag_38\n      jump\t// in\n    tag_37:\n      mload(0x40)\n      tag_39\n      swap2\n      swap1\n      tag_28\n      jump\t// in\n    tag_39:\n      mload(0x40)\n      dup1\n      swap2\n      sub\n      swap1\n      return\n        /* \"BuilIT.sol\":103:199  function genesisBlockHash() public view returns (bytes32) {... */\n    tag_12:\n        /* \"BuilIT.sol\":152:159  bytes32 */\n      0x00\n        /* \"BuilIT.sol\":189:190  0 */\n      dup1\n        /* \"BuilIT.sol\":179:191  blockhash(0) */\n      blockhash\n        /* \"BuilIT.sol\":172:191  return blockhash(0) */\n      swap1\n      pop\n        /* \"BuilIT.sol\":103:199  function genesisBlockHash() public view returns (bytes32) {... */\n      swap1\n      jump\t// out\n        /* \"BuilIT.sol\":684:770  function txGasPrice() public view returns (uint) {... */\n    tag_17:\n        /* \"BuilIT.sol\":727:731  uint */\n      0x00\n        /* \"BuilIT.sol\":751:762  tx.gasprice */\n      gasprice\n        /* \"BuilIT.sol\":744:762  return tx.gasprice */\n      swap1\n      pop\n        /* \"BuilIT.sol\":684:770  function txGasPrice() public view returns (uint) {... */\n      swap1\n      jump\t// out\n        /* \"BuilIT.sol\":309:403  function blockNumber() public view returns (uint) {... */\n    tag_22:\n        /* \"BuilIT.sol\":353:357  uint */\n      0x00\n        /* \"BuilIT.sol\":377:389  block.number */\n      number\n        /* \"BuilIT.sol\":370:389  return block.number */\n      swap1\n      pop\n        /* \"BuilIT.sol\":309:403  function blockNumber() public view returns (uint) {... */\n      swap1\n      jump\t// out\n        /* \"BuilIT.sol\":409:496  function msgSender() public view returns (address) {... */\n    tag_26:\n        /* \"BuilIT.sol\":451:458  address */\n      0x00\n        /* \"BuilIT.sol\":478:488  msg.sender */\n      caller\n        /* \"BuilIT.sol\":471:488  return msg.sender */\n      swap1\n      pop\n        /* \"BuilIT.sol\":409:496  function msgSender() public view returns (address) {... */\n      swap1\n      jump\t// out\n        /* \"BuilIT.sol\":502:587  function msgValue() public payable returns (uint) {... */\n    tag_30:\n        /* \"BuilIT.sol\":546:550  uint */\n      0x00\n        /* \"BuilIT.sol\":570:579  msg.value */\n      callvalue\n        /* \"BuilIT.sol\":563:579  return msg.value */\n      swap1\n      pop\n        /* \"BuilIT.sol\":502:587  function msgValue() public payable returns (uint) {... */\n      swap1\n      jump\t// out\n        /* \"BuilIT.sol\":208:301  function blockBaseFee() public view returns (uint) {... */\n    tag_34:\n        /* \"BuilIT.sol\":253:257  uint */\n      0x00\n        /* \"BuilIT.sol\":277:293  block.difficulty */\n      prevrandao\n        /* \"BuilIT.sol\":270:293  return block.difficulty */\n      swap1\n      pop\n        /* \"BuilIT.sol\":208:301  function blockBaseFee() public view returns (uint) {... */\n      swap1\n      jump\t// out\n        /* \"BuilIT.sol\":593:678  function txOrigin() public view returns (address) {... */\n    tag_38:\n        /* \"BuilIT.sol\":634:641  address */\n      0x00\n        /* \"BuilIT.sol\":661:670  tx.origin */\n      origin\n        /* \"BuilIT.sol\":654:670  return tx.origin */\n      swap1\n      pop\n        /* \"BuilIT.sol\":593:678  function txOrigin() public view returns (address) {... */\n      swap1\n      jump\t// out\n        /* \"#utility.yul\":7:84   */\n    tag_47:\n        /* \"#utility.yul\":44:51   */\n      0x00\n        /* \"#utility.yul\":73:78   */\n      dup2\n        /* \"#utility.yul\":62:78   */\n      swap1\n      pop\n        /* \"#utility.yul\":7:84   */\n      swap2\n      swap1\n      pop\n      jump\t// out\n        /* \"#utility.yul\":90:208   */\n    tag_48:\n        /* \"#utility.yul\":177:201   */\n      tag_57\n        /* \"#utility.yul\":195:200   */\n      dup2\n        /* \"#utility.yul\":177:201   */\n      tag_47\n      jump\t// in\n    tag_57:\n        /* \"#utility.yul\":172:175   */\n      dup3\n        /* \"#utility.yul\":165:202   */\n      mstore\n        /* \"#utility.yul\":90:208   */\n      pop\n      pop\n      jump\t// out\n        /* \"#utility.yul\":214:436   */\n    tag_14:\n        /* \"#utility.yul\":307:311   */\n      0x00\n        /* \"#utility.yul\":345:347   */\n      0x20\n        /* \"#utility.yul\":334:343   */\n      dup3\n        /* \"#utility.yul\":330:348   */\n      add\n        /* \"#utility.yul\":322:348   */\n      swap1\n      pop\n        /* \"#utility.yul\":358:429   */\n      tag_59\n        /* \"#utility.yul\":426:427   */\n      0x00\n        /* \"#utility.yul\":415:424   */\n      dup4\n        /* \"#utility.yul\":411:428   */\n      add\n        /* \"#utility.yul\":402:408   */\n      dup5\n        /* \"#utility.yul\":358:429   */\n      tag_48\n      jump\t// in\n    tag_59:\n        /* \"#utility.yul\":214:436   */\n      swap3\n      swap2\n      pop\n      pop\n      jump\t// out\n        /* \"#utility.yul\":442:519   */\n    tag_49:\n        /* \"#utility.yul\":479:486   */\n      0x00\n        /* \"#utility.yul\":508:513   */\n      dup2\n        /* \"#utility.yul\":497:513   */\n      swap1\n      pop\n        /* \"#utility.yul\":442:519   */\n      swap2\n      swap1\n      pop\n      jump\t// out\n        /* \"#utility.yul\":525:643   */\n    tag_50:\n        /* \"#utility.yul\":612:636   */\n      tag_62\n        /* \"#utility.yul\":630:635   */\n      dup2\n        /* \"#utility.yul\":612:636   */\n      tag_49\n      jump\t// in\n    tag_62:\n        /* \"#utility.yul\":607:610   */\n      dup3\n        /* \"#utility.yul\":600:637   */\n      mstore\n        /* \"#utility.yul\":525:643   */\n      pop\n      pop\n      jump\t// out\n        /* \"#utility.yul\":649:871   */\n    tag_19:\n        /* \"#utility.yul\":742:746   */\n      0x00\n        /* \"#utility.yul\":780:782   */\n      0x20\n        /* \"#utility.yul\":769:778   */\n      dup3\n        /* \"#utility.yul\":765:783   */\n      add\n        /* \"#utility.yul\":757:783   */\n      swap1\n      pop\n        /* \"#utility.yul\":793:864   */\n      tag_64\n        /* \"#utility.yul\":861:862   */\n      0x00\n        /* \"#utility.yul\":850:859   */\n      dup4\n        /* \"#utility.yul\":846:863   */\n      add\n        /* \"#utility.yul\":837:843   */\n      dup5\n        /* \"#utility.yul\":793:864   */\n      tag_50\n      jump\t// in\n    tag_64:\n        /* \"#utility.yul\":649:871   */\n      swap3\n      swap2\n      pop\n      pop\n      jump\t// out\n        /* \"#utility.yul\":877:1003   */\n    tag_51:\n        /* \"#utility.yul\":914:921   */\n      0x00\n        /* \"#utility.yul\":954:996   */\n      0xffffffffffffffffffffffffffffffffffffffff\n        /* \"#utility.yul\":947:952   */\n      dup3\n        /* \"#utility.yul\":943:997   */\n      and\n        /* \"#utility.yul\":932:997   */\n      swap1\n      pop\n        /* \"#utility.yul\":877:1003   */\n      swap2\n      swap1\n      pop\n      jump\t// out\n        /* \"#utility.yul\":1009:1105   */\n    tag_52:\n        /* \"#utility.yul\":1046:1053   */\n      0x00\n        /* \"#utility.yul\":1075:1099   */\n      tag_67\n        /* \"#utility.yul\":1093:1098   */\n      dup3\n        /* \"#utility.yul\":1075:1099   */\n      tag_51\n      jump\t// in\n    tag_67:\n        /* \"#utility.yul\":1064:1099   */\n      swap1\n      pop\n        /* \"#utility.yul\":1009:1105   */\n      swap2\n      swap1\n      pop\n      jump\t// out\n        /* \"#utility.yul\":1111:1229   */\n    tag_53:\n        /* \"#utility.yul\":1198:1222   */\n      tag_69\n        /* \"#utility.yul\":1216:1221   */\n      dup2\n        /* \"#utility.yul\":1198:1222   */\n      tag_52\n      jump\t// in\n    tag_69:\n        /* \"#utility.yul\":1193:1196   */\n      dup3\n        /* \"#utility.yul\":1186:1223   */\n      mstore\n        /* \"#utility.yul\":1111:1229   */\n      pop\n      pop\n      jump\t// out\n        /* \"#utility.yul\":1235:1457   */\n    tag_28:\n        /* \"#utility.yul\":1328:1332   */\n      0x00\n        /* \"#utility.yul\":1366:1368   */\n      0x20\n        /* \"#utility.yul\":1355:1364   */\n      dup3\n        /* \"#utility.yul\":1351:1369   */\n      add\n        /* \"#utility.yul\":1343:1369   */\n      swap1\n      pop\n        /* \"#utility.yul\":1379:1450   */\n      tag_71\n        /* \"#utility.yul\":1447:1448   */\n      0x00\n        /* \"#utility.yul\":1436:1445   */\n      dup4\n        /* \"#utility.yul\":1432:1449   */\n      add\n        /* \"#utility.yul\":1423:1429   */\n      dup5\n        /* \"#utility.yul\":1379:1450   */\n      tag_53\n      jump\t// in\n    tag_71:\n        /* \"#utility.yul\":1235:1457   */\n      swap3\n      swap2\n      pop\n      pop\n      jump\t// out\n\n    auxdata: 0xa2646970667358221220018403190694ab27db4c1d5a9900a93b7ed37cd133e15166d00d2b35f37f10ef64736f6c63430008180033\n}\n",
				"bytecode": {
					"linkReferences": {},
					"object": "608060405234801561000f575f80fd5b506102af8061001d5f395ff3fe60806040526004361061006f575f3560e01c8063d737d0c71161004d578063d737d0c7146100f1578063ddf363d71461011b578063f80a0b5314610139578063f96757d1146101635761006f565b806328e24b3d14610073578063534ca0541461009d57806357e871e7146100c7575b5f80fd5b34801561007e575f80fd5b5061008761018d565b60405161009491906101d7565b60405180910390f35b3480156100a8575f80fd5b506100b1610195565b6040516100be9190610208565b60405180910390f35b3480156100d2575f80fd5b506100db61019c565b6040516100e89190610208565b60405180910390f35b3480156100fc575f80fd5b506101056101a3565b6040516101129190610260565b60405180910390f35b6101236101aa565b6040516101309190610208565b60405180910390f35b348015610144575f80fd5b5061014d6101b1565b60405161015a9190610208565b60405180910390f35b34801561016e575f80fd5b506101776101b8565b6040516101849190610260565b60405180910390f35b5f8040905090565b5f3a905090565b5f43905090565b5f33905090565b5f34905090565b5f44905090565b5f32905090565b5f819050919050565b6101d1816101bf565b82525050565b5f6020820190506101ea5f8301846101c8565b92915050565b5f819050919050565b610202816101f0565b82525050565b5f60208201905061021b5f8301846101f9565b92915050565b5f73ffffffffffffffffffffffffffffffffffffffff82169050919050565b5f61024a82610221565b9050919050565b61025a81610240565b82525050565b5f6020820190506102735f830184610251565b9291505056fea2646970667358221220018403190694ab27db4c1d5a9900a93b7ed37cd133e15166d00d2b35f37f10ef64736f6c63430008180033",
					"opcodes": "PUSH1 0x80 PUSH1 0x40 MSTORE CALLVALUE DUP1 ISZERO PUSH2 0xF JUMPI PUSH0 DUP1 REVERT JUMPDEST POP PUSH2 0x2AF DUP1 PUSH2 0x1D PUSH0 CODECOPY PUSH0 RETURN INVALID PUSH1 0x80 PUSH1 0x40 MSTORE PUSH1 0x4 CALLDATASIZE LT PUSH2 0x6F JUMPI PUSH0 CALLDATALOAD PUSH1 0xE0 SHR DUP1 PUSH4 0xD737D0C7 GT PUSH2 0x4D JUMPI DUP1 PUSH4 0xD737D0C7 EQ PUSH2 0xF1 JUMPI DUP1 PUSH4 0xDDF363D7 EQ PUSH2 0x11B JUMPI DUP1 PUSH4 0xF80A0B53 EQ PUSH2 0x139 JUMPI DUP1 PUSH4 0xF96757D1 EQ PUSH2 0x163 JUMPI PUSH2 0x6F JUMP JUMPDEST DUP1 PUSH4 0x28E24B3D EQ PUSH2 0x73 JUMPI DUP1 PUSH4 0x534CA054 EQ PUSH2 0x9D JUMPI DUP1 PUSH4 0x57E871E7 EQ PUSH2 0xC7 JUMPI JUMPDEST PUSH0 DUP1 REVERT JUMPDEST CALLVALUE DUP1 ISZERO PUSH2 0x7E JUMPI PUSH0 DUP1 REVERT JUMPDEST POP PUSH2 0x87 PUSH2 0x18D JUMP JUMPDEST PUSH1 0x40 MLOAD PUSH2 0x94 SWAP2 SWAP1 PUSH2 0x1D7 JUMP JUMPDEST PUSH1 0x40 MLOAD DUP1 SWAP2 SUB SWAP1 RETURN JUMPDEST CALLVALUE DUP1 ISZERO PUSH2 0xA8 JUMPI PUSH0 DUP1 REVERT JUMPDEST POP PUSH2 0xB1 PUSH2 0x195 JUMP JUMPDEST PUSH1 0x40 MLOAD PUSH2 0xBE SWAP2 SWAP1 PUSH2 0x208 JUMP JUMPDEST PUSH1 0x40 MLOAD DUP1 SWAP2 SUB SWAP1 RETURN JUMPDEST CALLVALUE DUP1 ISZERO PUSH2 0xD2 JUMPI PUSH0 DUP1 REVERT JUMPDEST POP PUSH2 0xDB PUSH2 0x19C JUMP JUMPDEST PUSH1 0x40 MLOAD PUSH2 0xE8 SWAP2 SWAP1 PUSH2 0x208 JUMP JUMPDEST PUSH1 0x40 MLOAD DUP1 SWAP2 SUB SWAP1 RETURN JUMPDEST CALLVALUE DUP1 ISZERO PUSH2 0xFC JUMPI PUSH0 DUP1 REVERT JUMPDEST POP PUSH2 0x105 PUSH2 0x1A3 JUMP JUMPDEST PUSH1 0x40 MLOAD PUSH2 0x112 SWAP2 SWAP1 PUSH2 0x260 JUMP JUMPDEST PUSH1 0x40 MLOAD DUP1 SWAP2 SUB SWAP1 RETURN JUMPDEST PUSH2 0x123 PUSH2 0x1AA JUMP JUMPDEST PUSH1 0x40 MLOAD PUSH2 0x130 SWAP2 SWAP1 PUSH2 0x208 JUMP JUMPDEST PUSH1 0x40 MLOAD DUP1 SWAP2 SUB SWAP1 RETURN JUMPDEST CALLVALUE DUP1 ISZERO PUSH2 0x144 JUMPI PUSH0 DUP1 REVERT JUMPDEST POP PUSH2 0x14D PUSH2 0x1B1 JUMP JUMPDEST PUSH1 0x40 MLOAD PUSH2 0x15A SWAP2 SWAP1 PUSH2 0x208 JUMP JUMPDEST PUSH1 0x40 MLOAD DUP1 SWAP2 SUB SWAP1 RETURN JUMPDEST CALLVALUE DUP1 ISZERO PUSH2 0x16E JUMPI PUSH0 DUP1 REVERT JUMPDEST POP PUSH2 0x177 PUSH2 0x1B8 JUMP JUMPDEST PUSH1 0x40 MLOAD PUSH2 0x184 SWAP2 SWAP1 PUSH2 0x260 JUMP JUMPDEST PUSH1 0x40 MLOAD DUP1 SWAP2 SUB SWAP1 RETURN JUMPDEST PUSH0 DUP1 BLOCKHASH SWAP1 POP SWAP1 JUMP JUMPDEST PUSH0 GASPRICE SWAP1 POP SWAP1 JUMP JUMPDEST PUSH0 NUMBER SWAP1 POP SWAP1 JUMP JUMPDEST PUSH0 CALLER SWAP1 POP SWAP1 JUMP JUMPDEST PUSH0 CALLVALUE SWAP1 POP SWAP1 JUMP JUMPDEST PUSH0 PREVRANDAO SWAP1 POP SWAP1 JUMP JUMPDEST PUSH0 ORIGIN SWAP1 POP SWAP1 JUMP JUMPDEST PUSH0 DUP2 SWAP1 POP SWAP2 SWAP1 POP JUMP JUMPDEST PUSH2 0x1D1 DUP2 PUSH2 0x1BF JUMP JUMPDEST DUP3 MSTORE POP POP JUMP JUMPDEST PUSH0 PUSH1 0x20 DUP3 ADD SWAP1 POP PUSH2 0x1EA PUSH0 DUP4 ADD DUP5 PUSH2 0x1C8 JUMP JUMPDEST SWAP3 SWAP2 POP POP JUMP JUMPDEST PUSH0 DUP2 SWAP1 POP SWAP2 SWAP1 POP JUMP JUMPDEST PUSH2 0x202 DUP2 PUSH2 0x1F0 JUMP JUMPDEST DUP3 MSTORE POP POP JUMP JUMPDEST PUSH0 PUSH1 0x20 DUP3 ADD SWAP1 POP PUSH2 0x21B PUSH0 DUP4 ADD DUP5 PUSH2 0x1F9 JUMP JUMPDEST SWAP3 SWAP2 POP POP JUMP JUMPDEST PUSH0 PUSH20 0xFFFFFFFFFFFFFFFFFFFFFFFFFFFFFFFFFFFFFFFF DUP3 AND SWAP1 POP SWAP2 SWAP1 POP JUMP JUMPDEST PUSH0 PUSH2 0x24A DUP3 PUSH2 0x221 JUMP JUMPDEST SWAP1 POP SWAP2 SWAP1 POP JUMP JUMPDEST PUSH2 0x25A DUP2 PUSH2 0x240 JUMP JUMPDEST DUP3 MSTORE POP POP JUMP JUMPDEST PUSH0 PUSH1 0x20 DUP3 ADD SWAP1 POP PUSH2 0x273 PUSH0 DUP4 ADD DUP5 PUSH2 0x251 JUMP JUMPDEST SWAP3 SWAP2 POP POP JUMP INVALID LOG2 PUSH5 0x6970667358 0x22 SLT KECCAK256 ADD DUP5 SUB NOT MOD SWAP5 0xAB 0x27 0xDB 0x4C SAR GAS SWAP10 STOP 0xA9 EXTCODESIZE PUSH31 0xD37CD133E15166D00D2B35F37F10EF64736F6C634300081800330000000000 "
				},
				"gasEstimates": {
					"creation": {
						"codeDepositCost": "137400",
						"executionCost": "181",
						"totalCost": "137581"
					},
					"external": {
						"blockBaseFee()": "375",
						"blockNumber()": "376",
						"genesisBlockHash()": "353",
						"msgSender()": "379",
						"msgValue()": "329",
						"txGasPrice()": "354",
						"txOrigin()": "445"
					}
				},
				"methodIdentifiers": {
					"blockBaseFee()": "f80a0b53",
					"blockNumber()": "57e871e7",
					"genesisBlockHash()": "28e24b3d",
					"msgSender()": "d737d0c7",
					"msgValue()": "ddf363d7",
					"txGasPrice()": "534ca054",
					"txOrigin()": "f96757d1"
				}
			},
			"storageLayout": {
				"storage": [],
				"types": null
			},
			"userdoc": {
				"kind": "user",
				"methods": {},
				"version": 1
			}
		}
	}
}